:040000002DEF00F0F0
:060008006B8212ED11F005
:100018006B80D8CF5BF0E8CF5CF0E0CF5DF0FACF33
:100028005EF0FBCF5FF0D9CF60F0DACF61F003EC80
:1000380008F061C0DAFF60C0D9FF5FC0FBFF5EC097
:10004800FAFF5DC0E0FF5CC0E8FF5BC0D8FF6B90C3
:060058001000B5EF0DF0F1
:0510000000256900005D
:10100600F2A808EF08F00AEF08F013EF08F0F2A2D2
:101016000FEF08F011EF08F013EF08F065EC12F08F
:10102600F0A618EF08F01AEF08F023EF08F0F0A08A
:101036001FEF08F021EF08F023EF08F063EC12F041
:10104600F0A828EF08F02AEF08F033EF08F0F0A236
:101056002FEF08F031EF08F033EF08F061EC12F0F3
:10106600F2A638EF08F03AEF08F055EF08F0F2A0D4
:101076003FEF08F041EF08F055EF08F081A846EF82
:1010860008F048EF08F055EF08F06604D8A44EEFD4
:1010960008F050EF08F055EF08F0000E666E010EEE
:1010A600E0EC11F0F2A65AEF08F05CEF08F077EFEB
:1010B60008F0F2A061EF08F063EF08F077EF08F0B0
:1010C60081B868EF08F06AEF08F077EF08F066502D
:1010D600D8A470EF08F072EF08F077EF08F0010E71
:1010E600666E000EE0EC11F0F2A67CEF08F07EEFE3
:1010F60008F099EF08F0F2A083EF08F085EF08F00A
:1011060099EF08F081AA8AEF08F08CEF08F099EFC2
:1011160008F06504D8A492EF08F094EF08F099EF70
:1011260008F0000E656E010ED3EC11F0F2A69EEFEC
:1011360008F0A0EF08F0BBEF08F0F2A0A5EF08F06A
:10114600A7EF08F0BBEF08F081BAACEF08F0AEEFFE
:1011560008F0BBEF08F06550D8A4B4EF08F0B6EF7E
:1011660008F0BBEF08F0010E656E000ED3EC11F02F
:10117600F2A6C0EF08F0C2EF08F0DDEF08F0F2A02B
:10118600C7EF08F0C9EF08F0DDEF08F081ACCEEF4D
:1011960008F0D0EF08F0DDEF08F06404D8A4D6EF2D
:1011A60008F0D8EF08F0DDEF08F0000E646E010ECF
:1011B600C6EC11F0F2A6E2EF08F0E4EF08F0FFEF5C
:1011C60008F0F2A0E9EF08F0EBEF08F0FFEF08F007
:1011D60081BCF0EF08F0F2EF08F0FFEF08F0645082
:1011E600D8A4F8EF08F0FAEF08F0FFEF08F0010EC8
:1011F600646E000EC6EC11F0F2A604EF09F006EFDD
:1012060009F021EF09F0F2A00BEF09F00DEF09F05C
:1012160021EF09F081AE12EF09F014EF09F021EF8A
:1012260009F06304D8A41AEF09F01CEF09F021EFC6
:1012360009F0000E636E010EB9EC11F0F2A626EF6E
:1012460009F028EF09F043EF09F0F2A02DEF09F0BD
:101256002FEF09F043EF09F081BE34EF09F036EFC6
:1012660009F043EF09F06350D8A43CEF09F03EEFD4
:1012760009F043EF09F0010E636E000EB9EC11F0B0
:101286009DAC48EF09F04AEF09F053EF09F09EAC28
:101296004FEF09F051EF09F053EF09F067EC12F048
:1012A600F2AA58EF09F05AEF09F063EF09F0F2A439
:1012B6005FEF09F061EF09F063EF09F0CEEC0FF094
:1012C6009DA068EF09F06AEF09F073EF09F09EA0A0
:1012D6006FEF09F071EF09F073EF09F048EC12F0C7
:1012E6009DA278EF09F07AEF09F083EF09F09EA24C
:1012F6007FEF09F081EF09F083EF09F059EC12F066
:10130600A0A288EF09F08AEF09F093EF09F0A1A2F5
:101316008FEF09F091EF09F093EF09F0E9EC0FF088
:101326009DA498EF09F09AEF09F0A3EF09F09EA4A7
:101336009FEF09F0A1EF09F0A3EF09F0CDEC10F053
:101346009DA8A8EF09F0AAEF09F0B3EF09F09EA84F
:10135600AFEF09F0B1EF09F0B3EF09F0B6EC10F01A
:101366009DAAB8EF09F0BAEF09F0C3EF09F09EAAFB
:10137600BFEF09F0C1EF09F0C3EF09F086EC10F0FA
:101386009DA6C8EF09F0CAEF09F0D3EF09F09EA6B3
:10139600CFEF09F0D1EF09F0D3EF09F071EC12F0BD
:1013A6001200F2A8D9EF09F0DBEF09F0E4EF09F03B
:1013B600F2A2E0EF09F0E2EF09F0E4EF09F06DECDC
:1013C60012F0F0A6E9EF09F0EBEF09F0F4EF09F0FF
:1013D600F0A0F0EF09F0F2EF09F0F4EF09F06BEC92
:1013E60012F0F0A8F9EF09F0FBEF09F004EF0AF0AC
:1013F600F0A200EF0AF002EF0AF004EF0AF069EC3F
:1014060012F0F2A609EF0AF00BEF0AF026EF0AF047
:10141600F2A010EF0AF012EF0AF026EF0AF081A808
:1014260017EF0AF019EF0AF026EF0AF06604D8A4BF
:101436001FEF0AF021EF0AF026EF0AF0000E666EA3
:10144600010E21EC12F0F2A62BEF0AF02DEF0AF0B6
:1014560048EF0AF0F2A032EF0AF034EF0AF048EF54
:101466000AF081B839EF0AF03BEF0AF048EF0AF0CC
:101476006650D8A441EF0AF043EF0AF048EF0AF0AD
:10148600010E666E000E21EC12F0F2A64DEF0AF088
:101496004FEF0AF06AEF0AF0F2A054EF0AF056EFA7
:1014A6000AF06AEF0AF081AA5BEF0AF05DEF0AF034
:1014B6006AEF0AF06504D8A463EF0AF065EF0AF054
:1014C6006AEF0AF0000E656E010E14EC12F0F2A639
:1014D6006FEF0AF071EF0AF08CEF0AF0F2A076EFE8
:1014E6000AF078EF0AF08CEF0AF081BA7DEF0AF085
:1014F6007FEF0AF08CEF0AF06550D8A485EF0AF06A
:1015060087EF0AF08CEF0AF0010E656E000E14EC00
:1015160012F0F2A691EF0AF093EF0AF0AEEF0AF09E
:10152600F2A098EF0AF09AEF0AF0AEEF0AF081AC5B
:101536009FEF0AF0A1EF0AF0AEEF0AF06404D8A418
:10154600A7EF0AF0A9EF0AF0AEEF0AF0000E646EFC
:10155600010E07EC12F0F2A6B3EF0AF0B5EF0AF0AF
:10156600D0EF0AF0F2A0BAEF0AF0BCEF0AF0D0EF23
:101576000AF081BCC1EF0AF0C3EF0AF0D0EF0AF01F
:101586006450D8A4C9EF0AF0CBEF0AF0D0EF0AF006
:10159600010E646E000E07EC12F0F2A6D5EF0AF00B
:1015A600D7EF0AF0F2EF0AF0F2A0DCEF0AF0DEEF76
:1015B6000AF0F2EF0AF081AEE3EF0AF0E5EF0AF087
:1015C600F2EF0AF06304D8A4EBEF0AF0EDEF0AF0AD
:1015D600F2EF0AF0000E636E010EFAEC11F0F2A6BD
:1015E600F7EF0AF0F9EF0AF014EF0BF0F2A0FEEFB6
:1015F6000AF000EF0BF014EF0BF081BE05EF0BF0D5
:1016060007EF0BF014EF0BF06350D8A40DEF0BF0BF
:101616000FEF0BF014EF0BF0010E636E000EFAECF9
:1016260011F09DAC19EF0BF01BEF0BF024EF0BF054
:101636009EAC20EF0BF022EF0BF024EF0BF06FECDB
:1016460012F0F2AA29EF0BF02BEF0BF034EF0BF0B0
:10165600F2A430EF0BF032EF0BF034EF0BF004ECAA
:1016660010F09DA039EF0BF03BEF0BF044EF0BF0C1
:101676009EA040EF0BF042EF0BF044EF0BF04EEC68
:1016860012F09DA249EF0BF04BEF0BF054EF0BF06D
:101696009EA250EF0BF052EF0BF054EF0BF05DEC07
:1016A60012F0A0A259EF0BF05BEF0BF064EF0BF01A
:1016B600A1A260EF0BF062EF0BF064EF0BF01FECF2
:1016C60010F09DA469EF0BF06BEF0BF074EF0BF0CD
:1016D6009EA470EF0BF072EF0BF074EF0BF0FBECC7
:1016E60010F09DA879EF0BF07BEF0BF084EF0BF079
:1016F6009EA880EF0BF082EF0BF084EF0BF0E4EC8A
:1017060010F09DAA89EF0BF08BEF0BF094EF0BF026
:101716009EAA90EF0BF092EF0BF094EF0BF09EEC7D
:1017260010F09DA699EF0BF09BEF0BF0A4EF0BF0DA
:101736009EA6A0EF0BF0A2EF0BF0A4EF0BF072EC5D
:1017460012F01200010E0001FE6FF651F711D8B427
:10175600AFEF0BF0B1EF0BF0C2EF0BF0F6C0D9FF15
:10176600F7C0DAFFDF30E832E832070BF86F070E12
:10177600F865C0EF0BF0C2EF0BF027EF0CF0000E90
:10178600FE6F48EF0CF0F6C0D9FFF7C0DAFFDF3086
:10179600E832E832070BF86F010EF96FF82BD6EF37
:1017A6000BF0D890F937F82FD4EF0BF00001F95170
:1017B600FF0AFA6FF6C0D9FFF7C0DAFFDF50070B52
:1017C600FB6FFB51020D940EF324D96E000EF4202C
:1017D600DA6EDECFFCF0DDCFFDF0FCC0D9FFFDC038
:1017E600DAFFFA51DF1648EF0CF0F6C0D9FFF7C062
:1017F600DAFFDF30E832E832070BF86F010EF96FD7
:10180600F82B08EF0CF0D890F937F82F06EF0CF00C
:10181600F6C0D9FFF7C0DAFFDF50070B0001FA6FF9
:10182600FA51020D940EF324D96E000EF420DA6EEE
:10183600DECFFBF0DDCFFCF0FBC0D9FFFCC0DAFF4A
:10184600F951DF1248EF0CF0F6C0D9FFF7C0DAFF06
:10185600DFBC30EF0CF033EF0CF0010E34EF0CF080
:10186600000EF86FF96BF951000AD8B43DEF0CF091
:10187600C2EF0BF0F851000AD8B4C6EF0BF0010A1C
:10188600D8B4F8EF0BF0C2EF0BF0FE511200010EC8
:101896000001FF6FF651F711D8B454EF0CF056EF74
:1018A6000CF067EF0CF0F6C0D9FFF7C0DAFFDF30B7
:1018B600E832E832070BF96F070EF96565EF0CF0B1
:1018C60067EF0CF0CCEF0CF0000EFF6FE1EF0CF0C1
:1018D600F6C0D9FFF7C0DAFFDF30E832E832070B8F
:1018E600F96F010EFA6FF92B7BEF0CF0D890FA37EF
:1018F600F92F79EF0CF00001FA51FF0AFB6FF6C0E1
:10190600D9FFF7C0DAFFDF50070BFC6FFC51020D61
:101916008A0EF324D96E000EF420DA6EDECFFDF0C7
:10192600DDCFFEF0FDC0D9FFFEC0DAFFFB51DF16AA
:10193600E1EF0CF0F6C0D9FFF7C0DAFFDF30E8328E
:10194600E832070BF96F010EFA6FF92BADEF0CF0C9
:10195600D890FA37F92FABEF0CF0F6C0D9FFF7C0E5
:10196600DAFFDF50070B0001FB6FFB51020D8A0EF9
:10197600F324D96E000EF420DA6EDECFFCF0DDCF54
:10198600FDF0FCC0D9FFFDC0DAFFFA51DF12E1EF2E
:101996000CF0F851F96FFA6BFA51000AD8B4D6EF89
:1019A6000CF067EF0CF0F951000AD8B46BEF0CF0AD
:1019B600010AD8B49DEF0CF067EF0CF0FF5112004E
:1019C6000001F651F711D8B4EBEF0CF0EDEF0CF087
:1019D600FEEF0CF0F6C0D9FFF7C0DAFFDF30E832D1
:1019E600E832070BF86F070EF865FCEF0CF0FEEF18
:1019F6000CF000EF0DF02DEF0DF0F6C0D9FFF7C09B
:101A0600DAFFDF30E832E832070BF86F010EF96FC4
:101A1600F82B10EF0DF0D890F937F82F0EEF0DF0E8
:101A2600F6C0D9FFF7C0DAFFDF50070B0001FA6FE7
:101A3600FA51020D8A0EF324D96E000EF420DA6EE6
:101A4600DECFFBF0DDCFFCF0FBC0D9FFFCC0DAFF38
:101A5600F951DF1A12000001FD51FE11D8A436EF2C
:101A66000DF038EF0DF03AEF0DF072EF0DF03DC0CE
:101A760013F1FDC0D9FFFEC0DAFFDF500F0BFF6F79
:101A8600010113510001FF19F80BFF190101136F32
:101A9600FDC0D9FFFEC0DAFFDF38070B0001FF6F7C
:101AA600FF47FF47FF47010113510001FF19C70B0D
:101AB600FF190101136F139DFDC0D9FFFEC0DAFFA8
:101AC6000001DFAE03D00101138F02D00101139F85
:101AD600130E0001F66F010EF76FE3EC0CF0120027
:101AE6000001F651F711D8A47BEF0DF07DEF0DF054
:101AF60081EF0DF0000EF96FB3EF0DF0C69A9488E2
:101B06009486928A949AF6C0D9FFF7C0DAFFDF501E
:101B1600F86FF83BC650F819EF0BF819C66E20EEB1
:101B260001F0F651D926F751DA22DF50F86FF83B6B
:101B3600F847F847C750F819BF0BF819C76EC79E84
:101B460020EE02F0F651D926F751DA22DF50F86F6F
:101B5600C650F819F00BF819C66EC68A010EF96F51
:101B6600F95112005C0EF66E240EF76E000EF86E3A
:101B760001EE00F010EE13F00900F5CFEEFFE55090
:101B8600E150FAE19E0EF66E1E0EF76E000EF86E2E
:101B960000EE80F010EE4DF00900F5CFEEFFE550B7
:101BA600E150FAE1A80EF66E240EF76E000EF86EFE
:101BB60000EE62F010EE09F00900F5CFEEFFE550F9
:101BC600E150FAE100EECDF0290EEE6AE806FDE1FD
:101BD60000EE01F0460EEE6AE806FDE16B906B92B0
:101BE6000001FCEF0EF0010E0101196F16511711DD
:101BF600D8A400EF0EF002EF0EF006EF0EF0000E86
:101C0600196F34EF0EF040C01AF116C1D9FF17C193
:101C1600DAFFDF500F0B186F1A511819F80B181945
:101C26001A6F16C1D9FF17C1DAFFDF38070B186F15
:101C36001847184718471A511819C70B18191A6F59
:101C46001A9D16C1D9FF17C1DAFFDFAE02D01A8F6F
:101C560002D001011A9F1A0E136F010E146F26ECA3
:101C66000FF00101195112006BA23CEF0EF06DEF5F
:101C76000EF03A2A392A3A04D8A444EF0EF046EF79
:101C86000EF05BEF0EF0C10E536E000E546E000E9A
:101C9600566E000E556E5FEC11F0000E0001F26FED
:101CA600000EF36F000EF46F000EF56F6CEF0EF082
:101CB600020E3A18D8A462EF0EF064EF0EF06CEF45
:101CC6000EF0000E3A6E410E536E000E546E96ECF8
:101CD6000FF012003A2A392A3A04D8A475EF0EF00A
:101CE60077EF0EF08CEF0EF0C10E476E000E486EC9
:101CF600000E4A6E000E496E7FEC11F0000E0001D8
:101D0600F26F000EF36F000EF46F000EF56F9DEF8D
:101D16000EF0020E3A18D8A493EF0EF095EF0EF0DF
:101D26009DEF0EF0000E3A6E410E476E000E486EA5
:101D3600B2EC0FF01200000E596E000E5A6E5350A0
:101D46005410D8B4A9EF0EF0ABEF0EF0B4EF0EF0CE
:101D560055505610D8A4B2EF0EF0B4EF0EF0B6EF11
:101D66000EF0CCEF0EF0CECF59F0CFCF5AF059503F
:101D76005AC057F0586A57C058F0576A5726000E8F
:101D8600582255C0D9FF56C0DAFF57C0DEFF58C0EB
:101D9600DDFF1200000E4D6E000E4E6E47504810CD
:101DA600D8B4D8EF0EF0DAEF0EF0E3EF0EF04950AC
:101DB6004A10D8A4E1EF0EF0E3EF0EF0E5EF0EF0D7
:101DC600FBEF0EF0CECF4DF0CFCF4EF04D504EC0C4
:101DD6004BF04C6A4BC04CF04B6A4B26000E4C2223
:101DE60049C0D9FF4AC0DAFF4BC0DEFF4CC0DDFF59
:101DF60012008FEC11F0450E0001F66F000EF76F22
:101E060076EC0FF0410E4518D8A40CEF0FF00EEF4C
:101E16000FF0FEEF0EF06A0E0001FD6F000EFE6F72
:101E26002EEC0DF0020E01011C6F040E1B6FBA0E94
:101E3600E82EFED71B2FFCD71C2FFAD700F0FEEF9B
:101E46000EF02DEF00F0010113511411D8A42EEF5E
:101E56000FF030EF0FF034EF0FF0000E156F4DEF6F
:101E66000FF013C1F6F014C1F7F0A5EC0BF0010169
:101E7600156F13C1F6F014C1F7F013C1D9FF14C1E1
:101E8600DAFF000EDFBE010E0001F86F4AEC0CF01F
:101E96000101151715511200800F810F820F830F54
:101EA600840F890F8A0F8B0F8C0F8D0F920F930F54
:101EB600940F950F960F323A030B131B232B333BCC
:101EC60074200104DC0B0700526E1C010500020A97
:101ED600121A222A00000100005823000000000008
:051EE6000001000024D2
:101EEC000001F651F711D8A47EEF0FF080EF0FF040
:101EFC0084EF0FF0000EF86F94EF0FF09EA689EFB1
:101F0C000FF08BEF0FF092EF0FF0F6C0D9FFF7C088
:101F1C00DAFFC9CFDFFF9E96010EF86FF851120061
:101F2C0033C055F034C056F053505410D8A4A1EF20
:101F3C000FF0A3EF0FF0A5EF0FF0B1EF0FF0BECF46
:101F4C0055F0BFCF56F053C0D9FF54C0DAFF55C07F
:101F5C00DEFF56C0DDFF120033C049F034C04AF03A
:101F6C0047504810D8A4BDEF0FF0BFEF0FF0C1EFF2
:101F7C000FF0CDEF0FF0BECF49F0BFCF4AF047C006
:101F8C00D9FF48C0DAFF49C0DEFF4AC0DDFF1200AE
:101F9C00F2941A50D76E19C0D6FF1B501C10D8B42F
:101FAC00DAEF0FF0DCEF0FF0E8EF0FF002D8E8EF0C
:101FBC000FF00500FA6E1B50FD6E1C50FE6EFF6A92
:101FCC00FA5012001200A1921050B36E0FC0B2FF63
:101FDC0011501210D8B4F5EF0FF0F7EF0FF003EF2C
:101FEC0010F002D803EF10F00500FA6E1150FD6EE0
:101FFC001250FE6EFF6AFA5012001200F2941A5040
:10200C00D76E19C0D6FF1B501C10D8B410EF10F0AF
:10201C0012EF10F01EEF10F002D81EEF10F00500BA
:10202C00FA6E1B50FD6E1C50FE6EFF6AFA501200C9
:10203C001200A1921050B36E0FC0B2FF11501210CB
:10204C00D8B42BEF10F02DEF10F039EF10F002D8C0
:10205C0039EF10F00500FA6E1150FD6E1250FE6E45
:10206C00FF6AFA50120012006BA23FEF10F027EF3C
:10207C0011F0C70E536E000E546E460E556E000EC8
:10208C00566E9EEC0EF0C70E536E000E546E000E84
:10209C00566E000E556E4FEC11F01200535054104A
:1020AC00D8A45BEF10F05DEF10F05FEF10F06CEF69
:1020BC0010F09EAA64EF10F066EF10F05DEF10F0D8
:1020CC0053C0D9FF54C0DAFFAECFDFFF1200475028
:1020DC004810D8A474EF10F076EF10F078EF10F0F1
:1020EC0085EF10F09EAA7DEF10F07FEF10F076EFE9
:1020FC0010F047C0D9FF48C0DAFFAECFDFFF1200A7
:10210C000B500C10D8B48DEF10F08FEF10F09DEF3A
:10211C0010F002D89BEF10F00500FA6E0B50FD6E1C
:10212C000C50FE6EFF6AFA5012009DEF10F0120078
:10213C000B500C10D8B4A5EF10F0A7EF10F0B5EFC2
:10214C0010F002D8B3EF10F00500FA6E0B50FD6ED4
:10215C000C50FE6EFF6AFA501200B5EF10F0120030
:10216C009D980D500E10D8B4BEEF10F0C0EF10F0CB
:10217C00CCEF10F002D8CCEF10F00500FA6E0D5039
:10218C00FD6E0E50FE6EFF6AFA50120012009E9405
:10219C0035503610D8B4D5EF10F0D7EF10F0E3EF80
:1021AC0010F002D8E3EF10F00500FA6E3550FD6E1A
:1021BC003650FE6EFF6AFA50120012009D980D50B8
:1021CC000E10D8B4ECEF10F0EEEF10F0FAEF10F0B8
:1021DC0002D8FAEF10F00500FA6E0D50FD6E0E509D
:1021EC00FE6EFF6AFA50120012009E9435503610A3
:1021FC00D8B403EF11F005EF11F011EF11F002D884
:10220C0011EF11F00500FA6E3550FD6E3650FE6E72
:10221C00FF6AFA50120012000600FACF4FF0FBCF03
:10222C0050F0D9CF51F0DACF52F0D4EC09F052C0C3
:10223C00DAFF51C0D9FF50C0FBFF4FC0FAFF6B92C1
:10224C001100C70E476E000E486E460E496E000E0A
:10225C004A6ECDEC0EF0C70E476E000E486E000EA7
:10226C004A6E000E496E6FEC11F012006BA241EF3A
:10227C0011F09EEF11F0010E0001EE27000EEF237E
:10228C00F023F123450E536E000E546E54EC10F0F7
:10229C00120053505410D8A456EF11F058EF11F00F
:1022AC005AEF11F05EEF11F05650CF6E55C0CEFFC5
:1022BC00120053505410D8A466EF11F068EF11F0CF
:1022CC006AEF11F06EEF11F05650B36E55C0B2FFBD
:1022DC00120047504810D8A476EF11F078EF11F0A7
:1022EC007AEF11F07EEF11F04A50CF6E49C0CEFF5D
:1022FC00120047504810D8A486EF11F088EF11F067
:10230C008AEF11F08EEF11F04A50B36E49C0B2FF54
:10231C0012006A0E0101166F000E176FF6EC0DF02D
:10232C00670E0001F66F000EF76F73EC0DF01200E4
:10233C00010E0001EE27000EEF23F023F123450ED2
:10234C00476E000E486E6DEC10F012006BA2B1EFF0
:10235C0011F038EF12F0010E0001F227000EF323FA
:10236C00F423F5231200536EF2905350D8A4C1EF0E
:10237C0011F0C3EF11F0C5EF11F0C5EF11F0120021
:10238C00536EF2905350D8A4CEEF11F0D0EF11F061
:10239C00D2EF11F0D2EF11F01200536EF2905350B5
:1023AC00D8A4DBEF11F0DDEF11F0DFEF11F0DFEF70
:1023BC0011F01200536EF2905350D8A4E8EF11F0C4
:1023CC00EAEF11F0ECEF11F0ECEF11F012006BA250
:1023DC00F2EF11F040EF12F0010E0001EA27000EAF
:1023EC00EB23EC23ED231200476EF2904750D8A458
:1023FC0002EF12F004EF12F006EF12F006EF12F0FB
:10240C001200476EF2904750D8A40FEF12F011EF64
:10241C0012F013EF12F013EF12F01200476EF2905D
:10242C004750D8A41CEF12F01EEF12F020EF12F060
:10243C0020EF12F01200476EF2904750D8A429EF0B
:10244C0012F02BEF12F02DEF12F02DEF12F0120014
:10245C008025000000010300030000DA237822002D
:03246C000000006D
:10247000010E0001F227000EF323F423F5231200CE
:10248000010E0001EA27000EEB23EC23ED231200DE
:102490009E901650CF6E15C0CEFF12009E90165023
:1024A000CF6E15C0CEFF12007201010101000004C1
:0124B0000328
:1024B2009E923CC0CCFF12009E923CC0CCFF120008
:1024C200F0921200F0901200F29212009E9C120002
:1024D200F0921200F0901200F29212009E9C1200F2
:0424E20012001200D2
:020000040020DA
:08000000FFFFFFFFFFFFFFFF00
:020000040030CA
:0E000000FF02091EFF8181FF0FC00FE00F40BD
:00000001FF
