:040000002DEF00F0F0
:0600080064823BED19F0DB
:100018006480D8CF15F0E8CF16F0E0CF17F0FACF0C
:1000280018F0FBCF19F0D9CF1AF0DACF1BF016EC85
:100038000DF01BC0DAFF1AC0D9FF19C0FBFF18C0AA
:10004800FAFF17C0E0FF16C0E8FF15C0D8FF64909C
:060058001000D6EF15F0C8
:0510000000256900005D
:1010060001012A51800B0001FC6F01012A512A259A
:101016000001FE6F010129AF13EF08F015EF08F08C
:1010260017EF08F00001FE810001FE51D8B41EEF53
:1010360008F020EF08F037EF08F0FE29D8A426EFD5
:1010460008F028EF08F031EF08F0000E0101276FD5
:10105600000E286F000E296F000E2A6F0101298FDE
:10106600000E2A6F40EF08F0000E0101276F000EF8
:10107600286F000E296F000E2A6F2E51800B00017B
:10108600FD6FFC51FD19D8B44BEF08F04DEF08F099
:101096004EEF08F0FC8D01012E512E250001FD6F4B
:1010A60001012DAF59EF08F05BEF08F05DEF08F096
:1010B6000001FD810001FD51D8B464EF08F066EF30
:1010C60008F07DEF08F0FD29D8A46CEF08F06EEF6C
:1010D60008F077EF08F0000E01012B6F000E2C6F61
:1010E600000E2D6F000E2E6F01012D8F000E2E6F3C
:1010F60086EF08F0000E01012B6F000E2C6F000E1C
:101106002D6F000E2E6F0001FE51FD5DD8B08EEFE3
:1011160008F090EF08F0B7EF08F0FCAD95EF08F097
:1011260097EF08F099EF08F0800EFC1BFEC0FFF069
:10113600FDC0FEF0FFC0FDF027C1FFF02BC127F177
:10114600FFC02BF128C1FFF02CC128F1FFC02CF104
:1011560029C1FFF02DC129F1FFC02DF12AC1FFF0F1
:101166002EC12AF1FFC02EF1000EFF6FFE51FDC009
:1011760043F0446A435E000E445A44BECCEF08F086
:10118600445009E11A0E435CD8A0CCEF08F0CEEF2C
:1011960008F00CEF09F001012751281129112A1135
:1011A600D8A4D8EF08F0DBEF08F0010EDCEF08F06A
:1011B600000E0001FF6F000E0101276F000E286F61
:1011C600000E296F000E2A6FFDC0FEF015EF09F024
:1011D600FFA1F0EF08F0F2EF08F0F8EF08F0D89072
:1011E600FF310109FF6FFAEF08F0D890FF330101D4
:1011F60027A100EF09F002EF09F004EF09F0000162
:10120600FF8F01012A352A3329332833273300017A
:10121600FE2BFD51FE5DD8A013EF09F015EF09F086
:10122600EBEF08F00001FCBD1BEF09F01DEF09F024
:1012360064EF09F0FE51D8A423EF09F025EF09F079
:1012460030EF09F0000E0101276F000E286F000E27
:10125600296F000E2A6F9EEF0AF001012B512727F6
:101266002C5128232D5129232E512A232AA13EEF22
:1012760009F040EF09F0FBEF09F00001FFA146EF8E
:1012860009F048EF09F04EEF09F0D890FF31010957
:10129600FF6F50EF09F0D890FF33010127A156EFF9
:1012A60009F058EF09F05AEF09F00001FF8F01012C
:1012B6002A352A332933283327330001FE2BFBEF47
:1012C60009F001012B51275D2C5128592D5129591F
:1012D6002A51800A436E2E51800A4358D8B076EFC1
:1012E60009F078EF09F0A5EF09F027512B5D436E61
:1012F60028512C59446E29512D59456E2A512E5983
:10130600466EFF0E4324276FFF0E4420286FFF0E04
:101316004520296FFF0E46202A6F800E0001FC1B18
:10132600FF6DFF51D8A49AEF09F09CEF09F0ADEFDD
:1013360009F0010E01012727000E282329232A235D
:10134600ADEF09F02B51275F2C51285B2D51295BFE
:101356002E512A5B01012751281129112A11D8A4DF
:10136600B7EF09F0B9EF09F0F3EF09F00001FF510B
:10137600D8A4C0EF09F0C2EF09F0F3EF09F0000EB0
:101386000101276F000E286F000E296F000E2A6FCD
:101396009EEF0AF0D8902737283729372A370001D9
:1013A600FFAFD8EF09F0DAEF09F0DCEF09F0010141
:1013B60027810001FFA1E2EF09F0E4EF09F0E8EF71
:1013C60009F0D880FF37EAEF09F0D890FF37FE51D1
:1013D600D8B4F0EF09F0F2EF09F0F3EF09F0FE07E9
:1013E600010129AFF9EF09F0FBEF09F0CDEF09F0A4
:1013F600000E0001FD6FFFAF03EF0AF005EF0AF0E4
:101406001FEF0AF0FFC043F07F0E4316D8B40EEF6D
:101416000AF010EF0AF015EF0AF0010E0001FD6F59
:101426001FEF0AF0010127A11BEF0AF01DEF0AF0DA
:101436001FEF0AF010EF0AF00001FD51D8B426EFB5
:101446000AF028EF0AF055EF0AF0010E01012727EE
:10145600000E282329232A232AA134EF0AF036EF87
:101466000AF055EF0AF027C143F028C144F029C11C
:1014760045F02AC146F046344632453244324332BC
:1014860043C027F144C028F145C029F146C02AF1DE
:101496000001FE29D8B452EF0AF054EF0AF055EFD6
:1014A6000AF0FE2B0001FE29D8B45CEF0AF05EEFCD
:1014B6000AF066EF0AF0FE51D8A464EF0AF066EF70
:1014C6000AF07AEF0AF0000E0101276F000E286F6E
:1014D600000E296F000E2A6F0001FE51D8A476EF88
:1014E6000AF078EF0AF07AEF0AF0000EFC6FFEA120
:1014F6007FEF0AF081EF0AF085EF0AF00101298FEC
:1015060087EF0AF00101299F0001D890FE31010101
:101516002A6F0001FCAF92EF0AF094EF0AF096EF03
:101526000AF001012A8F27C127F128C128F129C114
:1015360029F12AC12AF11200000E0101336F000EB3
:10154600346F000E356F000E366FCBEF0CF0AC9893
:10155600AC94B8962FC1D9FF30C1DAFFDECF1CF0AC
:10156600DECF1DF0DECF1EF0DECF1FF0000E85ECC5
:1015760012F01CC02EF01DC02FF01EC030F01FC090
:1015860031F0000E2A6E240E2B6EF40E2C6E4A0ECF
:101596002D6EB8EC10F02AC037F12BC038F12CC0F4
:1015A60039F12DC03AF1000E2E6E000E2F6E800E10
:1015B600306E420E316E37C12AF038C12BF039C178
:1015C6002CF03AC12DF0B8EC10F02AC027F12BC050
:1015D60028F12CC029F12DC02AF1000E01012B6F34
:1015E600000E2C6F800E2D6FBF0E2E6F03EC08F0D1
:1015F60027C133F128C134F129C135F12AC136F1A9
:10160600F6EF0CF0AC98AC84B8962FC1D9FF30C178
:10161600DAFFDECF1CF0DECF1DF0DECF1EF0DECF10
:101626001FF0000E85EC12F01CC02EF01DC02FF02E
:101636001EC030F01FC031F0000E2A6E240E2B6E35
:10164600F40E2C6E4A0E2D6EB8EC10F02AC037F14F
:101656002BC038F12CC039F12DC03AF1000E2E6E98
:10166600000E2F6E800E306E410E316E37C12AF09D
:1016760038C12BF039C12CF03AC12DF0B8EC10F07E
:101686002AC027F12BC028F12CC029F12DC02AF140
:10169600000E01012B6F000E2C6F800E2D6FBF0EFA
:1016A6002E6F03EC08F027C133F128C134F129C1AC
:1016B60035F12AC136F1F6EF0CF0AC98AC94B88649
:1016C6002FC1D9FF30C1DAFFDECF1CF0DECF1DF00F
:1016D600DECF1EF0DECF1FF0000E85EC12F01CC030
:1016E6002EF01DC02FF01EC030F01FC031F0000ECE
:1016F6002A6E240E2B6EF40E2C6E4A0E2D6EB8EC4E
:1017060010F02AC037F12BC038F12CC039F12DC0AA
:101716003AF1000E2E6E000E2F6E800E306E410EC8
:10172600316E37C12AF038C12BF039C12CF03AC1DD
:101736002DF0B8EC10F02AC027F12BC028F12CC0F0
:1017460029F12DC02AF1000E01012B6F000E2C6F1E
:10175600800E2D6FBF0E2E6F03EC08F027C133F1FC
:1017660028C134F129C135F12AC136F1F6EF0CF062
:10177600AC98AC84B8862FC1D9FF30C1DAFFDECF72
:101786001CF0DECF1DF0DECF1EF0DECF1FF0000E08
:1017960085EC12F01CC02EF01DC02FF01EC030F0DC
:1017A6001FC031F0000E2A6E240E2B6EF40E2C6E26
:1017B6004A0E2D6EB8EC10F02AC037F12BC038F166
:1017C6002CC039F12DC03AF1000E2E6E000E2F6E90
:1017D600800E306E400E316E37C12AF038C12BF0C4
:1017E60039C12CF03AC12DF0B8EC10F02AC027F11F
:1017F6002BC028F12CC029F12DC02AF1000E0101C1
:101806002B6F000E2C6F800E2D6FBF0E2E6F03EC0C
:1018160008F027C133F128C134F129C135F12AC1B5
:1018260036F1F6EF0CF0AC88AC94B8962FC1D9FF20
:1018360030C1DAFFDECF1CF0DECF1DF0DECF1EF0AA
:10184600DECF1FF0000E85EC12F01CC02EF01DC07E
:101856002FF01EC030F01FC031F0000E2A6E240E8D
:101866002B6EF40E2C6E4A0E2D6EB8EC10F02AC0BC
:1018760037F12BC038F12CC039F12DC03AF1000EEA
:101886002E6E000E2F6E800E306E400E316E37C1FA
:101896002AF038C12BF039C12CF03AC12DF0B8EC42
:1018A60010F02AC027F12BC028F12CC029F12DC039
:1018B6002AF1000E01012B6F000E2C6F800E2D6F8A
:1018C600BF0E2E6F03EC08F027C133F128C134F1A7
:1018D60029C135F12AC136F1F6EF0CF0AC88B8868D
:1018E6002FC1D9FF30C1DAFFDECF1CF0DECF1DF0ED
:1018F600DECF1EF0DECF1FF0000E85EC12F01CC00E
:101906002EF01DC02FF01EC030F01FC031F0000EAB
:101916002A6E240E2B6EF40E2C6E4A0E2D6EB8EC2B
:1019260010F02AC037F12BC038F12CC039F12DC088
:101936003AF1000E2E6E000E2F6E800E306E400EA7
:10194600316E37C12AF038C12BF039C12CF03AC1BB
:101956002DF0B8EC10F02AC027F12BC028F12CC0CE
:1019660029F12DC02AF1000E01012B6F000E2C6FFC
:10197600800E2D6FBF0E2E6F03EC08F027C133F1DA
:1019860028C134F129C135F12AC136F1F6EF0CF040
:1019960020EE04F02F51D9263051DA22DF50316F74
:1019A600326B3251000AD8B4DBEF0CF0F6EF0CF0D4
:1019B6003151000AD8B4AAEF0AF0010AD8B405EFEB
:1019C6000BF0030AD8B460EF0BF0010AD8B4BBEFF2
:1019D6000BF0070AD8B416EF0CF0010AD8B471EF71
:1019E6000CF0F6EF0CF033C11CF034C11DF035C11C
:1019F6001EF036C11FF097EC14F01C50AF6E33C1C9
:101A06001CF034C11DF035C11EF036C11FF097EC35
:101A160014F01DC01CF01EC01DF01FC01EF01F6A72
:101A26001C50B06E1200F2A81BEF0DF01DEF0DF06A
:101A360026EF0DF0F2A222EF0DF024EF0DF026EFC7
:101A46000DF05FEC1AF0F0A62BEF0DF02DEF0DF078
:101A560036EF0DF0F0A032EF0DF034EF0DF036EF6B
:101A66000DF05DEC1AF0F0A83BEF0DF03DEF0DF038
:101A760046EF0DF0F0A242EF0DF044EF0DF046EF09
:101A86000DF05BEC1AF0F2A64BEF0DF04DEF0DF0FA
:101A960068EF0DF0F2A052EF0DF054EF0DF068EF85
:101AA6000DF081A859EF0DF05BEF0DF068EF0DF02A
:101AB6006204D8A461EF0DF063EF0DF068EF0DF04E
:101AC600000E626E010EFBEC19F0F2A66DEF0DF042
:101AD6006FEF0DF08AEF0DF0F2A074EF0DF076EFD8
:101AE6000DF08AEF0DF081B87BEF0DF07DEF0DF074
:101AF6008AEF0DF06250D8A483EF0DF085EF0DF05C
:101B06008AEF0DF0010E626E000EFBEC19F0F2A6E4
:101B16008FEF0DF091EF0DF0ACEF0DF0F2A096EF18
:101B26000DF098EF0DF0ACEF0DF081AA9DEF0DF0E2
:101B36009FEF0DF0ACEF0DF06104D8A4A5EF0DF00A
:101B4600A7EF0DF0ACEF0DF0000E616E010EEEEC9E
:101B560019F0F2A6B1EF0DF0B3EF0DF0CEEF0DF0E8
:101B6600F2A0B8EF0DF0BAEF0DF0CEEF0DF081BA9E
:101B7600BFEF0DF0C1EF0DF0CEEF0DF06150D8A420
:101B8600C7EF0DF0C9EF0DF0CEEF0DF0010E616E4F
:101B9600000EEEEC19F0F2A6D3EF0DF0D5EF0DF036
:101BA600F0EF0DF0F2A0DAEF0DF0DCEF0DF0F0EF54
:101BB6000DF081ACE1EF0DF0E3EF0DF0F0EF0DF07D
:101BC6006004D8A4E9EF0DF0EBEF0DF0F0EF0DF0A7
:101BD600000E606E010EE1EC19F0F2A6F5EF0DF0C5
:101BE600F7EF0DF012EF0EF0F2A0FCEF0DF0FEEFA6
:101BF6000DF012EF0EF081BC03EF0EF005EF0EF0C4
:101C060012EF0EF06050D8A40BEF0EF00DEF0EF0B1
:101C160012EF0EF0010E606E000EE1EC19F0F2A666
:101C260017EF0EF019EF0EF034EF0EF0F2A01EEFE4
:101C36000EF020EF0EF034EF0EF081AE25EF0EF031
:101C460027EF0EF034EF0EF05F04D8A42DEF0EF060
:101C56002FEF0EF034EF0EF0000E5F6E010ED4EC97
:101C660019F0F2A639EF0EF03BEF0EF056EF0EF03C
:101C7600F2A040EF0EF042EF0EF056EF0EF081BEEE
:101C860047EF0EF049EF0EF056EF0EF05F50D8A476
:101C96004FEF0EF051EF0EF056EF0EF0010E5F6EA5
:101CA600000ED4EC19F09DAC5BEF0EF05DEF0EF07C
:101CB60066EF0EF09EAC62EF0EF064EF0EF066EF8C
:101CC6000EF065EC1AF0F2AA6BEF0EF06DEF0EF067
:101CD60076EF0EF0F2A472EF0EF074EF0EF076EFE0
:101CE6000EF087EC18F09DA07BEF0EF07DEF0EF066
:101CF60086EF0EF09EA082EF0EF084EF0EF086EFD8
:101D06000EF044EC1AF09DA28BEF0EF08DEF0EF064
:101D160096EF0EF09EA292EF0EF094EF0EF096EF75
:101D26000EF050EC1AF0A0A29BEF0EF09DEF0EF015
:101D3600A6EF0EF0A1A2A2EF0EF0A4EF0EF0A6EF12
:101D46000EF0A2EC18F09DA4ABEF0EF0ADEF0EF086
:101D5600B6EF0EF09EA4B2EF0EF0B4EF0EF0B6EFB3
:101D66000EF00DEC19F0A0A0BBEF0EF0BDEF0EF0DB
:101D7600C6EF0EF0A1A0C2EF0EF0C4EF0EF0C6EF54
:101D86000EF063EC1AF09DA8CBEF0EF0CDEF0EF03F
:101D9600D6EF0EF09EA8D2EF0EF0D4EF0EF0D6EFEF
:101DA6000EF061EC1AF09DAADBEF0EF0DDEF0EF0FF
:101DB600E6EF0EF09EAAE2EF0EF0E4EF0EF0E6EF8D
:101DC6000EF073EC1AF01200F2A8ECEF0EF0EEEF44
:101DD6000EF0F7EF0EF0F2A2F3EF0EF0F5EF0EF0C5
:101DE600F7EF0EF06BEC1AF0F0A6FCEF0EF0FEEF3C
:101DF6000EF007EF0FF0F0A003EF0FF005EF0FF076
:101E060007EF0FF069EC1AF0F0A80CEF0FF00EEFE9
:101E16000FF017EF0FF0F0A213EF0FF015EF0FF022
:101E260017EF0FF067EC1AF0F2A61CEF0FF01EEF9B
:101E36000FF039EF0FF0F2A023EF0FF025EF0FF0C0
:101E460039EF0FF081A82AEF0FF02CEF0FF039EFE2
:101E56000FF06204D8A432EF0FF034EF0FF039EF31
:101E66000FF0000E626E010E2FEC1AF0F2A63EEF96
:101E76000FF040EF0FF05BEF0FF0F2A045EF0FF021
:101E860047EF0FF05BEF0FF081B84CEF0FF04EEF1E
:101E96000FF05BEF0FF06250D8A454EF0FF056EF3F
:101EA6000FF05BEF0FF0010E626E000E2FEC1AF0D2
:101EB600F2A660EF0FF062EF0FF07DEF0FF0F2A0E9
:101EC60067EF0FF069EF0FF07DEF0FF081AA6EEF6D
:101ED6000FF070EF0FF07DEF0FF06104D8A476EFEE
:101EE6000FF078EF0FF07DEF0FF0000E616E010E30
:101EF60022EC1AF0F2A682EF0FF084EF0FF09FEFBC
:101F06000FF0F2A089EF0FF08BEF0FF09FEF0FF0BD
:101F160081BA90EF0FF092EF0FF09FEF0FF0615044
:101F2600D8A498EF0FF09AEF0FF09FEF0FF0010E85
:101F3600616E000E22EC1AF0F2A6A4EF0FF0A6EFE7
:101F46000FF0C1EF0FF0F2A0ABEF0FF0ADEF0FF017
:101F5600C1EF0FF081ACB2EF0FF0B4EF0FF0C1EFAD
:101F66000FF06004D8A4BAEF0FF0BCEF0FF0C1EF8A
:101F76000FF0000E606E010E15EC1AF0F2A6C6EF19
:101F86000FF0C8EF0FF0E3EF0FF0F2A0CDEF0FF078
:101F9600CFEF0FF0E3EF0FF081BCD4EF0FF0D6EFE9
:101FA6000FF0E3EF0FF06050D8A4DCEF0FF0DEEF98
:101FB6000FF0E3EF0FF0010E606E000E15EC1AF055
:101FC600F2A6E8EF0FF0EAEF0FF005EF10F0F2A03F
:101FD600EFEF0FF0F1EF0FF005EF10F081AEF6EF37
:101FE6000FF0F8EF0FF005EF10F05F04D8A4FEEF46
:101FF6000FF000EF10F005EF10F0000E5F6E010E0F
:1020060008EC1AF0F2A60AEF10F00CEF10F027EF2A
:1020160010F0F2A011EF10F013EF10F027EF10F010
:1020260081BE18EF10F01AEF10F027EF10F05F5096
:10203600D8A420EF10F022EF10F027EF10F0010ED9
:102046005F6E000E08EC1AF09DAC2CEF10F02EEF30
:1020560010F037EF10F09EAC33EF10F035EF10F0C4
:1020660037EF10F071EC1AF0F2AA3CEF10F03EEFE9
:1020760010F047EF10F0F2A443EF10F045EF10F028
:1020860047EF10F0BDEC18F09DA04CEF10F04EEFAE
:1020960010F057EF10F09EA053EF10F055EF10F030
:1020A60057EF10F04AEC1AF09DA25CEF10F05EEFCD
:1020B60010F067EF10F09EA263EF10F065EF10F0DE
:1020C60067EF10F054EC1AF0A0A26CEF10F06EEF70
:1020D60010F077EF10F0A1A273EF10F075EF10F08B
:1020E60077EF10F0D8EC18F09DA47CEF10F07EEF9F
:1020F60010F087EF10F09EA483EF10F085EF10F03C
:1021060087EF10F024EC19F0A0A08CEF10F08EEF02
:1021160010F097EF10F0A1A093EF10F095EF10F0EC
:1021260097EF10F06FEC1AF09DA89CEF10F09EEF61
:1021360010F0A7EF10F09EA8A3EF10F0A5EF10F097
:10214600A7EF10F06DEC1AF09DAAACEF10F0AEEF11
:1021560010F0B7EF10F09EAAB3EF10F0B5EF10F045
:10216600B7EF10F074EC1AF012002D50800B3A6E97
:102176002D502D24416E2CAEC3EF10F0C5EF10F09C
:10218600C6EF10F041804150D8B4CCEF10F0CEEF3E
:1021960010F0E3EF10F04128D8A4D4EF10F0D6EFFA
:1021A60010F0DEEF10F0000E2A6E000E2B6E000E01
:1021B6002C6E000E2D6E2C8E000E2D6EEBEF10F099
:1021C600000E2A6E000E2B6E000E2C6E000E2D6E6B
:1021D6003150800B3A1A31503124426E30AEF6EF50
:1021E60010F0F8EF10F0F9EF10F042804250D8B43A
:1021F600FFEF10F001EF11F016EF11F04228D8A40E
:1022060007EF11F009EF11F011EF11F0000E2E6E2D
:10221600000E2F6E000E306E000E316E308E000EE8
:10222600316E1EEF11F0000E2E6E000E2F6E000E98
:10223600306E000E316E2E502F1030103110D8A493
:1022460027EF11F029EF11F041EF11F0000E2A6E81
:10225600000E2B6E000E2C6E000E2D6E800E2C12B4
:102266007F0E2D123A502D122AC02AF02BC02BF0C9
:102276002CC02CF02DC02DF084EF12F04150D8A4C4
:1022860047EF11F049EF11F053EF11F0000E2A6EEF
:10229600000E2B6E000E2C6E000E2D6E84EF12F0CB
:1022A600425041C032F0336A325E000E335A7F0E1E
:1022B60032243B6E000E33203C6E2AC036F02BC013
:1022C60037F02CC038F02DC039F0000E2A6E000E03
:1022D6002B6E000E2C6E000E2D6E000E3D6E000E47
:1022E6003E6E000E3F6E000E406E000E426EB4EF64
:1022F60011F04250D8B482EF11F084EF11F09BEF49
:1023060011F0D8903636373638363936D8902A36E0
:102316002B362C362D3640AE93EF11F095EF11F09B
:1023260096EF11F02A80D8903D363E363F3640363D
:102336002E50365C2F503758305038583150395857
:10234600D8A0A8EF11F0AAEF11F0B3EF11F0408C6E
:102356002E50365E2F50375A3050385A3150395A2F
:10236600422A190E4264BAEF11F0BCEF11F07CEF6D
:1023760011F03650371038103910D8B4C5EF11F0B7
:10238600C7EF11F0DFEF11F03D80DFEF11F0D890CD
:102396002A362B362C362D3640AED4EF11F0D6EF3A
:1023A60011F0D7EF11F02A80D8903D363E363F36F1
:1023B60040363B06D8A03C062CAEE4EF11F0E6EF23
:1023C60011F0CAEF11F0000E426E40AEEDEF11F0C3
:1023D600EFEF11F013EF12F0FF0E3D14326EFF0E09
:1023E6003E14336EFF0E3F14346E7F0E4014356E6E
:1023F6003250331034103510D8B404EF12F006EF13
:1024060012F00AEF12F0010E426E13EF12F02AA03C
:102416000FEF12F011EF12F013EF12F006EF12F0B9
:102426004250D8B419EF12F01BEF12F03FEF12F042
:10243600010E2A26000E2B222C222D222DA026EF5D
:1024460012F028EF12F03FEF12F02AC032F02BC044
:1024560033F02CC034F02DC035F0353435323432FB
:102466003332323232C02AF033C02BF034C02CF073
:1024760035C02DF03B4A3C2A3CBE4AEF12F03C5098
:1024860008E13B28D8A04AEF12F04CEF12F057EFC4
:1024960012F0000E3C6E3B68000E2A6E000E2B6E8C
:1024A600000E2C6E000E2D6E3CBE64EF12F03C50FA
:1024B60006E13B04D8B062EF12F064EF12F072EF5F
:1024C60012F0000E3C6E000E3B6E000E2A6E000EE1
:1024D6002B6E000E2C6E000E2D6E000E3A6E3BC05B
:1024E60041F041A079EF12F07BEF12F07EEF12F08F
:1024F6002C8E7FEF12F02C9ED89041302D6E35EF4A
:1025060011F01200246E2450D8B48CEF12F08EEF26
:1025160012F0B0EF12F01FBE95EF12F093EF12F02B
:10252600B0EF12F01CC020F01DC021F01EC022F03A
:102536001FC023F0201E211E221E231E202A000E4D
:1025460021222222232220C026F021C027F022C0E9
:1025560028F023C029F0B8EF12F01CC026F01DC0E9
:1025660027F01EC028F01FC029F01C501D101E1099
:102576001F10D8A4C1EF12F0C3EF12F0CDEF12F086
:10258600000E1C6E000E1D6E000E1E6E000E1F6EDF
:102596005EEF13F0960E256ED7EF12F0252AD8902F
:1025A6002932283227322632000E2614206E000EDB
:1025B6002714216E000E2814226EFE0E2914236E97
:1025C6002050211022102310D8A4ECEF12F0EEEFC9
:1025D60012F0D1EF12F0FCEF12F0252A010E26269A
:1025E600000E272228222922D89029322832273283
:1025F6002632000E2614206E000E2714216E000EC1
:102606002814226EFF0E2914236E2050211022104A
:102616002310D8A411EF13F013EF13F0F0EF12F01C
:102626001BEF13F02506D89026362736283629368E
:1026360028BE20EF13F022EF13F02AEF13F0020E5C
:10264600256028EF13F02AEF13F015EF13F025B0ED
:102656002FEF13F031EF13F032EF13F0289ED890DE
:10266600253225C020F0216A226A236A20C023F081
:10267600226A216A206A20502612215027122250EF
:102686002812235029122450D8B44CEF13F04EEFE1
:1026960013F056EF13F01FBE55EF13F053EF13F080
:1026A60056EF13F0298E26C01CF027C01DF028C057
:1026B6001EF029C01FF01200010E246E1C501D10C2
:1026C600D8B468EF13F06AEF13F07BEF13F01CC079
:1026D600D9FF1DC0DAFFDF30E832E832070B1E6E85
:1026E600070E1E6479EF13F07BEF13F0DEEF13F0A5
:1026F600000E246EFFEF13F01CC0D9FF1DC0DAFFD9
:10270600DF30E832E832070B1E6E010E1F6E1E2AFE
:102716008FEF13F0D8901F361E2E8DEF13F01F503B
:10272600FF0A206E1CC0D9FF1DC0DAFFDF50070B61
:10273600216E2150020DCC0EF324D96E000EF4202A
:10274600DA6EDECF22F0DDCF23F022C0D9FF23C020
:10275600DAFF2050DF16FFEF13F01CC0D9FF1DC0B3
:10276600DAFFDF30E832E832070B1E6E010E1F6E0D
:102776001E2AC0EF13F0D8901F361E2EBEEF13F0A0
:102786001CC0D9FF1DC0DAFFDF50070B206E20509A
:10279600020DCC0EF324D96E000EF420DA6EDECFD5
:1027A60021F0DDCF22F021C0D9FF22C0DAFF1F5071
:1027B600DF12FFEF13F01CC0D9FF1DC0DAFFDFBC2C
:1027C600E7EF13F0EAEF13F0010EEBEF13F0000E54
:1027D6001E6E1F6A1F50000AD8B4F4EF13F07BEF89
:1027E60013F01E50000AD8B47FEF13F0010AD8B4D4
:1027F600B0EF13F07BEF13F024501200010E256E9C
:102806001C501D10D8B40AEF14F00CEF14F01DEF95
:1028160014F01CC0D9FF1DC0DAFFDF30E832E83201
:10282600070B1F6E070E1F641BEF14F01DEF14F04D
:1028360080EF14F0000E256E95EF14F01CC0D9FF42
:102846001DC0DAFFDF30E832E832070B1F6E010EDB
:10285600206E1F2A31EF14F0D89020361F2E2FEF4E
:1028660014F02050FF0A216E1CC0D9FF1DC0DAFFEC
:10287600DF50070B226E2250020DC20EF324D96ED2
:10288600000EF420DA6EDECF23F0DDCF24F023C075
:10289600D9FF24C0DAFF2150DF1695EF14F01CC0D3
:1028A600D9FF1DC0DAFFDF30E832E832070B1F6EB2
:1028B600010E206E1F2A62EF14F0D89020361F2ECC
:1028C60060EF14F01CC0D9FF1DC0DAFFDF50070B04
:1028D600216E2150020DC20EF324D96E000EF42093
:1028E600DA6EDECF22F0DDCF23F022C0D9FF23C07F
:1028F600DAFF2050DF1295EF14F01E501F6E206A8B
:102906002050000AD8B48AEF14F01DEF14F01F50BF
:10291600000AD8B421EF14F0010AD8B452EF14F02B
:102926001DEF14F0255012001E341F34256E25505D
:10293600D8A4A0EF14F0A2EF14F0ACEF14F0000E40
:102946001C6E000E1D6E000E1E6E000E1F6E19EF21
:1029560015F01CC020F01DC021F01EC022F01FC0C3
:1029660023F0200EBCEF14F0D8902332223221320D
:102976002032E82EB7EF14F02050246E1E8EFF0E84
:102986001C16FF0E1D16FF0E1E16000E1F16960EA7
:10299600255E25BED3EF14F0D1EF14F0E9EF14F065
:1029A6002550800A970FD8B0DBEF14F0DDEF14F056
:1029B600DFEF14F0A2EF14F0D8901F321E321D3252
:1029C6001C32253EDFEF14F001EF15F01F0E2564D3
:1029D600EFEF14F0F1EF14F0F9EF14F0A2EF14F0AA
:1029E600D8901C361D361E361F3625062550D8A40F
:1029F600FFEF14F001EF15F0F3EF14F02450D8B404
:102A060007EF15F009EF15F011EF15F01F1E1E1E4A
:102A16001D1E1C6C000E1D221E221F221CC01CF037
:102A26001DC01DF01EC01EF01FC01FF0120020EEBC
:102A360008F01C50D9261D50DA22DFA025EF15F02C
:102A460027EF15F081EF15F0AB8820EE08F01C504B
:102A5600D9261D50DA22DFA402D0AB8C01D0AB9C64
:102A660020EE08F01C50D9261D50DA22DFA202D033
:102A76009D8A01D09D9A20EE0DF01C50D9261D503E
:102A8600DA22DECF9EF0DDCF9FF020EE0FF01C5055
:102A9600D9261D50DA22DECF9CF0DDCF9DF020EE48
:102AA60011F01C50D9261D50DA22DECF9AF0DDCF68
:102AB6009BF0D08E20EE07F01C50D9261D50DA224E
:102AC600DE04D8A469EF15F06BEF15F06FEF15F083
:102AD600F28E9F8A81EF15F020EE07F01C50D92662
:102AE6001D50DA22DF50D8A47BEF15F07DEF15F0EC
:102AF60081EF15F0F28C9F9A81EF15F0120020EE0F
:102B060006F01C50D9261D50DA22DFA08DEF15F0F5
:102B16008FEF15F0D5EF15F0AC8A20EE06F01C50BD
:102B2600D9261D50DA22DFA402D0AC8C01D0AC9C91
:102B360020EE06F01C50D9261D50DA22DFA202D064
:102B46009D8801D09D9820EE0BF01C50D9261D5073
:102B5600DA22DECFA0F0DDCFA1F0D08E20EE05F098
:102B66001C50D9261D50DA22DE04D8A4BDEF15F07C
:102B7600BFEF15F0C3EF15F0F28E9F88D5EF15F075
:102B860020EE05F01C50D9261D50DA22DF50D8A4BD
:102B9600CFEF15F0D1EF15F0D5EF15F0F28C9F9829
:102BA600D5EF15F01200CA0EF66E320EF76E000E55
:102BB600F86E01EE00F010EE27F00900F5CFEEFFFB
:102BC600E550E150FAE1640EF66E300EF76E000E37
:102BD600F86E00EEC2F010EE3AF00900F5CFEEFF07
:102BE600E550E150FAE1B00EF66E340EF76E000EC7
:102BF600F86E00EE5FF010EE05F00900F5CFEEFF7F
:102C0600E550E150FAE101EE3EF00B0EEE6AE80601
:102C1600FDE100EE80F0420EEE6AE806FDE100EE10
:102C260047F0180EEE6AE806FDE164906492000132
:102C360098EF17F0010E2C6E29502A10D8A426EF13
:102C460016F028EF16F02CEF16F0000E2C6E59EF4A
:102C560016F058C02DF029C0D9FF2AC0DAFFDF5080
:102C66000F0B2B6E2D502B18F80B2B182D6E29C021
:102C7600D9FF2AC0DAFFDF38070B2B6E2B462B460F
:102C86002B462D502B18C70B2B182D6E2D9C29C0AB
:102C9600D9FF2AC0DAFFDFAE02D02D8E01D02D9EDD
:102CA6002D0E266E000E276EEFEC17F02C5012003C
:102CB60026502710D8A462EF16F064EF16F066EFE0
:102CC60016F095EF16F057C029F026C0D9FF27C099
:102CD600DAFFDF500F0B286E29502818F80B28183A
:102CE600296E26C0D9FF27C0DAFFDF38070B286E0A
:102CF60028462846284629502818C70B2818296E22
:102D0600299C26C0D9FF27C0DAFFDFAE02D0298E64
:102D160001D0299E290E1C6E000E1D6E010E1E6E20
:102D260001EC14F0120026502710D8A49DEF16F0DF
:102D36009FEF16F0A1EF16F0D0EF16F056C029F06F
:102D460026C0D9FF27C0DAFFDF500F0B286E2950A7
:102D56002818F80B2818296E26C0D9FF27C0DAFFD5
:102D6600DF38070B286E284628462846295028189B
:102D7600C70B2818296E299C26C0D9FF27C0DAFF61
:102D8600DFAE02D0298E01D0299E290E1C6E000EC0
:102D96001D6E000E1E6E01EC14F0120064A2D6EF3A
:102DA60016F008EF17F0542A0001C02B5404D8A4DB
:102DB600DFEF16F0E1EF16F0F6EF16F0F00E0D6EFF
:102DC600000E0E6E000E106E000E0F6E89EC19F0DE
:102DD600000E00018E6F000E8F6F000E906F000EBA
:102DE600916F07EF17F0020E5418D8A4FDEF16F0F6
:102DF600FFEF16F007EF17F0000E546E590E0D6E2A
:102E0600000E0E6E4FEC18F01200542A0001C02B73
:102E16005404D8A411EF17F013EF17F028EF17F0AA
:102E2600F00E016E000E026E000E046E000E036EB2
:102E3600A9EC19F0000E00018E6F000E8F6F000EC8
:102E4600906F000E916F39EF17F0020E5418D8A448
:102E56002FEF17F031EF17F039EF17F0000E546E21
:102E6600590E016E000E026E6BEC18F01200000E89
:102E7600136E000E146E0D500E10D8B445EF17F0F9
:102E860047EF17F050EF17F00F501010D8A44EEF81
:102E960017F050EF17F052EF17F068EF17F0CECF9C
:102EA60013F0CFCF14F0135014C011F0126A11C0F2
:102EB60012F0116A1126000E12220FC0D9FF10C09F
:102EC600DAFF11C0DEFF12C0DDFF1200000E076E32
:102ED600000E086E01500210D8B474EF17F076EFAA
:102EE60017F07FEF17F003500410D8A47DEF17F00A
:102EF6007FEF17F081EF17F097EF17F0CECF07F0BF
:102F0600CFCF08F0075008C005F0066A05C006F0E6
:102F1600056A0526000E062203C0D9FF04C0DAFFA3
:102F260005C0DEFF06C0DDFF1200B9EC19F05D0E2C
:102F36001C6E000E1D6E14EC18F0610E5D18D8A400
:102F4600A7EF17F0A9EF17F0B1EF17F0630E266E93
:102F5600000E276E5BEC16F09AEF17F0620E5D1806
:102F6600D8A4B8EF17F0BAEF17F0C2EF17F0630E58
:102F7600266E000E276E96EC16F09AEF17F09AEF73
:102F860017F02DEF00F001013B513C11D8A4CEEF14
:102F960017F0D0EF17F0D4EF17F0000E3D6FEDEFFE
:102FA60017F0AB9E948E948C3BC12FF13CC130F14F
:102FB6009FEC0AF03BC11CF03CC11DF082EC15F001
:102FC6003BC11CF03CC11DF01AEC15F0AB8E010E96
:102FD60001013D6F3D51120026502710D8A4F6EF8F
:102FE60017F0F8EF17F0FCEF17F0000E286E12EF4F
:102FF60018F026C01CF027C01DF05FEC13F0286EF9
:1030060026C01CF027C01DF026C0D9FF27C0DAFF56
:10301600000EDFBE010E1E6E01EC14F028162850BD
:1030260012001C501D10D8A41BEF18F01DEF18F04D
:1030360021EF18F0000E1E6E30EF18F09EAA26EF54
:1030460018F028EF18F01DEF18F01CC0D9FF1DC0AE
:10305600DAFFAECFDFFF010E1E6E1E501200890F83
:103066008A0F8B0F8C0F8D0F920F930F940F950F66
:10307600960FE6310104DC0B070052A22D01050074
:10308600020A121A222A0000010000728E33000082
:103096000000000001000024A2C00FF0A3C010F041
:1030A6000D500E10D8A45AEF18F05CEF18F05EEF32
:1030B60018F06AEF18F0BECF0FF0BFCF10F00DC0BA
:1030C600D9FF0EC0DAFF0FC0DEFF10C0DDFF120011
:1030D600A2C003F0A3C004F001500210D8A476EFFA
:1030E60018F078EF18F07AEF18F086EF18F0BECFE8
:1030F60003F0BFCF04F001C0D9FF02C0DAFF03C05E
:10310600DEFF04C0DDFF1200F2945050D76E4FC0B0
:10311600D6FF51505210D8B493EF18F095EF18F02F
:10312600A1EF18F002D8A1EF18F00500FA6E515081
:10313600FD6E5250FE6EFF6AFA5012001200A19206
:103146004A50B36E49C0B2FF4B504C10D8B4AEEFE4
:1031560018F0B0EF18F0BCEF18F002D8BCEF18F07A
:103166000500FA6E4B50FD6E4C50FE6EFF6AFA502B
:1031760012001200F2945050D76E4FC0D6FF515035
:103186005210D8B4C9EF18F0CBEF18F0D7EF18F0FB
:1031960002D8D7EF18F00500FA6E5150FD6E525066
:1031A600FE6EFF6AFA5012001200A1924A50B36EE8
:1031B60049C0B2FF4B504C10D8B4E4EF18F0E6EF1C
:1031C60018F0F2EF18F002D8F2EF18F00500FA6ED8
:1031D6004B50FD6E4C50FE6EFF6AFA501200120004
:1031E60064A2F8EF18F050EF19F0F60E0D6E000E0F
:1031F6000E6E5E0E0F6E000E106E3AEC17F0F60EA7
:103206000D6E000E0E6E000E106E000E0F6E79EC37
:1032160019F012009E9447504810D8B415EF19F0D3
:1032260017EF19F023EF19F002D823EF19F0050074
:10323600FA6E4750FD6E4850FE6EFF6AFA50120055
:1032460012009E9447504810D8B42CEF19F02EEF78
:1032560019F03AEF19F002D83AEF19F00500FA6EB4
:103266004750FD6E4850FE6EFF6AFA50120012007B
:103276000600FACF09F0FBCF0AF0D9CF0BF0DACF70
:103286000CF0E7EC0EF00CC0DAFF0BC0D9FF0AC059
:10329600FBFF09C0FAFF64921100F60E016E000EE4
:1032A600026E5E0E036E000E046E69EC17F0F60EEB
:1032B600016E000E026E000E046E000E036E99EC97
:1032C60019F01200800F810F820F830F840F323A9C
:1032D600030B131B232B333B802500000001030047
:0B32E6000300000000000000000000DA
:1032F2000D500E10D8A480EF19F082EF19F084EF70
:1033020019F088EF19F01050CF6E0FC0CEFF1200E7
:103312000D500E10D8A490EF19F092EF19F094EF1F
:1033220019F098EF19F01050B36E0FC0B2FF1200EF
:1033320001500210D8A4A0EF19F0A2EF19F0A4EFE7
:1033420019F0A8EF19F00450CF6E03C0CEFF12009F
:1033520001500210D8A4B0EF19F0B2EF19F0B4EF97
:1033620019F0B8EF19F00450B36E03C0B2FF1200A7
:10337200630E296E000E2A6E1DEC16F0140E01016A
:103382003B6F010E3C6FC6EC17F0120064A2CCEF4B
:1033920019F03CEF1AF0010E00018E27000E8F2368
:1033A2009023912312000D6EF2900D50D8A4DCEF01
:1033B20019F0DEEF19F0E0EF19F0E0EF19F012006A
:1033C2000D6EF2900D50D8A4E9EF19F0EBEF19F061
:1033D200EDEF19F0EDEF19F012000D6EF2900D50B5
:1033E200D8A4F6EF19F0F8EF19F0FAEF19F0FAEFA6
:1033F20019F012000D6EF2900D50D8A403EF1AF0DE
:1034020005EF1AF007EF1AF007EF1AF01200016E3B
:10341200F2900150D8A410EF1AF012EF1AF014EF44
:103422001AF014EF1AF01200016EF2900150D8A4B3
:103432001DEF1AF01FEF1AF021EF1AF021EF1AF028
:103442001200016EF2900150D8A42AEF1AF02CEF6C
:103452001AF02EEF1AF02EEF1AF01200016EF2900F
:103462000150D8A437EF1AF039EF1AF03BEF1AF0F7
:103472003BEF1AF01200010E00018E27000E8F237F
:103482009023912312009E904E50CF6E4DC0CEFFDE
:1034920012009E904E50CF6E4DC0CEFF12009E92F3
:1034A20053C0CCFF12009E9253C0CCFF1200010108
:0334B200010142D3
:1034B600F0921200F0901200F29212009D98120003
:1034C600A19012009E9C1200F0921200F090120041
:1034D600F29212009D981200A19012009E9C12007A
:0434E60012001200BE
:020000040020DA
:08000000FFFFFFFFFFFFFFFF00
:020000040030CA
:0E000000FF02091EFF8181FF0FC00FE00F40BD
:00000001FF
