:0400000035EF00F0E8
:060008006E82F5ED0FF021
:100018006E80D8CF4AF0E8CF4BF0E0CF4CF0FACF63
:100028004DF0FBCF4EF0D9CF4FF0DACF50F0F3CFF1
:1000380051F0F4CF52F003EC08F052C0F4FF51C075
:10004800F3FF50C0DAFF4FC0D9FF4EC0FBFF4DC0D1
:10005800FAFF4CC0E0FF4BC0E8FF4AC0D8FF6E90E3
:060068001000CAEF0FF0CA
:0510000000256900005D
:10100600F2A808EF08F00AEF08F013EF08F0F2A2D2
:101016000FEF08F011EF08F013EF08F070EC10F086
:10102600F0A618EF08F01AEF08F023EF08F0F0A08A
:101036001FEF08F021EF08F023EF08F059EC10F04D
:10104600F0A828EF08F02AEF08F033EF08F0F0A236
:101056002FEF08F031EF08F033EF08F042EC10F014
:10106600F2A638EF08F03AEF08F055EF08F0F2A0D4
:101076003FEF08F041EF08F055EF08F081A846EF82
:1010860008F048EF08F055EF08F01804D8A44EEF22
:1010960008F050EF08F055EF08F0000E186E010E3C
:1010A60056EC0EF0F2A65AEF08F05CEF08F077EF78
:1010B60008F0F2A061EF08F063EF08F077EF08F0B0
:1010C60081B868EF08F06AEF08F077EF08F018507B
:1010D600D8A470EF08F072EF08F077EF08F0010E71
:1010E600186E000E56EC0EF0F2A67CEF08F07EEFBE
:1010F60008F099EF08F0F2A083EF08F085EF08F00A
:1011060099EF08F081AA8AEF08F08CEF08F099EFC2
:1011160008F01704D8A492EF08F094EF08F099EFBE
:1011260008F0000E176E010E17EC0EF0F2A69EEFF9
:1011360008F0A0EF08F0BBEF08F0F2A0A5EF08F06A
:10114600A7EF08F0BBEF08F081BAACEF08F0AEEFFE
:1011560008F0BBEF08F01750D8A4B4EF08F0B6EFCC
:1011660008F0BBEF08F0010E176E000E17EC0EF03C
:10117600F2A6C0EF08F0C2EF08F0DDEF08F0F2A02B
:10118600C7EF08F0C9EF08F0DDEF08F081ACCEEF4D
:1011960008F0D0EF08F0DDEF08F01604D8A4D6EF7B
:1011A60008F0D8EF08F0DDEF08F0000E166E010E1D
:1011B600D8EC0DF0F2A6E2EF08F0E4EF08F0FFEF4E
:1011C60008F0F2A0E9EF08F0EBEF08F0FFEF08F007
:1011D60081BCF0EF08F0F2EF08F0FFEF08F01650D0
:1011E600D8A4F8EF08F0FAEF08F0FFEF08F0010EC8
:1011F600166E000ED8EC0DF0F2A604EF09F006EF1D
:1012060009F021EF09F0F2A00BEF09F00DEF09F05C
:1012160021EF09F081AE12EF09F014EF09F021EF8A
:1012260009F01504D8A41AEF09F01CEF09F021EF14
:1012360009F0000E156E010E99EC0DF0F2A626EFE0
:1012460009F028EF09F043EF09F0F2A02DEF09F0BD
:101256002FEF09F043EF09F081BE34EF09F036EFC6
:1012660009F043EF09F01550D8A43CEF09F03EEF22
:1012760009F043EF09F0010E156E000E99EC0DF022
:101286001200F2A849EF09F04BEF09F054EF09F00C
:10129600F2A250EF09F052EF09F054EF09F0FAEC20
:1012A60010F0F0A659EF09F05BEF09F064EF09F0D2
:1012B600F0A060EF09F062EF09F064EF09F0E3ECEB
:1012C60010F0F0A869EF09F06BEF09F074EF09F080
:1012D600F0A270EF09F072EF09F074EF09F0CCECB0
:1012E60010F0F2A679EF09F07BEF09F096EF09F01E
:1012F600F2A080EF09F082EF09F096EF09F081A8DD
:1013060087EF09F089EF09F096EF09F01804D8A4E1
:101316008FEF09F091EF09F096EF09F0000E186EC5
:10132600010E52EC0FF0F2A69BEF09F09DEF09F0CB
:10133600B8EF09F0F2A0A2EF09F0A4EF09F0B8EFB8
:1013460009F081B8A9EF09F0ABEF09F0B8EF09F0A1
:101356001850D8A4B1EF09F0B3EF09F0B8EF09F0CF
:10136600010E186E000E52EC0FF0F2A6BDEF09F05A
:10137600BFEF09F0DAEF09F0F2A0C4EF09F0C6EF0B
:1013860009F0DAEF09F081AACBEF09F0CDEF09F009
:10139600DAEF09F01704D8A4D3EF09F0D5EF09F076
:1013A600DAEF09F0000E176E010E13EC0FF0F2A63D
:1013B600DFEF09F0E1EF09F0FCEF09F0F2A0E6EF4C
:1013C60009F0E8EF09F0FCEF09F081BAEDEF09F05A
:1013D600EFEF09F0FCEF09F01750D8A4F5EF09F08C
:1013E600F7EF09F0FCEF09F0010E176E000E13EC93
:1013F6000FF0F2A601EF0AF003EF0AF01EEF0AF073
:10140600F2A008EF0AF00AEF0AF01EEF0AF081AC2C
:101416000FEF0AF011EF0AF01EEF0AF01604D8A437
:1014260017EF0AF019EF0AF01EEF0AF0000E166E1B
:10143600010ED4EC0EF0F2A623EF0AF025EF0AF027
:1014460040EF0AF0F2A02AEF0AF02CEF0AF040EF84
:101456000AF081BC31EF0AF033EF0AF040EF0AF0F0
:101466001650D8A439EF0AF03BEF0AF040EF0AF025
:10147600010E166E000ED4EC0EF0F2A645EF0AF041
:1014860047EF0AF062EF0AF0F2A04CEF0AF04EEFD7
:101496000AF062EF0AF081AE53EF0AF055EF0AF058
:1014A60062EF0AF01504D8A45BEF0AF05DEF0AF0CC
:1014B60062EF0AF0000E156E010E95EC0EF0F2A624
:1014C60067EF0AF069EF0AF084EF0AF0F2A06EEF18
:1014D6000AF070EF0AF084EF0AF081BE75EF0AF0A9
:1014E60077EF0AF084EF0AF01550D8A47DEF0AF0E2
:1014F6007FEF0AF084EF0AF0010E156E000E95ECF0
:101506000EF012000001BB51BC11D8A48DEF0AF0F9
:101516008FEF0AF091EF0AF03AEF0BF0F296F290A5
:10152600D08E20EE05F0BB51D926BC51DA22DF5011
:10153600D8A4A0EF0AF0A2EF0AF0A6EF0AF0F28C08
:10154600F190B6EF0AF020EE05F0BB51D926BC515A
:10155600DA22DE04D8A4B2EF0AF0B4EF0AF0B6EF4E
:101566000AF0F28EF180040EBB25B26F000EBC218C
:10157600B36F3BEC0BF012EF0BF0BBC0D9FFBCC056
:10158600DAFFDECF65F0DDCF66F020EE02F0BB516C
:10159600D926BC51DA22DECF63F0DDCF64F039EF15
:1015A6000BF0BBC0D9FFBCC0DAFFDECF61F0DDCFE8
:1015B60062F020EE02F0BB51D926BC51DA22DECF12
:1015C6005FF0DDCF60F039EF0BF0BBC0D9FFBCC0D8
:1015D600DAFFDECF5DF0DDCF5EF020EE02F0BB512C
:1015E600D926BC51DA22DECF5BF0DDCF5CF039EFD5
:1015F6000BF0BBC0D9FFBCC0DAFFDECF59F0DDCFA0
:101606005AF020EE02F0BB51D926BC51DA22DECFC9
:1016160057F0DDCF58F039EF0BF039EF0BF0000142
:1016260020EE04F0BB51D926BC51DA22DF30E83275
:10163600E832070BBD6FBE6BBE51000AD8B426EF69
:101646000BF010EF0BF0BD51040AD8B4C0EF0AF04E
:10165600010AD8B4D4EF0AF0030AD8B4E8EF0AF0C6
:10166600010AD8B4FCEF0AF010EF0BF0F286120074
:10167600010E0001BA6FB251B311D8B445EF0BF0A9
:1016860047EF0BF058EF0BF0B2C0D9FFB3C0DAFF4B
:10169600DF30E832E832070BB46F070EB46556EF59
:1016A6000BF058EF0BF0BDEF0BF0000EBA6FDEEF4C
:1016B6000BF0B2C0D9FFB3C0DAFFDF30E832E83250
:1016C600070BB46F010EB56FB42B6CEF0BF0D8900F
:1016D600B537B42F6AEF0BF00001B551FF0AB66FAC
:1016E600B2C0D9FFB3C0DAFFDF50070BB76FB751EF
:1016F600020D0B0EF324D96E000EF420DA6EDECF47
:10170600B8F0DDCFB9F0B8C0D9FFB9C0DAFFB6512D
:10171600DF16DEEF0BF0B2C0D9FFB3C0DAFFDF3061
:10172600E832E832070BB46F010EB56FB42B9EEFAB
:101736000BF0D890B537B42F9CEF0BF0B2C0D9FFA1
:10174600B3C0DAFFDF50070B0001B66FB651020DCA
:101756000B0EF324D96E000EF420DA6EDECFB7F04E
:10176600DDCFB8F0B7C0D9FFB8C0DAFFB551DF1288
:10177600DEEF0BF0B2C0D9FFB3C0DAFFDFBCC6EFB5
:101786000BF0C9EF0BF0010ECAEF0BF0000EB46FB1
:10179600B56BB551000AD8B4D3EF0BF058EF0BF088
:1017A600B451000AD8B45CEF0BF0010AD8B48EEF3E
:1017B6000BF058EF0BF0BA511200010E486E3F5075
:1017C6004010D8B4E9EF0BF0EBEF0BF0FCEF0BF0A9
:1017D6003FC0D9FF40C0DAFFDF30E832E832070BFE
:1017E600426E070E4264FAEF0BF0FCEF0BF05FEF70
:1017F6000CF0000E486E74EF0CF03FC0D9FF40C0ED
:10180600DAFFDF30E832E832070B426E010E436E34
:10181600422A10EF0CF0D8904336422E0EEF0CF011
:101826004350FF0A446E3FC0D9FF40C0DAFFDF5085
:10183600070B456E4550020D010EF324D96E000EBE
:10184600F420DA6EDECF46F0DDCF47F046C0D9FF92
:1018560047C0DAFF4450DF1674EF0CF03FC0D9FFE3
:1018660040C0DAFFDF30E832E832070B426E010E85
:10187600436E422A41EF0CF0D8904336422E3FEF9A
:101886000CF03FC0D9FF40C0DAFFDF50070B446EB3
:101896004450020D010EF324D96E000EF420DA6EC8
:1018A600DECF45F0DDCF46F045C0D9FF46C0DAFFB2
:1018B6004350DF1274EF0CF04150426E436A4350BE
:1018C600000AD8B469EF0CF0FCEF0BF04250000AA6
:1018D600D8B400EF0CF0010AD8B431EF0CF0FCEFED
:1018E6000BF0485012002F503010D8B47DEF0CF09A
:1018F6007FEF0CF090EF0CF02FC0D9FF30C0DAFF6D
:10190600DF30E832E832070B326E070E32648EEFB4
:101916000CF090EF0CF0F1EF0CF006EF0DF02FC08D
:10192600D9FF30C0DAFFDF30E832E832070B326E1B
:10193600010E336E322AA2EF0CF0D8903336322ED7
:10194600A0EF0CF03350FF0A346E2FC0D9FF30C021
:10195600DAFFDF50070B356E3550020D010EF3240A
:10196600D96E000EF420DA6EDECF36F0DDCF37F01A
:1019760036C0D9FF37C0DAFF3450DF1606EF0DF058
:101986002FC0D9FF30C0DAFFDF30E832E832070B6C
:10199600326E010E336E322AD3EF0CF0D890333606
:1019A600322ED1EF0CF02FC0D9FF30C0DAFFDF5056
:1019B600070B346E3450020D010EF324D96E000E5F
:1019C600F420DA6EDECF35F0DDCF36F035C0D9FF44
:1019D60036C0DAFF3350DF1206EF0DF03150326EAB
:1019E600336A3350000AD8B4FBEF0CF090EF0CF0DA
:1019F6003250000AD8B492EF0CF0010AD8B4C3EF03
:101A06000CF090EF0CF012003F504010D8B40EEFDF
:101A16000DF010EF0DF021EF0DF03FC0D9FF40C0E3
:101A2600DAFFDF30E832E832070B416E070E416419
:101A36001FEF0DF021EF0DF023EF0DF04FEF0DF03E
:101A46003FC0D9FF40C0DAFFDF30E832E832070B8B
:101A5600416E010E426E412A33EF0DF0D8904236A8
:101A6600412E31EF0DF03FC0D9FF40C0DAFFDF5005
:101A7600070B436E4350020D010EF324D96E000E80
:101A8600F420DA6EDECF44F0DDCF45F044C0D9FF56
:101A960045C0DAFF4250DF1A12002F503010D8B47A
:101AA60057EF0DF059EF0DF06AEF0DF02FC0D9FF8B
:101AB60030C0DAFFDF30E832E832070B316E070E4E
:101AC600316468EF0DF06AEF0DF06CEF0DF098EFF2
:101AD6000DF02FC0D9FF30C0DAFFDF30E832E83230
:101AE600070B316E010E326E312A7CEF0DF0D89065
:101AF6003236312E7AEF0DF02FC0D9FF30C0DAFF23
:101B0600DF50070B336E3350020D010EF324D96EEE
:101B1600000EF420DA6EDECF34F0DDCF35F034C0BF
:101B2600D9FF35C0DAFF3250DF1A1200496EF29043
:101B36004950D8A4A1EF0DF0A3EF0DF0BAEF0DF0C8
:101B460057505810D8B4AAEF0DF0ACEF0DF0D7EF00
:101B56000DF002D8B8EF0DF00500FA6E5750FD6E85
:101B66005850FE6EFF6AFA501200D7EF0DF0490486
:101B7600D8A4C0EF0DF0C2EF0DF0D7EF0DF059501D
:101B86005A10D8B4C9EF0DF0CBEF0DF0D7EF0DF02A
:101B960002D8D7EF0DF00500FA6E5950FD6E5A5077
:101BA600FE6EFF6AFA5012001200496EF29049501A
:101BB600D8A4E0EF0DF0E2EF0DF0F9EF0DF05B5079
:101BC6005C10D8B4E9EF0DF0EBEF0DF016EF0EF068
:101BD60002D8F7EF0DF00500FA6E5B50FD6E5C5013
:101BE600FE6EFF6AFA50120016EF0EF04904D8A4F2
:101BF600FFEF0DF001EF0EF016EF0EF05D505E10E8
:101C0600D8B408EF0EF00AEF0EF016EF0EF002D879
:101C160016EF0EF00500FA6E5D50FD6E5E50FE6E1C
:101C2600FF6AFA5012001200496EF2904950D8A489
:101C36001FEF0EF021EF0EF038EF0EF05F50601040
:101C4600D8B428EF0EF02AEF0EF055EF0EF002D8BA
:101C560036EF0EF00500FA6E5F50FD6E6050FE6EB8
:101C6600FF6AFA50120055EF0EF04904D8A43EEF71
:101C76000EF040EF0EF055EF0EF061506210D8B442
:101C860047EF0EF049EF0EF055EF0EF002D855EF84
:101C96000EF00500FA6E6150FD6E6250FE6EFF6A30
:101CA600FA5012001200496EF2904950D8A45EEF25
:101CB6000EF060EF0EF077EF0EF063506410D8B4BC
:101CC60067EF0EF069EF0EF094EF0EF002D875EFA5
:101CD6000EF00500FA6E6350FD6E6450FE6EFF6AEC
:101CE600FA50120094EF0EF04904D8A47DEF0EF0DE
:101CF6007FEF0EF094EF0EF065506610D8B486EFC5
:101D06000EF088EF0EF094EF0EF002D894EF0EF07E
:101D16000500FA6E6550FD6E6650FE6EFF6AFA505B
:101D260012001200386EF2903850D8A49DEF0EF0D3
:101D36009FEF0EF0B6EF0EF057505810D8B4A6EF3E
:101D46000EF0A8EF0EF0D3EF0EF002D8B4EF0EF0BF
:101D56000500FA6E5750FD6E5850FE6EFF6AFA5037
:101D66001200D3EF0EF03804D8A4BCEF0EF0BEEF8D
:101D76000EF0D3EF0EF059505A10D8B4C5EF0EF04E
:101D8600C7EF0EF0D3EF0EF002D8D3EF0EF005003A
:101D9600FA6E5950FD6E5A50FE6EFF6AFA501200E6
:101DA6001200386EF2903850D8A4DCEF0EF0DEEF59
:101DB6000EF0F5EF0EF05B505C10D8B4E5EF0EF0C8
:101DC600E7EF0EF012EF0FF002D8F3EF0EF005007A
:101DD600FA6E5B50FD6E5C50FE6EFF6AFA501200A2
:101DE60012EF0FF03804D8A4FBEF0EF0FDEF0EF063
:101DF60012EF0FF05D505E10D8B404EF0FF006EF4F
:101E06000FF012EF0FF002D812EF0FF00500FA6E86
:101E16005D50FD6E5E50FE6EFF6AFA5012001200B3
:101E2600386EF2903850D8A41BEF0FF01DEF0FF06C
:101E360034EF0FF05F506010D8B424EF0FF026EFA8
:101E46000FF051EF0FF002D832EF0FF00500FA6EE7
:101E56005F50FD6E6050FE6EFF6AFA50120051EF41
:101E66000FF03804D8A43AEF0FF03CEF0FF051EF23
:101E76000FF061506210D8B443EF0FF045EF0FF04A
:101E860051EF0FF002D851EF0FF00500FA6E6150D6
:101E9600FD6E6250FE6EFF6AFA5012001200386E36
:101EA600F2903850D8A45AEF0FF05CEF0FF073EFB2
:101EB6000FF063506410D8B463EF0FF065EF0FF0C6
:101EC60090EF0FF002D871EF0FF00500FA6E635035
:101ED600FD6E6450FE6EFF6AFA50120090EF0FF02E
:101EE6003804D8A479EF0FF07BEF0FF090EF0FF0E6
:101EF60065506610D8B482EF0FF084EF0FF090EFC4
:101F06000FF002D890EF0FF00500FA6E6550FD6EE7
:101F16006650FE6EFF6AFA50120012002E0E000185
:101F2600B26F000EB36F3BEC0BF02D0E0001B26FDB
:101F3600000EB36F3BEC0BF02C0E0001B26F000EDF
:101F4600B36F3BEC0BF02B0E0001B26F000EB36FBC
:101F56003BEC0BF0250E0001BB6F000EBC6F85EC51
:101F66000AF01F0E0001BB6F000EBC6F85EC0AF075
:101F7600190E0001BB6F000EBC6F85EC0AF0AC0EAB
:101F86000001BB6F000EBC6F85EC0AF01200240E38
:101F9600F66E200EF76E000EF86E00EE80F010EE74
:101FA60032F00900F5CFEEFFE550E150FAE1560EAA
:101FB600F66E200EF76E000EF86E00EE01F010EED3
:101FC6002EF00900F5CFEEFFE550E150FAE100EE04
:101FD60053F01B0EEE6AE806FDE16E906E9200016C
:101FE600FFEF11F00600FACF39F0FBCF3AF0D9CF68
:101FF6003BF0DACF3CF0F3CF3DF0F4CF3EF044ECCB
:1020060009F03EC0F4FF3DC0F3FF3CC0DAFF3BC021
:10201600D9FF3AC0FBFF39C0FAFF6E921100800F5C
:10202600810F820F830F840F6A21510102010E2155
:10203600490001003C2141010001323A030B131B08
:10204600232B333B020A121A222A5223E222790157
:10205600890F8A0F8B0F8C0F8D0F920F930F940F92
:10206600950F960F01010101FE228E2271011A239E
:10207600AA2269013623C62261019A928A82F092C7
:1020860067506810D8B44AEF10F04CEF10F058EFD4
:1020960010F002D858EF10F00500FA6E6750FD6E8A
:1020A6006850FE6EFF6AFA5012001200F0906950F6
:1020B6006A10D8B461EF10F063EF10F06FEF10F014
:1020C60002D86FEF10F00500FA6E6950FD6E6A5087
:1020D600FE6EFF6AFA5012001200F2926B506C10FC
:1020E600D8B478EF10F07AEF10F086EF10F002D83F
:1020F60086EF10F00500FA6E6B50FD6E6C50FE6EAA
:10210600FF6AFA50120012006EA28CEF10F011EF67
:1021160011F02D0E3F6E000E406E07EC0DF0060E10
:10212600476E130E466EAE0EE82EFED7462EFCD731
:10213600472EFAD712006EA2A3EF10F023EF11F08C
:102146002E0E3F6E000E406E07EC0DF0060E476E2B
:10215600130E466EAE0EE82EFED7462EFCD7472E41
:10216600FAD712006EA2BAEF10F035EF11F02C0E6E
:102176003F6E000E406E07EC0DF0060E476E130E16
:10218600466EAE0EE82EFED7462EFCD7472EFAD761
:102196001200F09267506810D8B4D4EF10F0D6EF62
:1021A60010F0E2EF10F002D8E2EF10F00500FA6E40
:1021B6006750FD6E6850FE6EFF6AFA5012001200FC
:1021C600F09069506A10D8B4EBEF10F0EDEF10F014
:1021D600F9EF10F002D8F9EF10F00500FA6E695029
:1021E600FD6E6A50FE6EFF6AFA5012001200F292FD
:1021F6006B506C10D8B402EF11F004EF11F010EF31
:1022060011F002D810EF11F00500FA6E6B50FD6E5A
:102216006C50FE6EFF6AFA50120012002D0E2F6EE1
:10222600000E306E50EC0DF0060E376E130E366E45
:10223600AE0EE82EFED7362EFCD7372EFAD7120072
:102246002E0E2F6E000E306E50EC0DF0060E376E11
:10225600130E366EAE0EE82EFED7362EFCD7372E70
:10226600FAD712002C0E2F6E000E306E50EC0DF0C9
:10227600060E376E130E366EAE0EE82EFED7362ECF
:10228600FCD7372EFAD712006EA24CEF11F0B7EF3B
:1022960011F02C0E3F6E000E406E000E416EE0EC0B
:1022A6000BF012006EA25AEF11F0C0EF11F02D0ED6
:1022B6003F6E000E406E000E416EE0EC0BF0120019
:1022C6006EA268EF11F0C9EF11F02E0E3F6E000EF0
:1022D600406E000E416EE0EC0BF012006EA276EF3F
:1022E60011F0D2EF11F02B0E3F6E000E406E000E75
:1022F600416EE0EC0BF012006EA284EF11F0DBEF02
:1023060011F02C0E3F6E000E406E010E416EE0EC99
:102316000BF012006EA292EF11F0E4EF11F02D0E09
:102326003F6E000E406E010E416EE0EC0BF01200A7
:102336006EA2A0EF11F0EDEF11F02E0E3F6E000E23
:10234600406E010E416EE0EC0BF012006EA2AEEF95
:1023560011F0F6EF11F02B0E3F6E000E406E010EDF
:10236600416EE0EC0BF012002C0E2F6E000E306E5C
:10237600000E316E76EC0CF012002D0E2F6E000E54
:10238600306E000E316E76EC0CF012002E0E2F6EB3
:10239600000E306E000E316E76EC0CF012002B0E35
:1023A6002F6E000E306E000E316E76EC0CF01200C1
:1023B6002C0E2F6E000E306E010E316E76EC0CF088
:1023C60012002D0E2F6E000E306E010E316E76EC61
:1023D6000CF012002E0E2F6E000E306E010E316EB6
:1023E60076EC0CF012002B0E2F6E000E306E010EE6
:1023F600316E76EC0CF0120091EC0FF001EF12F05A
:0424060035EF00F0BE
:020000040020DA
:08000000FFFFFFFFFFFFFFFF00
:020000040030CA
:0E000000FF02091EFF8181FF0FC00FE00F40BD
:00000001FF
