:040000002DEF00F0F0
:060008006B824BED10F0CD
:100018006B80D8CF55F0E8CF56F0E0CF57F0FACF45
:1000280058F0FBCF59F0D9CF5AF0DACF5BF003EC98
:1000380008F05BC0DAFF5AC0D9FF59C0FBFF58C0AF
:10004800FAFF57C0E0FF56C0E8FF55C0D8FF6B90D5
:06005800100055EF0DF051
:0510000000256900005D
:10100600F2A808EF08F00AEF08F013EF08F0F2A2D2
:101016000FEF08F011EF08F013EF08F0B2EC11F043
:10102600F0A618EF08F01AEF08F023EF08F0F0A08A
:101036001FEF08F021EF08F023EF08F0B0EC11F0F5
:10104600F0A828EF08F02AEF08F033EF08F0F0A236
:101056002FEF08F031EF08F033EF08F0AEEC11F0A7
:10106600F2A638EF08F03AEF08F055EF08F0F2A0D4
:101076003FEF08F041EF08F055EF08F081A846EF82
:1010860008F048EF08F055EF08F06304D8A44EEFD7
:1010960008F050EF08F055EF08F0000E636E010EF1
:1010A6002AEC11F0F2A65AEF08F05CEF08F077EFA1
:1010B60008F0F2A061EF08F063EF08F077EF08F0B0
:1010C60081B868EF08F06AEF08F077EF08F0635030
:1010D600D8A470EF08F072EF08F077EF08F0010E71
:1010E600636E000E2AEC11F0F2A67CEF08F07EEF9C
:1010F60008F099EF08F0F2A083EF08F085EF08F00A
:1011060099EF08F081AA8AEF08F08CEF08F099EFC2
:1011160008F06204D8A492EF08F094EF08F099EF73
:1011260008F0000E626E010E1DEC11F0F2A69EEFA5
:1011360008F0A0EF08F0BBEF08F0F2A0A5EF08F06A
:10114600A7EF08F0BBEF08F081BAACEF08F0AEEFFE
:1011560008F0BBEF08F06250D8A4B4EF08F0B6EF81
:1011660008F0BBEF08F0010E626E000E1DEC11F0E8
:10117600F2A6C0EF08F0C2EF08F0DDEF08F0F2A02B
:10118600C7EF08F0C9EF08F0DDEF08F081ACCEEF4D
:1011960008F0D0EF08F0DDEF08F06104D8A4D6EF30
:1011A60008F0D8EF08F0DDEF08F0000E616E010ED2
:1011B60010EC11F0F2A6E2EF08F0E4EF08F0FFEF12
:1011C60008F0F2A0E9EF08F0EBEF08F0FFEF08F007
:1011D60081BCF0EF08F0F2EF08F0FFEF08F0615085
:1011E600D8A4F8EF08F0FAEF08F0FFEF08F0010EC8
:1011F600616E000E10EC11F0F2A604EF09F006EF96
:1012060009F021EF09F0F2A00BEF09F00DEF09F05C
:1012160021EF09F081AE12EF09F014EF09F021EF8A
:1012260009F06004D8A41AEF09F01CEF09F021EFC9
:1012360009F0000E606E010E03EC11F0F2A626EF27
:1012460009F028EF09F043EF09F0F2A02DEF09F0BD
:101256002FEF09F043EF09F081BE34EF09F036EFC6
:1012660009F043EF09F06050D8A43CEF09F03EEFD7
:1012760009F043EF09F0010E606E000E03EC11F069
:101286009DAC48EF09F04AEF09F053EF09F09EAC28
:101296004FEF09F051EF09F053EF09F0B4EC11F0FC
:1012A600F2AA58EF09F05AEF09F063EF09F0F2A439
:1012B6005FEF09F061EF09F063EF09F007EC0FF05B
:1012C6009DA068EF09F06AEF09F073EF09F09EA0A0
:1012D6006FEF09F071EF09F073EF09F09AEC11F076
:1012E6009DA278EF09F07AEF09F083EF09F09EA24C
:1012F6007FEF09F081EF09F083EF09F0A6EC11F01A
:10130600A0A288EF09F08AEF09F093EF09F0A1A2F5
:101316008FEF09F091EF09F093EF09F022EC0FF04F
:101326009DA498EF09F09AEF09F0A3EF09F09EA4A7
:101336009FEF09F0A1EF09F0A3EF09F006EC10F01A
:101346009DA8A8EF09F0AAEF09F0B3EF09F09EA84F
:10135600AFEF09F0B1EF09F0B3EF09F0EFEC0FF0E2
:101366009DAAB8EF09F0BAEF09F0C3EF09F09EAAFB
:10137600BFEF09F0C1EF09F0C3EF09F0BFEC0FF0C2
:101386001200F2A8C9EF09F0CBEF09F0D4EF09F08B
:10139600F2A2D0EF09F0D2EF09F0D4EF09F0BAECDF
:1013A60011F0F0A6D9EF09F0DBEF09F0E4EF09F050
:1013B600F0A0E0EF09F0E2EF09F0E4EF09F0B8EC95
:1013C60011F0F0A8E9EF09F0EBEF09F0F4EF09F0FE
:1013D600F0A2F0EF09F0F2EF09F0F4EF09F0B6EC45
:1013E60011F0F2A6F9EF09F0FBEF09F016EF0AF09B
:1013F600F2A000EF0AF002EF0AF016EF0AF081A859
:1014060007EF0AF009EF0AF016EF0AF06304D8A412
:101416000FEF0AF011EF0AF016EF0AF0000E636EF6
:10142600010E6BEC11F0F2A61BEF0AF01DEF0AF0AD
:1014360038EF0AF0F2A022EF0AF024EF0AF038EFB4
:101446000AF081B829EF0AF02BEF0AF038EF0AF01C
:101456006350D8A431EF0AF033EF0AF038EF0AF000
:10146600010E636E000E6BEC11F0F2A63DEF0AF072
:101476003FEF0AF05AEF0AF0F2A044EF0AF046EF07
:101486000AF05AEF0AF081AA4BEF0AF04DEF0AF084
:101496005AEF0AF06204D8A453EF0AF055EF0AF0A7
:1014A6005AEF0AF0000E626E010E5EEC11F0F2A623
:1014B6005FEF0AF061EF0AF07CEF0AF0F2A066EF48
:1014C6000AF068EF0AF07CEF0AF081BA6DEF0AF0D5
:1014D6006FEF0AF07CEF0AF06250D8A475EF0AF0BD
:1014E60077EF0AF07CEF0AF0010E626E000E5EECFA
:1014F60011F0F2A681EF0AF083EF0AF09EEF0AF0F0
:10150600F2A088EF0AF08AEF0AF09EEF0AF081ACAB
:101516008FEF0AF091EF0AF09EEF0AF06104D8A46B
:1015260097EF0AF099EF0AF09EEF0AF0000E616E4F
:10153600010E51EC11F0F2A6A3EF0AF0A5EF0AF0A6
:10154600C0EF0AF0F2A0AAEF0AF0ACEF0AF0C0EF83
:101556000AF081BCB1EF0AF0B3EF0AF0C0EF0AF06F
:101566006150D8A4B9EF0AF0BBEF0AF0C0EF0AF059
:10157600010E616E000E51EC11F0F2A6C5EF0AF0F5
:10158600C7EF0AF0E2EF0AF0F2A0CCEF0AF0CEEFD6
:101596000AF0E2EF0AF081AED3EF0AF0D5EF0AF0D7
:1015A600E2EF0AF06004D8A4DBEF0AF0DDEF0AF000
:1015B600E2EF0AF0000E606E010E44EC11F0F2A6A6
:1015C600E7EF0AF0E9EF0AF004EF0BF0F2A0EEEF16
:1015D6000AF0F0EF0AF004EF0BF081BEF5EF0AF027
:1015E600F7EF0AF004EF0BF06050D8A4FDEF0AF015
:1015F600FFEF0AF004EF0BF0010E606E000E44ECF4
:1016060011F09DAC09EF0BF00BEF0BF014EF0BF0A4
:101616009EAC10EF0BF012EF0BF014EF0BF0BCECDE
:1016260011F0F2AA19EF0BF01BEF0BF024EF0BF001
:10163600F2A420EF0BF022EF0BF024EF0BF03DECC1
:101646000FF09DA029EF0BF02BEF0BF034EF0BF012
:101656009EA030EF0BF032EF0BF034EF0BF0A0EC66
:1016660011F09DA239EF0BF03BEF0BF044EF0BF0BE
:101676009EA240EF0BF042EF0BF044EF0BF0AAEC0A
:1016860011F0A0A249EF0BF04BEF0BF054EF0BF06B
:10169600A1A250EF0BF052EF0BF054EF0BF058EC09
:1016A6000FF09DA459EF0BF05BEF0BF064EF0BF01E
:1016B6009EA460EF0BF062EF0BF064EF0BF034ECDE
:1016C60010F09DA869EF0BF06BEF0BF074EF0BF0C9
:1016D6009EA870EF0BF072EF0BF074EF0BF01DECA1
:1016E60010F09DAA79EF0BF07BEF0BF084EF0BF077
:1016F6009EAA80EF0BF082EF0BF084EF0BF0D7EC95
:101706000FF01200010E0001FC6FF451F511D8B470
:101716008FEF0BF091EF0BF0A2EF0BF0F4C0D9FFB7
:10172600F5C0DAFFDF30E832E832070BF66F070E56
:10173600F665A0EF0BF0A2EF0BF007EF0CF0000E32
:10174600FC6F28EF0CF0F4C0D9FFF5C0DAFFDF30EC
:10175600E832E832070BF66F010EF76FF62BB6EF9D
:101766000BF0D890F737F62FB4EF0BF00001F751D6
:10177600FF0AF86FF4C0D9FFF5C0DAFFDF50070B98
:10178600F96FF951020D940EF324D96E000EF42070
:10179600DA6EDECFFAF0DDCFFBF0FAC0D9FFFBC080
:1017A600DAFFF851DF1628EF0CF0F4C0D9FFF5C0C8
:1017B600DAFFDF30E832E832070BF66F010EF76F1B
:1017C600F62BE8EF0BF0D890F737F62FE6EF0BF095
:1017D600F4C0D9FFF5C0DAFFDF50070B0001F86F40
:1017E600F851020D940EF324D96E000EF420DA6E31
:1017F600DECFF9F0DDCFFAF0F9C0D9FFFAC0DAFF93
:10180600F751DF1228EF0CF0F4C0D9FFF5C0DAFF6C
:10181600DFBC10EF0CF013EF0CF0010E14EF0CF020
:10182600000EF66FF76BF751000AD8B41DEF0CF0F7
:10183600A2EF0BF0F651000AD8B4A6EF0BF0010A9E
:10184600D8B4D8EF0BF0A2EF0BF0FC511200010E4A
:101856000001FD6FF451F511D8B434EF0CF036EFFA
:101866000CF047EF0CF0F4C0D9FFF5C0DAFFDF301B
:10187600E832E832070BF76F070EF76545EF0CF015
:1018860047EF0CF0ACEF0CF0000EFD6FC1EF0CF063
:10189600F4C0D9FFF5C0DAFFDF30E832E832070BD3
:1018A600F76F010EF86FF72B5BEF0CF0D890F83757
:1018B600F72F59EF0CF00001F851FF0AF96FF4C049
:1018C600D9FFF5C0DAFFDF50070BFA6FFA51020DA8
:1018D6008A0EF324D96E000EF420DA6EDECFFBF00A
:1018E600DDCFFCF0FBC0D9FFFCC0DAFFF951DF16F3
:1018F600C1EF0CF0F4C0D9FFF5C0DAFFDF30E832F3
:10190600E832070BF76F010EF86FF72B8DEF0CF02F
:10191600D890F837F72F8BEF0CF0F4C0D9FFF5C04D
:10192600DAFFDF50070B0001F96FF951020D8A0E3D
:10193600F324D96E000EF420DA6EDECFFAF0DDCF96
:10194600FBF0FAC0D9FFFBC0DAFFF851DF12C1EF96
:101956000CF0F651F76FF86BF851000AD8B4B6EFF1
:101966000CF047EF0CF0F751000AD8B44BEF0CF02F
:10197600010AD8B47DEF0CF047EF0CF0FD511200D0
:101986000001F451F511D8A4CBEF0CF0CDEF0CF01B
:10199600D1EF0CF0000EF76F11EF0DF0C69A948898
:1019A6009496929A949AF4C0D9FFF5C0DAFFDF5064
:1019B600F66FF63BC650F619EF0BF619C66E20EE1B
:1019C60001F0F451D926F551DA22DF50F66FF63BD5
:1019D600F647F647C750F619BF0BF619C76E20EE45
:1019E60002F0F451D926F551DA22DF50F66FF633BC
:1019F600F633C750F6197F0BF619C76E20EE03F0C3
:101A0600F451D926F551DA22DF50F66FC650F61991
:101A1600F00BF619C66EC68A010EF76FF751120063
:101A2600010E0101176F14511511D8A41DEF0DF009
:101A36001FEF0DF023EF0DF0000E176F52EF0DF0B4
:101A46003AC018F114C1D9FF15C1DAFFDF500F0BE8
:101A5600166F18511619F80B1619186F14C1D9FFFD
:101A660015C1DAFFDF38070B166F164716471647FC
:101A760018511619C70B1619186F189D14C1D9FFDE
:101A860015C1DAFFDFAE02D0188F02D00101189F10
:101A9600180E0001FE6F010EFF6F5BEC0EF00101E8
:101AA60017511200F00EF66E220EF76E000EF86E4B
:101AB60001EE00F010EE13F00900F5CFEEFFE55051
:101AC600E150FAE1560EF66E1D0EF76E000EF86E38
:101AD60000EE80F010EE47F00900F5CFEEFFE5507E
:101AE600E150FAE1240EF66E230EF76E000EF86E44
:101AF60000EE5CF010EE0FF00900F5CFEEFFE550BA
:101B0600E150FAE100EEC7F02D0EEE6AE806FDE1BF
:101B160000EE01F0400EEE6AE806FDE16B906B9276
:101B2600000185EF0EF06BA29BEF0DF0CCEF0DF0F0
:101B3600342A332A3404D8A4A3EF0DF0A5EF0DF010
:101B4600BAEF0DF0C10E4D6E000E4E6E000E506EC9
:101B5600000E4F6EA9EC10F0000E0001E86F000EAB
:101B6600E96F000EEA6F000EEB6FCBEF0DF0020E81
:101B76003418D8A4C1EF0DF0C3EF0DF0CBEF0DF084
:101B8600000E346E3B0E4D6E000E4E6ECFEC0EF018
:101B96001200342A332A3404D8A4D4EF0DF0D6EF39
:101BA6000DF0EBEF0DF0C10E416E000E426E000E11
:101BB600446E000E436EC9EC10F0000E0001E86F93
:101BC600000EE96F000EEA6F000EEB6FFCEF0DF0F2
:101BD600020E3418D8A4F2EF0DF0F4EF0DF0FCEF7E
:101BE6000DF0000E346E3B0E416E000E426EEBECB5
:101BF6000EF01200000E536E000E546E4D504E1035
:101C0600D8B408EF0EF00AEF0EF013EF0EF04F50B7
:101C16005010D8A411EF0EF013EF0EF015EF0EF0E2
:101C26002BEF0EF0CECF53F0CFCF54F0535054C01D
:101C360051F0526A51C052F0516A5126000E52229A
:101C46004FC0D9FF50C0DAFF51C0DEFF52C0DDFFE2
:101C56001200000E476E000E486E41504210D8B476
:101C660037EF0EF039EF0EF042EF0EF0435044100E
:101C7600D8A440EF0EF042EF0EF044EF0EF05AEF0C
:101C86000EF0CECF47F0CFCF48F0475048C045F0D2
:101C9600466A45C046F0456A4526000E462243C0C0
:101CA600D9FF44C0DAFF45C0DEFF46C0DDFF1200A3
:101CB6000001FE51FF11D8A463EF0EF065EF0EF0A0
:101CC6006AEF0EF0000E0101136F83EF0EF0FEC0F7
:101CD600F4F0FFC0F5F085EC0BF00101136FFEC0C8
:101CE600F4F0FFC0F5F0FEC0D9FFFFC0DAFF000137
:101CF600000EDFBE010EF66F2AEC0CF00101131781
:101D060013511200D9EC10F0410E88EC10F0330E8E
:101D160001011A6FBB0E196FDF0EE82EFED7192FC1
:101D2600FCD71A2FFAD700D0420E88EC10F0330EEB
:101D360001011A6FBB0E196FDF0EE82EFED7192FA1
:101D4600FCD71A2FFAD700D087EF0EF02DEF00F050
:101D5600800F810F820F830F840F890F8A0F8B0FDD
:101D66008C0F8D0F920F930F940F950F960F323A9B
:101D7600030B131B232B333BE61E0104DC0B07006E
:101D8600522C1B010500020A121A222A0000010029
:071D960000EC210000000039
:101D9E002DC04FF02EC050F04D504E10D8A4DAEF9B
:101DAE000EF0DCEF0EF0DEEF0EF0EAEF0EF0BECF2F
:101DBE004FF0BFCF50F04DC0D9FF4EC0DAFF4FC02D
:101DCE00DEFF50C0DDFF12002DC043F02EC044F0E8
:101DDE0041504210D8A4F6EF0EF0F8EF0EF0FAEFE5
:101DEE000EF006EF0FF0BECF43F0BFCF44F041C070
:101DFE00D9FF42C0DAFF43C0DEFF44C0DDFF120050
:101E0E00F2941450D76E13C0D6FF15501610D8B4D6
:101E1E0013EF0FF015EF0FF021EF0FF002D821EFB7
:101E2E000FF00500FA6E1550FD6E1650FE6EFF6A2D
:101E3E00FA5012001200A1920A50B36E09C0B2FFFE
:101E4E000B500C10D8B42EEF0FF030EF0FF03CEF1C
:101E5E000FF002D83CEF0FF00500FA6E0B50FD6E3E
:101E6E000C50FE6EFF6AFA5012001200F2941450DB
:101E7E00D76E13C0D6FF15501610D8B449EF0FF019
:101E8E004BEF0FF057EF0FF002D857EF0FF00500A2
:101E9E00FA6E1550FD6E1650FE6EFF6AFA50120065
:101EAE001200A1920A50B36E09C0B2FF0B500C1073
:101EBE00D8B464EF0FF066EF0FF072EF0FF002D8A8
:101ECE0072EF0FF00500FA6E0B50FD6E0C50FE6EA9
:101EDE00FF6AFA50120012006BA278EF0FF060EF5B
:101EEE0010F0640E4D6E000E4E6E400E4F6E000ED4
:101EFE00506EFDEC0DF0640E4D6E000E4E6E000E2B
:101F0E00506E000E4F6E99EC10F012004D504E10A8
:101F1E00D8A494EF0FF096EF0FF098EF0FF0A5EF17
:101F2E000FF09EAA9DEF0FF09FEF0FF096EF0FF0C0
:101F3E004DC0D9FF4EC0DAFFAECFDFFF12004150C9
:101F4E004210D8A4ADEF0FF0AFEF0FF0B1EF0FF0DE
:101F5E00BEEF0FF09EAAB6EF0FF0B8EF0FF0AFEF97
:101F6E000FF041C0D9FF42C0DAFFAECFDFFF120043
:101F7E0005500610D8B4C6EF0FF0C8EF0FF0D6EF2D
:101F8E000FF002D8D4EF0FF00500FA6E0550FD6E7B
:101F9E000650FE6EFF6AFA501200D6EF0FF01200D6
:101FAE0005500610D8B4DEEF0FF0E0EF0FF0EEEFB5
:101FBE000FF002D8ECEF0FF00500FA6E0550FD6E33
:101FCE000650FE6EFF6AFA501200EEEF0FF012008E
:101FDE009D9807500810D8B4F7EF0FF0F9EF0FF0F7
:101FEE0005EF10F002D805EF10F00500FA6E07505D
:101FFE00FD6E0850FE6EFF6AFA50120012009E949B
:10200E002F503010D8B40EEF10F010EF10F01CEF70
:10201E0010F002D81CEF10F00500FA6E2F50FD6E76
:10202E003050FE6EFF6AFA50120012009D98075053
:10203E000810D8B425EF10F027EF10F033EF10F0A2
:10204E0002D833EF10F00500FA6E0750FD6E0850FF
:10205E00FE6EFF6AFA50120012009E942F5030103E
:10206E00D8B43CEF10F03EEF10F04AEF10F002D86B
:10207E004AEF10F00500FA6E2F50FD6E3050FE6ED6
:10208E00FF6AFA50120012000600FACF49F0FBCF99
:10209E004AF0D9CF4BF0DACF4CF0C4EC09F04CC07B
:1020AE00DAFF4BC0D9FF4AC0FBFF49C0FAFF6B9263
:1020BE001100640E416E000E426E400E436E000E15
:1020CE00446E2CEC0EF0640E416E000E426E000E4D
:1020DE00446E000E436EB9EC10F012006BA27AEF54
:1020EE0010F0E8EF10F0010E0001E427000EE523DA
:1020FE00E623E7233F0E4D6E000E4E6E8DEC0FF075
:10210E0012000001F56F000E0001F46FF5C0C9FF5B
:10211E00C7A094EF10F096EF10F08FEF10F09E9690
:10212E00C95012004D504E10D8A4A0EF10F0A2EFDF
:10213E0010F0A4EF10F0A8EF10F05050CF6E4FC07B
:10214E00CEFF12004D504E10D8A4B0EF10F0B2EFEB
:10215E0010F0B4EF10F0B8EF10F05050B36E4FC057
:10216E00B2FF120041504210D8A4C0EF10F0C2EFDF
:10217E0010F0C4EF10F0C8EF10F04450CF6E43C013
:10218E00CEFF120041504210D8A4D0EF10F0D2EF83
:10219E0010F0D4EF10F0D8EF10F04450B36E43C0EF
:1021AE00B2FF12006A0E0101146F000E156F13ECD0
:1021BE000DF0F00E0001F46F000EF56FC3EC0CF095
:1021CE001200010E0001E427000EE523E623E723AB
:1021DE003F0E416E000E426EA6EC0FF012006BA287
:1021EE00FBEF10F082EF11F0010E0001E827000E58
:1021FE00E923EA23EB2312004D6EF2904D50D8A442
:10220E000BEF11F00DEF11F00FEF11F00FEF11F0CA
:10221E0012004D6EF2904D50D8A418EF11F01AEF37
:10222E0011F01CEF11F01CEF11F012004D6EF29038
:10223E004D50D8A425EF11F027EF11F029EF11F032
:10224E0029EF11F012004D6EF2904D50D8A432EFDE
:10225E0011F034EF11F036EF11F036EF11F01200ED
:10226E006BA23CEF11F08AEF11F0010E0001E02796
:10227E00000EE123E223E3231200416EF29041505F
:10228E00D8A44CEF11F04EEF11F050EF11F050EFCB
:10229E0011F01200416EF2904150D8A459EF11F096
:1022AE005BEF11F05DEF11F05DEF11F01200416E7A
:1022BE00F2904150D8A466EF11F068EF11F06AEF7A
:1022CE0011F06AEF11F01200416EF2904150D8A455
:1022DE0073EF11F075EF11F077EF11F077EF11F05A
:1022EE00120080250000000103000300006E22EAA8
:0522FE002000000000BB
:10230400010E0001E827000EE923EA23EB23120063
:10231400010E0001E027000EE123E223E323120073
:0F23240000000472010101010000010000240308
:102334009E901050CF6E0FC0CEFF12009E90105092
:10234400CF6E0FC0CEFF12009E9236C0CCFF12009B
:102354009E9236C0CCFF1200F0921200F090120050
:10236400F29212009E9C1200F0921200F090120061
:08237400F29212009E9C12007F
:020000040020DA
:08000000FFFFFFFFFFFFFFFF00
:020000040030CA
:0E000000FF02091EFF8181FF0FC00FE00F40BD
:00000001FF
