:0400000035EF00F0E8
:060008005A821FED18F002
:100018005A80D8CF1DF0E8CF1EF0E0CF1FF0FACFFE
:1000280020F0FBCF21F0D9CF22F0DACF23F0F3CFA5
:1000380024F0F4CF25F063EC0EF025C0F4FF24C0C3
:10004800F3FF23C0DAFF22C0D9FF21C0FBFF20C085
:10005800FAFF1FC0E0FF1EC0E8FF1DC0D8FF5A907E
:060068001000B6EF16F0D7
:0510000000256900005D
:1010060001010351800B086F035103250A6F02AFDC
:101016000FEF08F011EF08F012EF08F00A810A51FD
:10102600D8B418EF08F01AEF08F02FEF08F00A29E5
:10103600D8A420EF08F022EF08F02AEF08F0000EFF
:10104600006F000E016F000E026F000E036F028F1D
:10105600000E036F37EF08F0000E006F000E016FF1
:10106600000E026F000E036F0751800B096F0851C7
:101076000919D8B441EF08F043EF08F044EF08F03F
:10108600088D07510725096F06AF4CEF08F04EEFA4
:1010960008F04FEF08F009810951D8B455EF08F070
:1010A60057EF08F06CEF08F00929D8A45DEF08F0B7
:1010B6005FEF08F067EF08F0000E046F000E056F93
:1010C600000E066F000E076F068F000E076F74EF97
:1010D60008F0000E046F000E056F000E066F000E7E
:1010E600076F0A51095DD8B07BEF08F07DEF08F075
:1010F600A4EF08F008AD82EF08F084EF08F086EF61
:1011060008F0800E081B0AC10BF109C10AF10BC1D8
:1011160009F100C10BF104C100F10BC104F101C1D9
:101126000BF105C101F10BC105F102C10BF106C1BD
:1011360002F10BC106F103C10BF107C103F10BC1AB
:1011460007F1000E0B6F0A5109C1B2F00001B36B33
:10115600B25F000EB35BB3BFBAEF08F0B35109E15B
:101166001A0EB25DD8A0BAEF08F0BCEF08F0F4EFA3
:1011760008F001010051011102110311D8A4C6EFB4
:1011860008F0C9EF08F0010ECAEF08F0000E0B6F69
:10119600000E006F000E016F000E026F000E036F4F
:1011A60009C10AF1FEEF08F00BA1DCEF08F0DEEF53
:1011B60008F0E4EF08F0D8900B3101090B6FE6EF69
:1011C60008F0D8900B3300A1EBEF08F0EDEF08F034
:1011D600EEEF08F00B8F0335033302330133003390
:1011E6000A2B010109510A5DD8A0FCEF08F0FEEFB9
:1011F60008F0D7EF08F008BD03EF09F005EF09F096
:1012060045EF09F00A51D8A40BEF09F00DEF09F0EC
:1012160017EF09F0000E006F000E016F000E026F4F
:10122600000E036F7EEF0AF00451002705510123DB
:10123600065102230751032303A124EF09F026EFE9
:1012460009F0E5EF09F00BA12BEF09F02DEF09F0FE
:1012560033EF09F0D8900B3101090B6F35EF09F028
:10126600D8900B3300A13AEF09F03CEF09F03DEFBF
:1012760009F00B8F033503330233013300330A2B96
:10128600E5EF09F00451005D055101590651025977
:101296000351800A0001B26F01010751800A000163
:1012A600B259D8B059EF09F05BEF09F095EF09F0A4
:1012B60001010051045D0001B26F010101510559A0
:1012C6000001B36F0101025106590001B46F01011B
:1012D600035107590001B56FFF0EB2250101006FDA
:1012E600FF0E0001B3210101016FFF0E0001B421C1
:1012F6000101026FFF0E0001B5210101036F800E8F
:10130600081B0B6D0B51D8A48BEF09F08DEF09F07C
:101316009EEF09F0010E0027000E0123022303238E
:101326009EEF09F001010451005F0551015B065172
:10133600025B0751035B0051011102110311D8A48E
:10134600A7EF09F0A9EF09F0DEEF09F00B51D8A4D9
:10135600AFEF09F0B1EF09F0DEEF09F0000E006F14
:10136600000E016F000E026F000E036F7EEF0AF093
:10137600D89000370137023703370BAFC5EF09F0B6
:10138600C7EF09F0C8EF09F000810BA1CDEF09F016
:10139600CFEF09F0D3EF09F0D8800B37D5EF09F07E
:1013A600D8900B370A51D8B4DBEF09F0DDEF09F01E
:1013B600DEEF09F00A0702AFE3EF09F0E5EF09F007
:1013C600BBEF09F0000E096F0BAFECEF09F0EEEF83
:1013D60009F009EF0AF00BC1B2F07F0E0001B21757
:1013E600D8B4F8EF09F0FAEF09F0FFEF09F0010EB3
:1013F6000101096F09EF0AF0010100A105EF0AF0EA
:1014060007EF0AF009EF0AF0FAEF09F00951D8B42C
:101416000FEF0AF011EF0AF03EEF0AF0010E002777
:10142600000E01230223032303A11CEF0AF01EEF83
:101436000AF03EEF0AF000C1B2F001C1B3F002C1FA
:10144600B4F003C1B5F00001B535B533B433B333E9
:10145600B233B2C000F1B3C001F1B4C002F1B5C0FD
:1014660003F101010A29D8B43BEF0AF03DEF0AF077
:101476003EEF0AF00A2B0A29D8B444EF0AF046EFE9
:101486000AF04EEF0AF00A51D8A44CEF0AF04EEFDC
:101496000AF060EF0AF0000E006F000E016F000EFA
:1014A600026F000E036F0A51D8A45CEF0AF05EEFDC
:1014B6000AF060EF0AF0000E086F0AA165EF0AF065
:1014C60067EF0AF06AEF0AF0028F6BEF0AF0029FED
:1014D600D8900A31036F08AF73EF0AF075EF0AF080
:1014E60076EF0AF0038F00C100F101C101F102C1DC
:1014F60002F103C103F1120000018351800B8C6FCE
:1015060083518325926F82AF8BEF0AF08DEF0AF03D
:101516008EEF0AF092819251D8B494EF0AF096EFCA
:101526000AF0A9EF0AF09229D8A49CEF0AF09EEFE0
:101536000AF0A6EF0AF0000E806F000E816F000E13
:10154600826F000E836F828FB1EF0AF0000E806FFC
:10155600000E816F000E826F000E836F8751800B25
:101566008C1B875187258D6F86AFBCEF0AF0BEEFC7
:101576000AF0BFEF0AF08D818D51D8B4C5EF0AF09D
:10158600C7EF0AF0DAEF0AF08D29D8A4CDEF0AF0FA
:10159600CFEF0AF0D7EF0AF0000E846F000E856FCA
:1015A600000E866F000E876F868FE2EF0AF0000E40
:1015B600846F000E856F000E866F000E876F8D514B
:1015C600D8B4E8EF0AF0EAEF0AF0F2EF0AF0925127
:1015D600D8A4F0EF0AF0F2EF0AF0FCEF0AF0000EE2
:1015E600806F000E816F000E826F000E836F94EF86
:1015F6000CF086518003F3CF97F0F4CF98F0975113
:101606008E6F8F6B906B916B9851936F946B956BFC
:10161600966B85518103F3CF97F0F4CF98F09751ED
:101626008E27000E8F239023912398519327000E27
:1016360094239523962384518203F3CF97F0F4CF16
:1016460098F097518E27000E8F239023912398515F
:101656009327000E94239523962390C091F08FC074
:1016660090F08EC08FF08E6B84518103F3CF97F08C
:10167600F4CF98F097518E2798518F23000E902320
:10168600000E912385518003F3CF97F0F4CF98F0A5
:1016960097518E2798518F23000E9023000E912389
:1016A60090C091F08FC090F08EC08FF08E6B8451F9
:1016B6008003F3CF97F0F4CF98F097518E27985187
:1016C6008F23000E9023000E912386518103F3CFC2
:1016D60097F0F4CF98F09751932798519423000EE2
:1016E6009523000E962385518203F3CF97F0F4CF0E
:1016F60098F09751932798519423000E9523000E46
:10170600962386518203F3CF97F0F4CF98F0975142
:10171600886F9851896F8A6B8B6B8AC08BF089C0F2
:101726008AF088C089F0886B885193278951942361
:101736008A5195238B5196238EC088F08FC089F0ED
:1017460090C08AF091C08BF0190EAFEF0BF0D890D5
:101756008B338A3389338833E82EAAEF0BF088510E
:101766009327895194238A5195238B51962390C0B0
:1017760091F08FC090F08EC08FF08E6B8D5192C01D
:1017860088F0896B8827000E8923820E8825976F3B
:10179600FF0E8921986FE5EF0BF0D89093379437B9
:1017A6009537963791AFDAEF0BF0DCEF0BF0DDEF04
:1017B6000BF09381D8908E378F37903791379707F4
:1017C600D8A0980795AFEAEF0BF0ECEF0BF0D0EF4F
:1017D6000BF0000E8D6F91AFF3EF0BF0F5EF0BF002
:1017E60019EF0CF0FF0E8E15886FFF0E8F15896F9F
:1017F600FF0E90158A6F7F0E91158B6F8851891198
:101806008A118B11D8B40AEF0CF00CEF0CF010EF24
:101816000CF0010E8D6F19EF0CF093A115EF0CF083
:1018260017EF0CF019EF0CF00CEF0CF08D51D8B44B
:101836001FEF0CF021EF0CF045EF0CF0010E932793
:10184600000E94239523962396A12CEF0CF02EEFF1
:101856000CF045EF0CF093C088F094C089F095C069
:101866008AF096C08BF08B358B338A338933883375
:1018760088C093F089C094F08AC095F08BC096F02A
:10188600974B982B98BF50EF0CF0985108E1972989
:10189600D8A050EF0CF052EF0CF05CEF0CF0000EFD
:1018A600936F000E946F800E956F7F0E966F8AEF82
:1018B6000CF098BF69EF0CF0985106E19705D8B087
:1018C60067EF0CF069EF0CF075EF0CF0000E936FFC
:1018D600000E946F000E956F000E966F000E8C6FC3
:1018E6008AEF0CF097C092F0FF0E9317FF0E941735
:1018F6007F0E9517000E961792A184EF0CF086EFD7
:101906000CF087EF0CF0958FD8909231966F8C5132
:10191600961393C080F094C081F095C082F096C073
:1019260083F0120000019C51800BA96F9C519C25ED
:10193600B06F9BAFA1EF0CF0A3EF0CF0A4EF0CF08F
:10194600B081B051D8B4AAEF0CF0ACEF0CF0C1EFF7
:101956000CF0B029D8A4B2EF0CF0B4EF0CF0BCEF49
:101966000CF0000E996F000E9A6F000E9B6F000E22
:101976009C6F9B8F000E9C6FC9EF0CF0000E996F49
:10198600000E9A6F000E9B6F000E9C6FA051800B8D
:10199600A91BA051A025B16F9FAFD4EF0CF0D6EFD5
:1019A6000CF0D7EF0CF0B181B151D8B4DDEF0CF0EB
:1019B600DFEF0CF0F4EF0CF0B129D8A4E5EF0CF052
:1019C600E7EF0CF0EFEF0CF0000E9D6F000E9E6F30
:1019D600000E9F6F000EA06F9F8F000EA06FFCEF92
:1019E6000CF0000E9D6F000E9E6F000E9F6F000E96
:1019F600A06F9D519E119F11A011D8A405EF0DF067
:101A060007EF0DF01FEF0DF0000E996F000E9A6FA5
:101A1600000E9B6F000E9C6F800E9B137F0E9C1317
:101A2600A9519C1399C099F09AC09AF09BC09BF05B
:101A36009CC09CF062EF0EF0B051D8A425EF0DF0DB
:101A460027EF0DF031EF0DF0000E996F000E9A6F33
:101A5600000E9B6F000E9C6F62EF0EF0B151B0C08E
:101A6600A1F0A26BA15F000EA25B7F0EA125AA6F5B
:101A7600000EA221AB6F99C0A5F09AC0A6F09BC03C
:101A8600A7F09CC0A8F0000E996F000E9A6F000E8A
:101A96009B6F000E9C6F000EAC6F000EAD6F000EBC
:101AA600AE6F000EAF6F000EB16F92EF0DF0B15139
:101AB600D8B460EF0DF062EF0DF079EF0DF0D8902D
:101AC600A537A637A737A837D89099379A379B37BF
:101AD6009C37AFAF71EF0DF073EF0DF074EF0DF0B3
:101AE6009981D890AC37AD37AE37AF379D51A55DEC
:101AF6009E51A6599F51A759A051A859D8A086EF23
:101B06000DF088EF0DF091EF0DF0AF8D9D51A55FB3
:101B16009E51A65B9F51A75BA051A85BB12B190EE6
:101B2600B16598EF0DF09AEF0DF05AEF0DF0A55153
:101B3600A611A711A811D8B4A3EF0DF0A5EF0DF0CB
:101B4600BDEF0DF0AC81BDEF0DF0D89099379A3707
:101B56009B379C37AFAFB2EF0DF0B4EF0DF0B5EF9A
:101B66000DF09981D890AC37AD37AE37AF37AA07AD
:101B7600D8A0AB079BAFC2EF0DF0C4EF0DF0A8EFF6
:101B86000DF0000EB16FAFAFCBEF0DF0CDEF0DF056
:101B9600F1EF0DF0FF0EAC15A16FFF0EAD15A26FA4
:101BA600FF0EAE15A36F7F0EAF15A46FA151A21144
:101BB600A311A411D8B4E2EF0DF0E4EF0DF0E8EFB5
:101BC6000DF0010EB16FF1EF0DF099A1EDEF0DF0F3
:101BD600EFEF0DF0F1EF0DF0E4EF0DF0B151D8B4E9
:101BE600F7EF0DF0F9EF0DF01DEF0EF0010E99274E
:101BF600000E9A239B239C239CA104EF0EF006EF74
:101C06000EF01DEF0EF099C0A1F09AC0A2F09BC095
:101C1600A3F09CC0A4F0A435A433A333A233A1330C
:101C2600A1C099F0A2C09AF0A3C09BF0A4C09CF0FA
:101C3600AA4BAB2BABBF28EF0EF0AB5108E1AA299C
:101C4600D8A028EF0EF02AEF0EF035EF0EF0000EBA
:101C5600AB6FAA69000E996F000E9A6F000E9B6F0C
:101C6600000E9C6FABBF42EF0EF0AB5106E1AA052A
:101C7600D8B040EF0EF042EF0EF050EF0EF0000E2F
:101C8600AB6F000EAA6F000E996F000E9A6F000ED2
:101C96009B6F000E9C6F000EA96FAAC0B0F0B0A19A
:101CA60057EF0EF059EF0EF05CEF0EF09B8F5DEFE5
:101CB6000EF09B9FD890B0319C6F13EF0DF0120081
:101CC600F2A868EF0EF06AEF0EF073EF0EF0F2A2D4
:101CD6006FEF0EF071EF0EF073EF0EF0CAEC19F025
:101CE600F0A678EF0EF07AEF0EF083EF0EF0F0A08C
:101CF6007FEF0EF081EF0EF083EF0EF0C8EC19F0D7
:101D0600F0A888EF0EF08AEF0EF093EF0EF0F0A237
:101D16008FEF0EF091EF0EF093EF0EF0C6EC19F088
:101D2600F2A698EF0EF09AEF0EF0B5EF0EF0F2A0D5
:101D36009FEF0EF0A1EF0EF0B5EF0EF081A8A6EF23
:101D46000EF0A8EF0EF0B5EF0EF05804D8A4AEEFE3
:101D56000EF0B0EF0EF0B5EF0EF0000E586E010E5D
:101D660051EC19F0F2A6BAEF0EF0BCEF0EF0D7EF79
:101D76000EF0F2A0C1EF0EF0C3EF0EF0D7EF0EF0AB
:101D860081B8C8EF0EF0CAEF0EF0D7EF0EF058503C
:101D9600D8A4D0EF0EF0D2EF0EF0D7EF0EF0010E72
:101DA600586E000E51EC19F0F2A6DCEF0EF0DEEFE5
:101DB6000EF0F9EF0EF0F2A0E3EF0EF0E5EF0EF005
:101DC600F9EF0EF081AAEAEF0EF0ECEF0EF0F9EF64
:101DD6000EF05704D8A4F2EF0EF0F4EF0EF0F9EF80
:101DE6000EF0000E576E010E44EC19F0F2A6FEEF4F
:101DF6000EF000EF0FF01BEF0FF0F2A005EF0FF063
:101E060007EF0FF01BEF0FF081BA0CEF0FF00EEF9C
:101E16000FF01BEF0FF05750D8A414EF0FF016EF8A
:101E26000FF01BEF0FF0010E576E000E44EC19F089
:101E3600F2A620EF0FF022EF0FF03DEF0FF0F2A029
:101E460027EF0FF029EF0FF03DEF0FF081AC2EEFEB
:101E56000FF030EF0FF03DEF0FF05604D8A436EF39
:101E66000FF038EF0FF03DEF0FF0000E566E010E3B
:101E760037EC19F0F2A642EF0FF044EF0FF05FEFE8
:101E86000FF0F2A049EF0FF04BEF0FF05FEF0FF0FE
:101E960081BC50EF0FF052EF0FF05FEF0FF056508E
:101EA600D8A458EF0FF05AEF0FF05FEF0FF0010EC6
:101EB600566E000E37EC19F0F2A664EF0FF066EFDF
:101EC6000FF081EF0FF0F2A06BEF0FF06DEF0FF058
:101ED60081EF0FF081AE72EF0FF074EF0FF081EF2C
:101EE6000FF05504D8A47AEF0FF07CEF0FF081EFD6
:101EF6000FF0000E556E010E2AEC19F0F2A686EFD1
:101F06000FF088EF0FF0A3EF0FF0F2A08DEF0FF0B8
:101F16008FEF0FF0A3EF0FF081BE94EF0FF096EF67
:101F26000FF0A3EF0FF05550D8A49CEF0FF09EEFE3
:101F36000FF0A3EF0FF0010E556E000E2AEC19F00C
:101F46009DACA8EF0FF0AAEF0FF0B3EF0FF09EAC29
:101F5600AFEF0FF0B1EF0FF0B3EF0FF0CCEC19F0DD
:101F6600F2AAB8EF0FF0BAEF0FF0C3EF0FF0F2A43A
:101F7600BFEF0FF0C1EF0FF0C3EF0FF03CEC18F01E
:101F86009DA0C8EF0FF0CAEF0FF0D3EF0FF09EA0A1
:101F9600CFEF0FF0D1EF0FF0D3EF0FF057EC18F0B3
:101FA6009DA2D8EF0FF0DAEF0FF0E3EF0FF09EA24D
:101FB600DFEF0FF0E1EF0FF0E3EF0FF0BBEC19F0FE
:101FC600A0A2E8EF0FF0EAEF0FF0F3EF0FF0A1A2F7
:101FD600EFEF0FF0F1EF0FF0F3EF0FF0AFEC19F0BA
:101FE6001200F2A8F9EF0FF0FBEF0FF004EF10F07C
:101FF600F2A200EF10F002EF10F004EF10F0D2ECB6
:1020060019F0F0A609EF10F00BEF10F014EF10F036
:10201600F0A010EF10F012EF10F014EF10F0D0EC6B
:1020260019F0F0A819EF10F01BEF10F024EF10F0E4
:10203600F0A220EF10F022EF10F024EF10F0CEEC1B
:1020460019F0F2A629EF10F02BEF10F046EF10F082
:10205600F2A030EF10F032EF10F046EF10F081A84A
:1020660037EF10F039EF10F046EF10F05804D8A40F
:102076003FEF10F041EF10F046EF10F0000E586EF3
:10208600010E85EC19F0F2A64BEF10F04DEF10F0B3
:1020960068EF10F0F2A052EF10F054EF10F068EF76
:1020A60010F081B859EF10F05BEF10F068EF10F008
:1020B6005850D8A461EF10F063EF10F068EF10F0FD
:1020C600010E586E000E85EC19F0F2A66DEF10F0B9
:1020D6006FEF10F08AEF10F0F2A074EF10F076EFC9
:1020E60010F08AEF10F081AA7BEF10F07DEF10F070
:1020F6008AEF10F05704D8A483EF10F085EF10F0A4
:102106008AEF10F0000E576E010E78EC19F0F2A669
:102116008FEF10F091EF10F0ACEF10F0F2A096EF09
:1021260010F098EF10F0ACEF10F081BA9DEF10F0C0
:102136009FEF10F0ACEF10F05750D8A4A5EF10F0B9
:10214600A7EF10F0ACEF10F0010E576E000E78EC12
:1021560019F0F2A6B1EF10F0B3EF10F0CEEF10F0D9
:10216600F2A0B8EF10F0BAEF10F0CEEF10F081AC9D
:10217600BFEF10F0C1EF10F0CEEF10F05604D8A468
:10218600C7EF10F0C9EF10F0CEEF10F0000E566E4C
:10219600010E6BEC19F0F2A6D3EF10F0D5EF10F0AC
:1021A600F0EF10F0F2A0DAEF10F0DCEF10F0F0EF45
:1021B60010F081BCE1EF10F0E3EF10F0F0EF10F05B
:1021C6005650D8A4E9EF10F0EBEF10F0F0EF10F056
:1021D600010E566E000E6BEC19F0F2A6F5EF10F03C
:1021E600F7EF10F012EF11F0F2A0FCEF10F0FEEF97
:1021F60010F012EF11F081AE03EF11F005EF11F0C0
:1022060012EF11F05504D8A40BEF11F00DEF11F0F9
:1022160012EF11F0000E556E010E5EEC19F0F2A6EB
:1022260017EF11F019EF11F034EF11F0F2A01EEFD5
:1022360011F020EF11F034EF11F081BE25EF11F00F
:1022460027EF11F034EF11F05550D8A42DEF11F00F
:102256002FEF11F034EF11F0010E556E000E5EEC0B
:1022660019F09DAC39EF11F03BEF11F044EF11F08E
:102276009EAC40EF11F042EF11F044EF11F0D4ECB8
:1022860019F0F2AA49EF11F04BEF11F054EF11F0EB
:10229600F2A450EF11F052EF11F054EF11F072EC7E
:1022A60018F09DA059EF11F05BEF11F064EF11F0FB
:1022B6009EA060EF11F062EF11F064EF11F08DEC6B
:1022C60018F09DA269EF11F06BEF11F074EF11F0A9
:1022D6009EA270EF11F072EF11F074EF11F0BFECE7
:1022E60019F0A0A279EF11F07BEF11F084EF11F055
:1022F600A1A280EF11F082EF11F084EF11F0B5EC9E
:1023060019F01200010E0101206F14511511D8A405
:102316008FEF11F091EF11F095EF11F0000E206F95
:1023260087EF12F0F00EBD16BD50F00B0C09BD6E16
:10233600000E0001846F000E856F800E866F400EC2
:10234600876F010120EE05F01451D9261551DA22C6
:10235600DECF16F1DDCF17F116C126F017C127F033
:10236600286A296A000E89EC12F026C080F027C080
:1023760081F028C082F029C083F07FEC0AF080C08B
:1023860018F181C019F182C01AF183C01BF1010155
:1023960020EE07F01451D9261551DA22DF500F0B23
:1023A600166F1651266E276A286A296A010E89EC6D
:1023B60012F026C084F027C085F028C086F029C018
:1023C60087F018C180F019C181F01AC182F01BC1D3
:1023D60083F07FEC0AF080C01CF181C01DF182C041
:1023E6001EF183C01FF1000E0101046F000E056F80
:1023F600800E066FBF0E076F20EE07F01451D92628
:102406001551DA22DF38030B166F1651266E276A2E
:10241600286A296A010E89EC12F026C084F027C0CA
:1024260085F028C086F029C087F01CC180F01DC148
:1024360081F01EC182F01FC183F07FEC0AF080C0DC
:102446009DF081C09EF082C09FF083C0A0F0000E78
:102456000001996F240E9A6FF40E9B6F4A0E9C6FC3
:1024660095EC0CF099C000F19AC001F19BC002F105
:102476009CC003F103EC08F000C10CF101C10DF1A1
:1024860002C10EF103C10FF19BEC14F001010C51D6
:10249600CB6E010E1425306E000E1521316EFAEC4E
:1024A60017F0010120179D849E9420EE02F014512E
:1024B600D9261551DA22DECFEFF0DDCFF0F0D08E3F
:1024C60020EE04F01451D9261551DA22DE04D8A4E0
:1024D6006FEF12F071EF12F075EF12F0F28E9F842B
:1024E60087EF12F020EE04F01451D9261551DA22A6
:1024F600DF50D8A481EF12F083EF12F087EF12F0CD
:10250600F28C9F9487EF12F0205112002E6E2E50FF
:10251600D8B490EF12F092EF12F0B4EF12F029BE99
:1025260099EF12F097EF12F0B4EF12F026C02AF0EE
:1025360027C02BF028C02CF029C02DF02A1E2B1EF8
:102546002C1E2D1E2A2A000E2B222C222D222AC0BA
:1025560030F02BC031F02CC032F02DC033F0BCEF80
:1025660012F026C030F027C031F028C032F029C062
:1025760033F02650271028102910D8A4C5EF12F0E2
:10258600C7EF12F0D1EF12F0000E266E000E276E86
:10259600000E286E000E296E62EF13F0960E2F6E57
:1025A600DBEF12F02F2AD89033323232313230320A
:1025B600000E30142A6E000E31142B6E000E3214EB
:1025C6002C6EFE0E33142D6E2A502B102C102D104F
:1025D600D8A4F0EF12F0F2EF12F0D5EF12F000EF00
:1025E60013F02F2A010E3026000E3122322233221A
:1025F600D8903332323231323032000E30142A6EF5
:10260600000E31142B6E000E32142C6EFF0E331496
:102616002D6E2A502B102C102D10D8A415EF13F068
:1026260017EF13F0F4EF12F01FEF13F02F06D89008
:10263600303631363236333632BE24EF13F026EFDB
:1026460013F02EEF13F0020E2F602CEF13F02EEF87
:1026560013F019EF13F02FB033EF13F035EF13F03B
:1026660036EF13F0329ED8902F322FC02AF02B6A05
:102676002C6A2D6A2AC02DF02C6A2B6A2A6A2A50E7
:1026860030122B5031122C5032122D5033122E5044
:10269600D8B450EF13F052EF13F05AEF13F029BEEF
:1026A60059EF13F057EF13F05AEF13F0338E30C093
:1026B60026F031C027F032C028F033C029F01200CE
:1026C600010E2E6E26502710D8B46CEF13F06EEF65
:1026D60013F07FEF13F026C0D9FF27C0DAFFDF30F3
:1026E600E832E832070B286E070E28647DEF13F0F8
:1026F6007FEF13F0E2EF13F0000E2E6E03EF14F0EF
:1027060026C0D9FF27C0DAFFDF30E832E832070BF0
:10271600286E010E296E282A93EF13F0D8902936D9
:10272600282E91EF13F02950FF0A2A6E26C0D9FFF2
:1027360027C0DAFFDF50070B2B6E2B50020DC20E9F
:10274600F324D96E000EF420DA6EDECF2CF0DDCF46
:102756002DF02CC0D9FF2DC0DAFF2A50DF1603EF6B
:1027660014F026C0D9FF27C0DAFFDF30E832E8329E
:10277600070B286E010E296E282AC4EF13F0D89095
:102786002936282EC2EF13F026C0D9FF27C0DAFF5C
:10279600DF50070B2A6E2A50020DC20EF324D96EA3
:1027A600000EF420DA6EDECF2BF0DDCF2CF02BC03E
:1027B600D9FF2CC0DAFF2950DF1203EF14F026C030
:1027C600D9FF27C0DAFFDFBCEBEF13F0EEEF13F013
:1027D600010EEFEF13F0000E286E296A2950000A49
:1027E600D8B4F8EF13F07FEF13F02850000AD8B4EE
:1027F60083EF13F0010AD8B4B4EF13F07FEF13F0B0
:102806002E501200010E2F6E26502710D8B40EEF50
:1028160014F010EF14F021EF14F026C0D9FF27C0F2
:10282600DAFFDF30E832E832070B296E070E29643B
:102836001FEF14F021EF14F084EF14F0000E2F6E4A
:1028460099EF14F026C0D9FF27C0DAFFDF30E8324F
:10285600E832070B296E010E2A6E292A35EF14F08D
:10286600D8902A36292E33EF14F02A50FF0A2B6E01
:1028760026C0D9FF27C0DAFFDF50070B2C6E2C507D
:10288600020DB80EF324D96E000EF420DA6EDECFF8
:102896002DF0DDCF2EF02DC0D9FF2EC0DAFF2B5044
:1028A600DF1699EF14F026C0D9FF27C0DAFFDF3014
:1028B600E832E832070B296E010E2A6E292A66EFE6
:1028C60014F0D8902A36292E64EF14F026C0D9FFCA
:1028D60027C0DAFFDF50070B2B6E2B50020DB80E08
:1028E600F324D96E000EF420DA6EDECF2CF0DDCFA5
:1028F6002DF02CC0D9FF2DC0DAFF2A50DF1299EF38
:1029060014F02850296E2A6A2A50000AD8B48EEF8D
:1029160014F021EF14F02950000AD8B425EF14F072
:10292600010AD8B456EF14F021EF14F02F5012001C
:1029360001010E350F350001B76FB751D8A4A6EFC8
:1029460014F0A8EF14F0B3EF14F0000E01010C6FB1
:10295600000E0D6F000E0E6F000E0F6F29EF15F0B3
:102966000CC110F10DC111F10EC112F10FC113F11D
:10297600200EC4EF14F00101D89013331233113333
:102986001033E82EBEEF14F010510001B66F0101AE
:102996000E8FFF0E0C17FF0E0D17FF0E0E17000EF3
:1029A6000F17960E0001B75FB7BFDEEF14F0DCEF2E
:1029B60014F0F6EF14F0B751800A970FD8B0E6EF8F
:1029C60014F0E8EF14F0EAEF14F0A8EF14F00101A8
:1029D600D8900F330E330D330C330001B73FEAEFB7
:1029E60014F010EF15F01F0EB765FCEF14F0FEEFB4
:1029F60014F008EF15F0A8EF14F00101D8900C3789
:102A06000D370E370F370001B707B751D8A40EEFB1
:102A160015F010EF15F000EF15F0B651D8B416EF1B
:102A260015F018EF15F021EF15F001010F1F0E1F1D
:102A36000D1F0C6D000E0D230E230F230CC10CF180
:102A46000DC10DF10EC10EF10FC10FF11200010102
:102A56001A6F000E01011C6F000E1B6F000E0001A5
:102A66009D6F000E9E6FC80E9F6F420EA06F0101F4
:102A76001A51266E276A286A296A010E89EC12F015
:102A860026C099F027C09AF028C09BF029C09CF078
:102A960095EC0CF099C084F09AC085F09BC086F046
:102AA6009CC087F0CB500101146F156B010E1427E3
:102AB600000E152314C126F015C127F0000E27BEFF
:102AC600FF0E286E296E010E89EC12F026C080F0EA
:102AD60027C081F028C082F029C083F07FEC0AF07D
:102AE60080C016F181C017F182C018F183C019F1B8
:102AF600000E0001846F000E856F800E866F400EFB
:102B0600876F16C180F017C181F018C182F019C114
:102B160083F07FEC0AF080C00CF181C00DF182C019
:102B26000EF183C00FF19BEC14F00CC11BF10DC12B
:102B36001CF11BC114F1030E01011417143BBD5007
:102B46001419CF0B1419BD6E1BC114F11CC115F15C
:102B5600D89015331433D890153314331451BE6EF0
:102B6600010E120026502710D8A4BCEF15F0BEEFB8
:102B760015F0C2EF15F0000E296E22EF16F0CA947A
:102B860020EE04F02650D9262750DA22DF38030B30
:102B9600286ECA502818FC0B2818CA6E20EE04F0BE
:102BA6002650D9262750DA22DF500F0B286E2846EA
:102BB60028462846CA502818870B2818CA6E20EEC1
:102BC60003F02650D9262750DA22DF50CC6E20EEAD
:102BD60003F02650D9262750DA22DF504D6E9D820B
:102BE6009E9226C0D9FF27C0DAFFDECFF3F0DDCFF5
:102BF600F4F0D08E20EE02F02650D9262750DA22A5
:102C0600DE04D8A409EF16F00BEF16F00FEF16F05E
:102C1600F28E9F801FEF16F020EE02F02650D92686
:102C26002750DA22DF50D8A41BEF16F01DEF16F05E
:102C36001FEF16F0F28C9F90CA84010E296E295060
:102C4600120012501310D8B42BEF16F02DEF16F019
:102C56003EEF16F012C0D9FF13C0DAFFDF30E832BC
:102C6600E832070B146E070E14643CEF16F03EEFC5
:102C760016F040EF16F06CEF16F012C0D9FF13C035
:102C8600DAFFDF30E832E832070B146E010E156EFC
:102C9600142A50EF16F0D8901536142E4EEF16F073
:102CA60012C0D9FF13C0DAFFDF50070B166E16509D
:102CB600020DB80EF324D96E000EF420DA6EDECFC4
:102CC60017F0DDCF18F017C0D9FF18C0DAFF15507E
:102CD600DF1A120001500210D8B474EF16F076EF26
:102CE60016F087EF16F001C0D9FF02C0DAFFDF3019
:102CF600E832E832070B036E070E036485EF16F021
:102D060087EF16F089EF16F0B5EF16F001C0D9FF80
:102D160002C0DAFFDF30E832E832070B036E010E3D
:102D2600046E032A99EF16F0D8900436032E97EF17
:102D360016F001C0D9FF02C0DAFFDF50070B056E9F
:102D46000550020DB80EF324D96E000EF420DA6E8B
:102D5600DECF06F0DDCF07F006C0D9FF07C0DAFFE9
:102D66000450DF1A1200380EF66E320EF76E000EA1
:102D7600F86E01EE23F010EE1BF00900F5CFEEFF22
:102D8600E550E150FAE1840EF66E310EF76E000E54
:102D9600F86E00EEB8F010EE2DF00900F5CFEEFF5C
:102DA600E550E150FAE1860EF66E330EF76E000E30
:102DB600F86E00EE54F010EE06F00900F5CFEEFFC7
:102DC600E550E150FAE101EE3EF00B0EEE6AE80640
:102DD600FDE100EEE5F01A0EEE6AE806FDE100EE12
:102DE60035F01F0EEE6AE806FDE15A905A92000190
:102DF600CDEF17F019501A10D8A404EF17F006EF0C
:102E060017F008EF17F035EF17F04FC01CF019C098
:102E1600D9FF1AC0DAFFDF500F0B1B6E1C501B18B0
:102E2600F80B1B181C6E19C0D9FF1AC0DAFFDF3861
:102E3600070B1B6E1B461B461B461C501B18C70B5D
:102E46001B181C6E1C9C19C0D9FF1AC0DAFFDFAE16
:102E560002D01C8E01D01C9E1C0E126E000E136E2C
:102E660024EC16F0120008500910D8A43DEF17F014
:102E76003FEF17F041EF17F06EEF17F04FC00BF072
:102E860008C0D9FF09C0DAFFDF500F0B0A6E0B50DE
:102E96000A18F80B0A180B6E08C0D9FF09C0DAFF2A
:102EA600DF38070B0A6E0A460A460A460B500A180E
:102EB600C70B0A180B6E0B9C08C0D9FF09C0DAFFB6
:102EC600DFAE02D00B8E01D00B9E0B0E016E000EF4
:102ED600026E6DEC16F01200000E186E000E196EE2
:102EE60012501310D8B47AEF17F07CEF17F085EF75
:102EF60017F014501510D8A483EF17F085EF17F0CC
:102F060087EF17F09DEF17F0CECF18F0CFCF19F05F
:102F1600185019C016F0176A16C017F0166A16264A
:102F2600000E172214C0D9FF15C0DAFF16C0DEFF47
:102F360017C0DDFF1200000E076E000E086E01506E
:102F46000210D8B4A9EF17F0ABEF17F0B4EF17F0F3
:102F560003500410D8A4B2EF17F0B4EF17F0B6EF91
:102F660017F0CCEF17F0CECF07F0CFCF08F0075011
:102F760008C005F0066A05C006F0056A0526000EBB
:102F8600062203C0D9FF04C0DAFF05C0DEFF06C073
:102F9600DDFF12000EEC19F0550E2AEC15F09EEC32
:102FA60019F0000E0101226F010E216F21512AEC4A
:102FB60015F00D0E346EFC0EE82EFED7342EFCD71F
:102FC600050E01012127000E222322BFF4EF17F080
:102FD600225109E1650E215DD8A0F4EF17F0F6EF56
:102FE60017F0D9EF17F0D4EF17F035EF00F03050A7
:102FF6003110D8A401EF18F003EF18F007EF18F01E
:10300600000E326E1DEF18F030C026F031C027F0EA
:1030160063EC13F0326E30C026F031C027F030C0BA
:10302600D9FF31C0DAFF000EDFBE010E286E05ECB7
:1030360014F03216325012000600FACF0CF0FBCF15
:103046000DF0D9CF0EF0DACF0FF0F3CF10F0F4CFAA
:1030560011F0F4EC0FF011C0F4FF10C0F3FF0FC035
:10306600DAFF0EC0D9FF0DC0FBFF0CC0FAFF5A9263
:103076001100F2943C50D76E3BC0D6FF3D503E1037
:10308600D8B448EF18F04AEF18F056EF18F002D807
:1030960056EF18F00500FA6E3D50FD6E3E50FE6E7E
:1030A600FF6AFA50120012009E903850CF6E37C059
:1030B600CEFF39503A10D8B463EF18F065EF18F028
:1030C60071EF18F002D871EF18F00500FA6E39505A
:1030D600FD6E3A50FE6EFF6AFA5012001200F2942C
:1030E6003C50D76E3BC0D6FF3D503E10D8B47EEF65
:1030F60018F080EF18F08CEF18F002D88CEF18F06B
:103106000500FA6E3D50FD6E3E50FE6EFF6AFA50A7
:10311600120012009E903850CF6E37C0CEFF395045
:103126003A10D8B499EF18F09BEF18F0A7EF18F003
:1031360002D8A7EF18F00500FA6E3950FD6E3A5026
:10314600FE6EFF6AFA50120012005AA2ADEF18F096
:10315600D9EF18F0DA0E126E000E136E530E146EBF
:10316600000E156E6FEC17F0DA0E126E000E136E6F
:10317600000E156E000E146EEEEC18F01200890F9C
:103186008A0F8B0F8C0F8D0F920F930F940F950F45
:10319600960F020A121A222A0212000000204E116D
:0B31A6002433010000240000010000A1
:1031B200DA0E016E000E026E530E036E000E046EE6
:1031C2009EEC17F0DA0E016E000E026E000E046E17
:1031D200000E036EFEEC18F0120012501310D8A469
:1031E200F5EF18F0F7EF18F0F9EF18F0FDEF18F01F
:1031F2001550CF6E14C0CEFF120001500210D8A499
:1032020005EF19F007EF19F009EF19F00DEF19F0BA
:103212000450CF6E03C0CEFF1200E00E266E000EE9
:10322200276EB5EC15F0D20E0101146F000E156F6A
:1032320085EC11F01200800F810F820F830F840F33
:10324200323A030B131B232B333B50310104DC0BAB
:013252000774
:10325400126EF2901250D8A432EF19F034EF19F034
:1032640036EF19F036EF19F01200126EF290125088
:10327400D8A43FEF19F041EF19F043EF19F043EFF1
:1032840019F01200126EF2901250D8A44CEF19F0FB
:103294004EEF19F050EF19F050EF19F01200126EC2
:1032A400F2901250D8A459EF19F05BEF19F05DEFCA
:1032B40019F05DEF19F01200016EF2900150D8A4DC
:1032C40066EF19F068EF19F06AEF19F06AEF19F078
:1032D4001200016EF2900150D8A473EF19F075EF4B
:1032E40019F077EF19F077EF19F01200016EF290F0
:1032F4000150D8A480EF19F082EF19F084EF19F08F
:1033040084EF19F01200016EF2900150D8A48DEFF1
:1033140019F08FEF19F091EF19F091EF19F01200F5
:103324005AA297EF19F0A8EF19F0590E196E000E72
:103334001A6EFDEC16F01200000E266EBD50F00B56
:103344000C09BD6E010E266E010E1200590E086E98
:10335400000E096E36EC17F01200A1923650B36ECF
:1033640035C0B2FF1200A1923650B36E35C0B2FF21
:1033740012009E924DC0CCFF12009E924DC0CCFF15
:103384001200720101010162F0921200F090120029
:10339400F29212009E9C1200F0921200F090120021
:0833A400F29212009E9C12003F
:020000040020DA
:08000000FFFFFFFFFFFFFFFF00
:020000040030CA
:0E000000FF02091EFF8181FF0FC00FE00F40BD
:00000001FF
