:040000001DEF00F000
:060008007A82C4ED0FF046
:100018007A80D8CF65F0E8CF66F0E0CF67F003ECE0
:1000280008F067C0E0FF66C0E8FF65C0D8FF7A90B7
:0600380010002CEF0EF099
:0510000000256900005D
:10100600F2A808EF08F00AEF08F013EF08F0F2A2D2
:101016000FEF08F011EF08F013EF08F0CDEC0FF02A
:10102600F0A618EF08F01AEF08F023EF08F0F0A08A
:101036001FEF08F021EF08F023EF08F0CBEC0FF0DC
:10104600F0A828EF08F02AEF08F033EF08F0F0A236
:101056002FEF08F031EF08F033EF08F0C9EC0FF08E
:10106600F2A638EF08F03AEF08F055EF08F0F2A0D4
:101076003FEF08F041EF08F055EF08F081A846EF82
:1010860008F048EF08F055EF08F05C04D8A44EEFDE
:1010960008F050EF08F055EF08F0000E5C6E010EF8
:1010A60072EC0FF0F2A65AEF08F05CEF08F077EF5B
:1010B60008F0F2A061EF08F063EF08F077EF08F0B0
:1010C60081B868EF08F06AEF08F077EF08F05C5037
:1010D600D8A470EF08F072EF08F077EF08F0010E71
:1010E6005C6E000E72EC0FF0F2A67CEF08F07EEF5D
:1010F60008F099EF08F0F2A083EF08F085EF08F00A
:1011060099EF08F081AA8AEF08F08CEF08F099EFC2
:1011160008F05B04D8A492EF08F094EF08F099EF7A
:1011260008F0000E5B6E010E65EC0FF0F2A69EEF66
:1011360008F0A0EF08F0BBEF08F0F2A0A5EF08F06A
:10114600A7EF08F0BBEF08F081BAACEF08F0AEEFFE
:1011560008F0BBEF08F05B50D8A4B4EF08F0B6EF88
:1011660008F0BBEF08F0010E5B6E000E65EC0FF0A9
:10117600F2A6C0EF08F0C2EF08F0DDEF08F0F2A02B
:10118600C7EF08F0C9EF08F0DDEF08F081ACCEEF4D
:1011960008F0D0EF08F0DDEF08F05A04D8A4D6EF37
:1011A60008F0D8EF08F0DDEF08F0000E5A6E010ED9
:1011B60058EC0FF0F2A6E2EF08F0E4EF08F0FFEFCC
:1011C60008F0F2A0E9EF08F0EBEF08F0FFEF08F007
:1011D60081BCF0EF08F0F2EF08F0FFEF08F05A508C
:1011E600D8A4F8EF08F0FAEF08F0FFEF08F0010EC8
:1011F6005A6E000E58EC0FF0F2A604EF09F006EF57
:1012060009F021EF09F0F2A00BEF09F00DEF09F05C
:1012160021EF09F081AE12EF09F014EF09F021EF8A
:1012260009F05904D8A41AEF09F01CEF09F021EFD0
:1012360009F0000E596E010E4BEC0FF0F2A626EFE8
:1012460009F028EF09F043EF09F0F2A02DEF09F0BD
:101256002FEF09F043EF09F081BE34EF09F036EFC6
:1012660009F043EF09F05950D8A43CEF09F03EEFDE
:1012760009F043EF09F0010E596E000E4BEC0FF02A
:101286009DAC48EF09F04AEF09F053EF09F09EAC28
:101296004FEF09F051EF09F053EF09F0CFEC0FF0E3
:1012A600F2AA58EF09F05AEF09F063EF09F0F2A439
:1012B6005FEF09F061EF09F063EF09F0B3EC0FF0AF
:1012C6001200F2A869EF09F06BEF09F074EF09F06C
:1012D600F2A270EF09F072EF09F074EF09F0D5ECA5
:1012E6000FF0F0A679EF09F07BEF09F084EF09F033
:1012F600F0A080EF09F082EF09F084EF09F0D3EC5B
:101306000FF0F0A889EF09F08BEF09F094EF09F0E0
:10131600F0A290EF09F092EF09F094EF09F0D1EC0A
:101326000FF0F2A699EF09F09BEF09F0B6EF09F07E
:10133600F2A0A0EF09F0A2EF09F0B6EF09F081A83C
:10134600A7EF09F0A9EF09F0B6EF09F05C04D8A4FD
:10135600AFEF09F0B1EF09F0B6EF09F0000E5C6EE1
:10136600010EA6EC0FF0F2A6BBEF09F0BDEF09F0F7
:10137600D8EF09F0F2A0C2EF09F0C4EF09F0D8EFF8
:1013860009F081B8C9EF09F0CBEF09F0D8EF09F001
:101396005C50D8A4D1EF09F0D3EF09F0D8EF09F0EB
:1013A600010E5C6E000EA6EC0FF0F2A6DDEF09F062
:1013B600DFEF09F0FAEF09F0F2A0E4EF09F0E6EF4B
:1013C60009F0FAEF09F081AAEBEF09F0EDEF09F069
:1013D600FAEF09F05B04D8A4F3EF09F0F5EF09F092
:1013E600FAEF09F0000E5B6E010E99EC0FF0F2A613
:1013F600FFEF09F001EF0AF01CEF0AF0F2A006EF8A
:101406000AF008EF0AF01CEF0AF081BA0DEF0AF0B5
:101416000FEF0AF01CEF0AF05B50D8A415EF0AF0A4
:1014260017EF0AF01CEF0AF0010E5B6E000E99EC46
:101436000FF0F2A621EF0AF023EF0AF03EEF0AF0D2
:10144600F2A028EF0AF02AEF0AF03EEF0AF081AC8C
:101456002FEF0AF031EF0AF03EEF0AF05A04D8A453
:1014660037EF0AF039EF0AF03EEF0AF0000E5A6E37
:10147600010E8CEC0FF0F2A643EF0AF045EF0AF0EE
:1014860060EF0AF0F2A04AEF0AF04CEF0AF060EFC4
:101496000AF081BC51EF0AF053EF0AF060EF0AF050
:1014A6005A50D8A459EF0AF05BEF0AF060EF0AF041
:1014B600010E5A6E000E8CEC0FF0F2A665EF0AF0E4
:1014C60067EF0AF082EF0AF0F2A06CEF0AF06EEF17
:1014D6000AF082EF0AF081AE73EF0AF075EF0AF0B8
:1014E60082EF0AF05904D8A47BEF0AF07DEF0AF0E8
:1014F60082EF0AF0000E596E010E7FEC0FF0F2A695
:1015060087EF0AF089EF0AF0A4EF0AF0F2A08EEF57
:101516000AF090EF0AF0A4EF0AF081BE95EF0AF008
:1015260097EF0AF0A4EF0AF05950D8A49DEF0AF0FD
:101536009FEF0AF0A4EF0AF0010E596E000E7FEC41
:101546000FF09DACA9EF0AF0ABEF0AF0B4EF0AF08A
:101556009EACB0EF0AF0B2EF0AF0B4EF0AF0D7ECA7
:101566000FF0F2AAB9EF0AF0BBEF0AF0C4EF0AF0E7
:10157600F2A4C0EF0AF0C2EF0AF0C4EF0AF0B9EC29
:101586000FF0120005EC0FF05F0E726E000E736E18
:10159600330E746E000E756EB9EC0CF05D0E726E45
:1015A600000E736E340E746E000E756EB9EC0CF090
:1015B6003304D8A4E1EF0AF0E3EF0AF0F4EF0AF0FF
:1015C600114A122AF50E115C010E1258D8A0EEEF40
:1015D6000AF0F0EF0AF0FAEF0AF0010E2E6EFAEFBB
:1015E6000AF0000E126E000E116E000E2E6E2D50B9
:1015F6002E18D8B401EF0BF003EF0BF041EF0BF010
:101606002EC02DF02E04D8A40BEF0BF00DEF0BF02F
:1016160041EF0BF0030E2B18D8A414EF0BF016EFC6
:101626000BF018EF0BF0000E2B6E2B2A27EF0BF0AA
:10163600E2EC0EF041EF0BF08DEC0EF041EF0BF00B
:101646005DEC0EF041EF0BF02B500001956F966BA1
:101656009651000AD8B432EF0BF041EF0BF09551DA
:10166600010AD8B41BEF0BF0030AD8B41FEF0BF036
:10167600010AD8B423EF0BF041EF0BF03404D8A4E1
:1016860047EF0BF049EF0BF05DEF0BF02C50D8A4B1
:101696004FEF0BF051EF0BF05DEF0BF0610E726E3A
:1016A600000E736EB6EC0DF00F4A102A010E2C6E6A
:1016B600C7EF0AF03404D8A463EF0BF065EF0BF024
:1016C60079EF0BF02C04D8A46BEF0BF06DEF0BF059
:1016D60079EF0BF00F4A102A610E726E000E736ED0
:1016E600F1EC0DF0000E2C6EC7EF0AF0000E106E36
:1016F600000E0F6EC7EF0AF01DEF00F0010E706EC0
:1017060068506910D8B48AEF0BF08CEF0BF09DEFA0
:101716000BF068C0D9FF69C0DAFFDF30E832E83283
:10172600070B6A6E070E6A649BEF0BF09DEF0BF0DA
:1017360000EF0CF0000E706E21EF0CF068C0D9FFC0
:1017460069C0DAFFDF30E832E832070B6A6E010E55
:101756006B6E6A2AB1EF0BF0D8906B366A2EAFEF3C
:101766000BF06B50FF0A6C6E68C0D9FF69C0DAFFD8
:10177600DF50070B6D6E6D50020D490EF324D96EC6
:10178600000EF420DA6EDECF6EF0DDCF6FF06EC0A5
:10179600D9FF6FC0DAFF6C50DF1621EF0CF068C07E
:1017A600D9FF69C0DAFFDF30E832E832070B6A6E2C
:1017B600010E6B6E6A2AE2EF0BF0D8906B366A2E3A
:1017C600E0EF0BF068C0D9FF69C0DAFFDF50070B06
:1017D6006C6E6C50020D490EF324D96E000EF42087
:1017E600DA6EDECF6DF0DDCF6EF06DC0D9FF6EC064
:1017F600DAFF6B50DF1221EF0CF068C0D9FF69C029
:10180600DAFFDFBC09EF0CF00CEF0CF0010E0DEF68
:101816000CF0000E6A6E6B6A6B50000AD8B416EFB5
:101826000CF09DEF0BF06A50000AD8B4A1EF0BF054
:10183600010AD8B4D2EF0BF09DEF0BF070501200F6
:10184600010E716E68506910D8B42CEF0CF02EEFB3
:101856000CF03FEF0CF068C0D9FF69C0DAFFDF304B
:10186600E832E832070B6B6E070E6B643DEF0CF047
:101876003FEF0CF0A2EF0CF0000E716EB7EF0CF01C
:1018860068C0D9FF69C0DAFFDF30E832E832070BFB
:101896006B6E010E6C6E6B2A53EF0CF0D8906C36A3
:1018A6006B2E51EF0CF06C50FF0A6D6E68C0D9FFBD
:1018B60069C0DAFFDF50070B6E6E6E50020D3F0EE9
:1018C600F324D96E000EF420DA6EDECF6FF0DDCF92
:1018D60070F06FC0D9FF70C0DAFF6D50DF16B7EF3A
:1018E6000CF068C0D9FF69C0DAFFDF30E832E832B1
:1018F600070B6B6E010E6C6E6B2A84EF0CF0D890A2
:101906006C366B2E82EF0CF068C0D9FF69C0DAFF27
:10191600DF50070B6D6E6D50020D3F0EF324D96E2E
:10192600000EF420DA6EDECF6EF0DDCF6FF06EC003
:10193600D9FF6FC0DAFF6C50DF12B7EF0CF06A50B8
:101946006B6E6C6A6C50000AD8B4ACEF0CF03FEFCB
:101956000CF06B50000AD8B443EF0CF0010AD8B46F
:1019660074EF0CF03FEF0CF071501200000E786E21
:1019760072507310D8B4C2EF0CF0C4EF0CF0CDEF78
:101986000CF074507510D8A4CBEF0CF0CDEF0CF022
:10199600D1EF0CF0000E776E1AEF0DF072C068F002
:1019A60073C069F0780E6A6E000E6B6E1CEC0DF05B
:1019B60020EE01F07250D9267350DA22DE04D8A444
:1019C600E7EF0CF0E9EF0CF000EF0DF07804D8A487
:1019D600EFEF0CF0F1EF0CF0F9EF0CF074C0D9FF5B
:1019E60075C0DAFF010EDF6E18EF0DF074C0D9FF77
:1019F60075C0DAFFDF6A18EF0DF020EE01F07250C5
:101A0600D9267350DA22DF50D8A40CEF0DF00EEF72
:101A16000DF018EF0DF07804D8A414EF0DF016EFC2
:101A26000DF0F1EF0CF0F9EF0CF0010E776E775038
:101A36001200010E716E68506910D8B425EF0DF0D2
:101A460027EF0DF041EF0DF06A506B10D8B42EEF72
:101A56000DF030EF0DF041EF0DF068C0D9FF69C011
:101A6600DAFFDF30E832E832070B6C6E070E6C6483
:101A76003FEF0DF041EF0DF045EF0DF0000E716EEA
:101A860076EF0DF068C0D9FF69C0DAFFDF30E832C3
:101A9600E832070B6C6E68C0D9FF69C0DAFFDF5009
:101AA600070B6D6E6D50020D350EF324D96E000EC8
:101AB600F420DA6EDECF6EF0DDCF6FF06EC0D9FFA8
:101AC6006FC0DAFFDF50706E6C2A6CEF0DF0D890A5
:101AD60070326C2E6AEF0DF07050010B6AC0D9FFA0
:101AE6006BC0DAFFDF6E71501200010E786E755012
:101AF6007610D8A481EF0DF083EF0DF087EF0DF08F
:101B0600000E786EB4EF0DF032C079F075C0D9FFD3
:101B160076C0DAFFDF500F0B776E79507718F80B27
:101B26007718796E75C0D9FF76C0DAFFDF38070BF4
:101B3600776E77467746774679507718C70B7718CA
:101B4600796E799C75C0D9FF76C0DAFFDFAE02D018
:101B5600798E01D0799E790E726E000E736EBDEC91
:101B66000EF07850120072507310D8A4BDEF0DF02D
:101B7600BFEF0DF0C1EF0DF0F0EF0DF031C075F0D5
:101B860072C0D9FF73C0DAFFDF500F0B746E755049
:101B96007418F80B7418756E72C0D9FF73C0DAFF2B
:101BA600DF38070B746E74467446744675507418A5
:101BB600C70B7418756E759C72C0D9FF73C0DAFFB7
:101BC600DFAE02D0758E01D0759E750E686E000E62
:101BD600696E010E6A6E23EC0CF0120072507310DF
:101BE600D8A4F8EF0DF0FAEF0DF0FCEF0DF02BEFA7
:101BF6000EF030C075F072C0D9FF73C0DAFFDF5047
:101C06000F0B746E75507418F80B7418756E72C0DD
:101C1600D9FF73C0DAFFDF38070B746E744674465B
:101C2600744675507418C70B7418756E759C72C01F
:101C3600D9FF73C0DAFFDFAE02D0758E01D0759E74
:101C4600750E686E000E696E000E6A6E23EC0CF05F
:101C560012007E0EF66E1F0EF76E000EF86E00EE88
:101C66008BF010EE0AF00900F5CFEEFFE550E150DB
:101C7600FAE13C0EF66E1E0EF76E000EF86E00EEE2
:101C860035F010EE2EF00900F5CFEEFFE550E150ED
:101C9600FAE100EE80F00B0EEE6AE806FDE100EEDA
:101CA60001F0340EEE6AE806FDE17A907A920001C0
:101CB600C5EF0AF0000E786E000E786E620E726E38
:101CC600000E736EB6EC0DF0060E776E130E766E82
:101CD600AE0EE82EFED7762EFCD7772EFAD7620EFA
:101CE600726E000E736EF1EC0DF0060E776E130E2B
:101CF600766EAE0EE82EFED7762EFCD7772EFAD766
:101D0600782A020E78648AEF0EF08CEF0EF061EFFF
:101D16000EF01200000E786E000E786E620E726E75
:101D2600000E736EB6EC0DF0060E776E130E766E21
:101D3600AE0EE82EFED7762EFCD7772EFAD7620E99
:101D4600726E000E736EF1EC0DF0060E776E130ECA
:101D5600766EAE0EE82EFED7762EFCD7772EFAD705
:101D6600782A010E7864BAEF0EF0BCEF0EF091EF10
:101D76000EF0120072507310D8A4C4EF0EF0C6EF26
:101D86000EF0CAEF0EF0000E746EE0EF0EF072C0A9
:101D960068F073C069F081EC0BF0746E72C068F085
:101DA60073C069F072C0D9FF73C0DAFF000EDFBEE0
:101DB600010E6A6E23EC0CF0741674501200620E5B
:101DC600726E000E736EB6EC0DF0060E776E130E85
:101DD600766EAE0EE82EFED7762EFCD7772EFAD785
:101DE600620E726E000E736EF1EC0DF0060E776EDB
:101DF600130E766EAE0EE82EFED7762EFCD7772E15
:101E0600FAD712005F0E716E000E726E35EC0FF08F
:101E16005D0E716E000E726E35EC0FF0620E756E11
:101E2600000E766E78EC0DF0610E756E000E766E15
:101E360078EC0DF01200800F810F820F830F840F54
:101E4600890F8A0F8B0F8C0F8D0F920F930F940FA4
:101E5600950F960F020A121A222A010101015A0051
:101E66005201120271507210D8A43CEF0FF03EEFEF
:101E76000FF042EF0FF0000E736E49EF0FF071C0D6
:101E860068F072C069F081EC0BF0736E735012004B
:101E9600646EF2906450D8A453EF0FF055EF0FF034
:101EA60057EF0FF057EF0FF01200646EF290645088
:101EB600D8A460EF0FF062EF0FF064EF0FF064EF5D
:101EC6000FF01200646EF2906450D8A46DEF0FF01C
:101ED6006FEF0FF071EF0FF071EF0FF01200646EFD
:101EE600F2906450D8A47AEF0FF07CEF0FF07EEFFB
:101EF6000FF07EEF0FF01200636EF2906350D8A4DD
:101F060087EF0FF089EF0FF08BEF0FF08BEF0FF0ED
:101F16001200636EF2906350D8A494EF0FF096EF20
:101F26000FF098EF0FF098EF0FF01200636EF2903B
:101F36006350D8A4A1EF0FF0A3EF0FF0A5EF0FF0B9
:101F4600A5EF0FF01200636EF2906350D8A4AEEFC7
:101F56000FF0B0EF0FF0B2EF0FF0B2EF0FF012008C
:101F6600F2940C50D76E0BC0D6FF1200F2940C50B0
:101F7600D76E0BC0D6FF1200323A030B131B232B6E
:101F8600333B060064EC09F07A921100F0921200DD
:101F9600F0901200F29212009E9C1200F092120033
:0C1FA600F0901200F29212009E9C1200BB
:020000040020DA
:08000000FFFFFFFFFFFFFFFF00
:020000040030CA
:0E000000FF02091EFF8181FF0FC00FE00F40BD
:00000001FF
