:040000002DEF00F0F0
:060008006C82C2ED10F055
:100018006C80D8CF55F0E8CF56F0E0CF57F0FACF44
:1000280058F0FBCF59F0D9CF5AF0DACF5BF006EC95
:1000380008F05BC0DAFF5AC0D9FF59C0FBFF58C0AF
:10004800FAFF57C0E0FF56C0E8FF55C0D8FF6C90D4
:060058001000C9EF0DF0DD
:101000000041484D45440D0025690000F2A80BEF52
:1010100008F00DEF08F016EF08F0F2A212EF08F05A
:1010200014EF08F016EF08F031EC12F0F0A61BEF09
:1010300008F01DEF08F026EF08F0F0A022EF08F00E
:1010400024EF08F026EF08F02FEC12F0F0A82BEFB9
:1010500008F02DEF08F036EF08F0F0A232EF08F0BC
:1010600034EF08F036EF08F02DEC12F0F2A63BEF6B
:1010700008F03DEF08F058EF08F0F2A042EF08F05A
:1010800044EF08F058EF08F081A849EF08F04BEF63
:1010900008F058EF08F06A04D8A451EF08F053EFB5
:1010A00008F058EF08F0000E6A6E010E9DEC11F08A
:1010B000F2A65DEF08F05FEF08F07AEF08F0F2A01B
:1010C00064EF08F066EF08F07AEF08F081B86BEF94
:1010D00008F06DEF08F07AEF08F06A50D8A473EFCB
:1010E00008F075EF08F07AEF08F0010E6A6E000E56
:1010F0009DEC11F0F2A67FEF08F081EF08F09CEF75
:1011000008F0F2A086EF08F088EF08F09CEF08F0F6
:1011100081AA8DEF08F08FEF08F09CEF08F06904CA
:10112000D8A495EF08F097EF08F09CEF08F0000EB8
:10113000696E010E90EC11F0F2A6A1EF08F0A3EF9A
:1011400008F0BEEF08F0F2A0A8EF08F0AAEF08F050
:10115000BEEF08F081BAAFEF08F0B1EF08F0BEEFD4
:1011600008F06950D8A4B7EF08F0B9EF08F0BEEF67
:1011700008F0010E696E000E90EC11F0F2A6C3EFBC
:1011800008F0C5EF08F0E0EF08F0F2A0CAEF08F0B1
:10119000CCEF08F0E0EF08F081ACD1EF08F0D3EF2E
:1011A00008F0E0EF08F06804D8A4D9EF08F0DBEF0E
:1011B00008F0E0EF08F0000E686E010E83EC11F00D
:1011C000F2A6E5EF08F0E7EF08F002EF09F0F2A071
:1011D000ECEF08F0EEEF08F002EF09F081BCF3EF5E
:1011E00008F0F5EF08F002EF09F06850D8A4FBEF23
:1011F00008F0FDEF08F002EF09F0010E686E000E36
:1012000083EC11F0F2A607EF09F009EF09F024EFE3
:1012100009F0F2A00EEF09F010EF09F024EF09F049
:1012200081AE15EF09F017EF09F024EF09F067041C
:10123000D8A41DEF09F01FEF09F024EF09F0000E0C
:10124000676E010E76EC11F0F2A629EF09F02BEF94
:1012500009F046EF09F0F2A030EF09F032EF09F0A3
:1012600046EF09F081BE37EF09F039EF09F046EF9C
:1012700009F06750D8A43FEF09F041EF09F046EFBD
:1012800009F0010E676E000E76EC11F09DAC4BEF8D
:1012900009F04DEF09F056EF09F09EAC52EF09F05E
:1012A00054EF09F056EF09F033EC12F0F2AA5BEFBD
:1012B00009F05DEF09F066EF09F0F2A462EF09F0C2
:1012C00064EF09F066EF09F07EEC0FF09DA06BEF84
:1012D00009F06DEF09F076EF09F09EA072EF09F0CA
:1012E00074EF09F076EF09F019EC12F09DA27BEF94
:1012F00009F07DEF09F086EF09F09EA282EF09F078
:1013000084EF09F086EF09F025EC12F0A0A28BEF34
:1013100009F08DEF09F096EF09F0A1A292EF09F024
:1013200094EF09F096EF09F099EC0FF09DA49BEF74
:1013300009F09DEF09F0A6EF09F09EA4A2EF09F0D5
:10134000A4EF09F0A6EF09F07DEC10F09DA8ABEF3B
:1013500009F0ADEF09F0B6EF09F09EA8B2EF09F081
:10136000B4EF09F0B6EF09F066EC10F09DAABBEF00
:1013700009F0BDEF09F0C6EF09F09EAAC2EF09F02F
:10138000C4EF09F0C6EF09F036EC10F01200F2A835
:10139000CCEF09F0CEEF09F0D7EF09F0F2A2D3EFCE
:1013A00009F0D5EF09F0D7EF09F039EC12F0F0A60B
:1013B000DCEF09F0DEEF09F0E7EF09F0F0A0E3EF72
:1013C00009F0E5EF09F0E7EF09F037EC12F0F0A8CB
:1013D000ECEF09F0EEEF09F0F7EF09F0F0A2F3EF10
:1013E00009F0F5EF09F0F7EF09F035EC12F0F2A68D
:1013F000FCEF09F0FEEF09F019EF0AF0F2A003EF9D
:101400000AF005EF0AF019EF0AF081A80AEF0AF0D6
:101410000CEF0AF019EF0AF06A04D8A412EF0AF0F0
:1014200014EF0AF019EF0AF0000E6A6E010EDEECFE
:1014300011F0F2A61EEF0AF020EF0AF03BEF0AF0DF
:10144000F2A025EF0AF027EF0AF03BEF0AF081B88F
:101450002CEF0AF02EEF0AF03BEF0AF06A50D8A406
:1014600034EF0AF036EF0AF03BEF0AF0010E6A6E35
:10147000000EDEEC11F0F2A640EF0AF042EF0AF0A7
:101480005DEF0AF0F2A047EF0AF049EF0AF05DEFD6
:101490000AF081AA4EEF0AF050EF0AF05DEF0AF071
:1014A0006904D8A456EF0AF058EF0AF05DEF0AF08D
:1014B000000E696E010ED1EC11F0F2A662EF0AF097
:1014C00064EF0AF07FEF0AF0F2A069EF0AF06BEF29
:1014D0000AF07FEF0AF081BA70EF0AF072EF0AF0BB
:1014E0007FEF0AF06950D8A478EF0AF07AEF0AF09B
:1014F0007FEF0AF0010E696E000ED1EC11F0F2A63A
:1015000084EF0AF086EF0AF0A1EF0AF0F2A08BEF69
:101510000AF08DEF0AF0A1EF0AF081AC92EF0AF029
:1015200094EF0AF0A1EF0AF06804D8A49AEF0AF049
:101530009CEF0AF0A1EF0AF0000E686E010EC4ECF9
:1015400011F0F2A6A6EF0AF0A8EF0AF0C3EF0AF036
:10155000F2A0ADEF0AF0AFEF0AF0C3EF0AF081BCE2
:10156000B4EF0AF0B6EF0AF0C3EF0AF06850D8A45F
:10157000BCEF0AF0BEEF0AF0C3EF0AF0010E686E8E
:10158000000EC4EC11F0F2A6C8EF0AF0CAEF0AF0A0
:10159000E5EF0AF0F2A0CFEF0AF0D1EF0AF0E5EFA5
:1015A0000AF081AED6EF0AF0D8EF0AF0E5EF0AF0C4
:1015B0006704D8A4DEEF0AF0E0EF0AF0E5EF0AF0E6
:1015C000000E676E010EB7EC11F0F2A6EAEF0AF01A
:1015D000ECEF0AF007EF0BF0F2A0F1EF0AF0F3EFF7
:1015E0000AF007EF0BF081BEF8EF0AF0FAEF0AF00D
:1015F00007EF0BF06750D8A400EF0BF002EF0BF0F1
:1016000007EF0BF0010E676E000EB7EC11F09DAC0A
:101610000CEF0BF00EEF0BF017EF0BF09EAC13EF8F
:101620000BF015EF0BF017EF0BF03BEC12F0F2AAFA
:101630001CEF0BF01EEF0BF027EF0BF0F2A423EFE3
:101640000BF025EF0BF027EF0BF0B4EC0FF09DA0A3
:101650002CEF0BF02EEF0BF037EF0BF09EA033EFDB
:101660000BF035EF0BF037EF0BF01FEC12F09DA2F3
:101670003CEF0BF03EEF0BF047EF0BF09EA243EF79
:101680000BF045EF0BF047EF0BF029EC12F0A0A2A6
:101690004CEF0BF04EEF0BF057EF0BF0A1A253EF16
:1016A0000BF055EF0BF057EF0BF0CFEC0FF09DA4C4
:1016B0005CEF0BF05EEF0BF067EF0BF09EA463EFB7
:1016C0000BF065EF0BF067EF0BF0ABEC10F09DA8A3
:1016D0006CEF0BF06EEF0BF077EF0BF09EA873EF53
:1016E0000BF075EF0BF077EF0BF094EC10F09DAA78
:1016F0007CEF0BF07EEF0BF087EF0BF09EAA83EFF1
:101700000BF085EF0BF087EF0BF04EEC10F01200B2
:101710000001F251F311D8A490EF0BF092EF0BF00F
:1017200096EF0BF0000EF56F3FEF0CF0C69A949A0F
:1017300020EE03F0F251D926F351DA22DF50D8A47B
:10174000A4EF0BF0A6EF0BF0AAEF0BF09496929A91
:10175000BAEF0BF020EE03F0F251D926F351DA2262
:10176000DE04D8A4B6EF0BF0B8EF0BF0BAEF0BF035
:101770009486928AF2C0D9FFF3C0DAFFDF50F46F8B
:10178000F43BC650F419EF0BF419C66E20EE01F0CD
:10179000F251D926F351DA22DF50F46FF43BF447CB
:1017A000F447C750F419BF0BF419C76E20EE03F0CD
:1017B000F251D926F351DA22DF50D8A4E2EF0BF030
:1017C000E4EF0BF0F5EF0BF020EE02F0F251D9262A
:1017D000F351DA22DF50F46FF433F433C750F419C5
:1017E0007F0BF419C76E04EF0CF020EE03F0F251FA
:1017F000D926F351DA22DE04D8A401EF0CF003EF6E
:101800000CF004EF0CF0C79E20EE03F0F251D92645
:10181000F351DA22DF50D8A410EF0CF012EF0CF0E5
:1018200021EF0CF020EE04F0F251D926F351DA2228
:10183000DF50F46FC650F419F00BF419C66E3CEF8C
:101840000CF020EE03F0F251D926F351DA22DE0437
:10185000D8A42DEF0CF02FEF0CF03CEF0CF020EEA5
:1018600005F0F251D926F351DA22DF50F46FC65059
:10187000F419F00BF419C66EC68A010EF56FF55116
:101880001200010E0001FA6FF251F311D8B44BEFC0
:101890000CF04DEF0CF05EEF0CF0F2C0D9FFF3C08E
:1018A000DAFFDF30E832E832070BF46F070EF46539
:1018B0005CEF0CF05EEF0CF0C3EF0CF0000EFA6F73
:1018C000E4EF0CF0F2C0D9FFF3C0DAFFDF30E8320A
:1018D000E832070BF46F010EF56FF42B72EF0CF08A
:1018E000D890F537F42F70EF0CF00001F551FF0A96
:1018F000F66FF2C0D9FFF3C0DAFFDF50070BF76FC6
:10190000F751020D8A0EF324D96E000EF420DA6E20
:10191000DECFF8F0DDCFF9F0F8C0D9FFF9C0DAFF7B
:10192000F651DF16E4EF0CF0F2C0D9FFF3C0DAFF96
:10193000DF30E832E832070BF46F010EF56FF42B5D
:10194000A4EF0CF0D890F537F42FA2EF0CF0F2C012
:10195000D9FFF3C0DAFFDF50070B0001F66FF65135
:10196000020D8A0EF324D96E000EF420DA6EDECF5B
:10197000F7F0DDCFF8F0F7C0D9FFF8C0DAFFF55186
:10198000DF12E4EF0CF0F2C0D9FFF3C0DAFFDFBCE6
:10199000CCEF0CF0CFEF0CF0010ED0EF0CF0000EFE
:1019A000F46FF56BF551000AD8B4D9EF0CF05EEF87
:1019B0000CF0F451000AD8B462EF0CF0010AD8B46C
:1019C00094EF0CF05EEF0CF0FA511200010E0001E2
:1019D000FB6FF251F311D8B4F0EF0CF0F2EF0CF012
:1019E00003EF0DF0F2C0D9FFF3C0DAFFDF30E832C9
:1019F000E832070BF56F070EF56501EF0DF003EF09
:101A00000DF068EF0DF0000EFB6F7DEF0DF0F2C0F2
:101A1000D9FFF3C0DAFFDF30E832E832070BF56FA9
:101A2000010EF66FF52B17EF0DF0D890F637F52F66
:101A300015EF0DF00001F651FF0AF76FF2C0D9FF64
:101A4000F3C0DAFFDF50070BF86FF851020D5C0EA0
:101A5000F324D96E000EF420DA6EDECFF9F0DDCF7C
:101A6000FAF0F9C0D9FFFAC0DAFFF751DF167DEFBF
:101A70000DF0F2C0D9FFF3C0DAFFDF30E832E83210
:101A8000070BF56F010EF66FF52B49EF0DF0D890AF
:101A9000F637F52F47EF0DF0F2C0D9FFF3C0DAFFAC
:101AA000DF50070B0001F76FF751020D5C0EF324B6
:101AB000D96E000EF420DA6EDECFF8F0DDCFF9F04B
:101AC000F8C0D9FFF9C0DAFFF651DF127DEF0DF053
:101AD000F451F56FF66BF651000AD8B472EF0DF0C1
:101AE00003EF0DF0F551000AD8B407EF0DF0010A2D
:101AF000D8B439EF0DF003EF0DF0FB511200010ED9
:101B00000101156F13511411D8A489EF0DF08BEF5B
:101B10000DF08FEF0DF0000E156FC6EF0DF03AC00F
:101B200016F113C1D9FF14C1DAFFDF500F0B00010A
:101B3000FF6F010116510001FF19F80BFF19010198
:101B4000166F13C1D9FF14C1DAFFDF38070B00018C
:101B5000FF6FFF47FF47FF47010116510001FF19C3
:101B6000C70BFF190101166F169D13C1D9FF14C1D0
:101B7000DAFFDFAE02D0168F02D00101169F160EDB
:101B80000001FC6F010EFD6FFCEC0EF00101155120
:101B90001200EE0EF66E230EF76E000EF86E01EEDA
:101BA00000F010EE13F00900F5CFEEFFE550E15024
:101BB000FAE1480EF66E1E0EF76E000EF86E00EE9D
:101BC00080F010EE43F00900F5CFEEFFE550E15054
:101BD000FAE1010EF66E240EF76E000EF86E00EEBE
:101BE0005CF010EE10F00900F5CFEEFFE550E1508B
:101BF000FAE100EEC3F02F0EEE6AE806FDE100EE1A
:101C000001F0400EEE6AE806FDE16C906C92000176
:101C10005CEF11F06CA20FEF0EF040EF0EF0342AE3
:101C2000332A3404D8A417EF0EF019EF0EF02EEF7C
:101C30000EF0B70E4D6E000E4E6E000E506E000E82
:101C40004F6E0FEC11F0000E0001E46F000EE56F17
:101C5000000EE66F000EE76F3FEF0EF0020E341835
:101C6000D8A435EF0EF037EF0EF03FEF0EF0000E78
:101C7000346E3B0E4D6E000E4E6E46EC0FF01200B1
:101C8000342A332A3404D8A448EF0EF04AEF0EF079
:101C90005FEF0EF0B70E416E000E426E000E446E06
:101CA000000E436E2FEC11F0000E0001E46F000EE9
:101CB000E56F000EE66F000EE76F70EF0EF0020E9C
:101CC0003418D8A466EF0EF068EF0EF070EF0EF047
:101CD000000E346E3B0E416E000E426E62EC0FF051
:101CE0001200000E536E000E546E4D504E10D8B4BC
:101CF0007CEF0EF07EEF0EF087EF0EF04F5050109D
:101D0000D8A485EF0EF087EF0EF089EF0EF09FEF6D
:101D10000EF0CECF53F0CFCF54F0535054C051F00B
:101D2000526A51C052F0516A5126000E52224FC0E1
:101D3000D9FF50C0DAFF51C0DEFF52C0DDFF1200F4
:101D4000000E476E000E486E41504210D8B4ABEF03
:101D50000EF0ADEF0EF0B6EF0EF043504410D8A4E5
:101D6000B4EF0EF0B6EF0EF0B8EF0EF0CEEF0EF0CF
:101D7000CECF47F0CFCF48F0475048C045F0466A35
:101D800045C046F0456A4526000E462243C0D9FFAD
:101D900044C0DAFF45C0DEFF46C0DDFF120000018F
:101DA000F351F411D8A4D7EF0EF0D9EF0EF0E9EF0C
:101DB0000EF0000EF56FFAEF0EF0F3C0F6FFF4C070
:101DC000F7FFF86A0800F550EBEC11F00001F34B57
:101DD000F42BF3C0F6FFF4C0F7FFF86A0800F550E3
:101DE0000009D8A4F6EF0EF0F8EF0EF0DDEF0EF0DC
:101DF000010EF56FF55112000001FC51FD11D8A440
:101E000004EF0FF006EF0FF00AEF0FF0000EFE6F79
:101E100022EF0FF0FCC0F2F0FDC0F3F041EC0CF04B
:101E20000001FE6FFCC0F2F0FDC0F3F0FCC0D9FF72
:101E3000FDC0DAFF000EDFBE010EF46FE6EC0CF021
:101E40000001FE17FE511200800F810F820F830FD9
:101E5000840F920F930F940F950F960F323A030B46
:101E6000131B232B333BD41F0104DC0B070052143C
:101E70001C010500020A121A222A0000010000D2E9
:0B1E8000220000000000000100002410
:101E8C002DC04FF02EC050F04D504E10D8A451EF35
:101E9C000FF053EF0FF055EF0FF061EF0FF0BECFD7
:101EAC004FF0BFCF50F04DC0D9FF4EC0DAFF4FC03E
:101EBC00DEFF50C0DDFF12002DC043F02EC044F0F9
:101ECC0041504210D8A46DEF0FF06FEF0FF071EF8F
:101EDC000FF07DEF0FF0BECF43F0BFCF44F041C009
:101EEC00D9FF42C0DAFF43C0DEFF44C0DDFF120061
:101EFC00F2941450D76E13C0D6FF15501610D8B4E8
:101F0C008AEF0FF08CEF0FF098EF0FF002D898EFEC
:101F1C000FF00500FA6E1550FD6E1650FE6EFF6A3E
:101F2C00FA5012001200A1920A50B36E09C0B2FF0F
:101F3C000B500C10D8B4A5EF0FF0A7EF0FF0B3EFC8
:101F4C000FF002D8B3EF0FF00500FA6E0B50FD6ED8
:101F5C000C50FE6EFF6AFA5012001200F2941450EC
:101F6C00D76E13C0D6FF15501610D8B4C0EF0FF0B3
:101F7C00C2EF0FF0CEEF0FF002D8CEEF0FF005004E
:101F8C00FA6E1550FD6E1650FE6EFF6AFA50120076
:101F9C001200A1920A50B36E09C0B2FF0B500C1084
:101FAC00D8B4DBEF0FF0DDEF0FF0E9EF0FF002D854
:101FBC00E9EF0FF00500FA6E0B50FD6E0C50FE6E43
:101FCC00FF6AFA50120012006CA2EFEF0FF0D7EF7D
:101FDC0010F0BD0E4D6E000E4E6E400E4F6E000E8C
:101FEC00506E71EC0EF0BD0E4D6E000E4E6E000E6E
:101FFC00506E000E4F6EFFEC10F012004D504E1054
:10200C00D8A40BEF10F00DEF10F00FEF10F01CEF49
:10201C0010F09EAA14EF10F016EF10F00DEF10F068
:10202C004DC0D9FF4EC0DAFFAECFDFFF12004150DA
:10203C004210D8A424EF10F026EF10F028EF10F087
:10204C0035EF10F09EAA2DEF10F02FEF10F026EFC9
:10205C0010F041C0D9FF42C0DAFFAECFDFFF120053
:10206C0005500610D8B43DEF10F03FEF10F04DEFD7
:10207C0010F002D84BEF10F00500FA6E0550FD6E13
:10208C000650FE6EFF6AFA5012004DEF10F012006F
:10209C0005500610D8B455EF10F057EF10F065EF5F
:1020AC0010F002D863EF10F00500FA6E0550FD6ECB
:1020BC000650FE6EFF6AFA50120065EF10F0120027
:1020CC009D9807500810D8B46EEF10F070EF10F018
:1020DC007CEF10F002D87CEF10F00500FA6E075080
:1020EC00FD6E0850FE6EFF6AFA50120012009E94AC
:1020FC002F503010D8B485EF10F087EF10F093EF1D
:10210C0010F002D893EF10F00500FA6E2F50FD6E10
:10211C003050FE6EFF6AFA50120012009D98075064
:10212C000810D8B49CEF10F09EEF10F0AAEF10F04E
:10213C0002D8AAEF10F00500FA6E0750FD6E085099
:10214C00FE6EFF6AFA50120012009E942F5030104F
:10215C00D8B4B3EF10F0B5EF10F0C1EF10F002D817
:10216C00C1EF10F00500FA6E2F50FD6E3050FE6E70
:10217C00FF6AFA50120012000600FACF49F0FBCFAA
:10218C004AF0D9CF4BF0DACF4CF0C7EC09F04CC089
:10219C00DAFF4BC0D9FF4AC0FBFF49C0FAFF6C9273
:1021AC001100BD0E416E000E426E400E436E000ECD
:1021BC00446EA0EC0EF0BD0E416E000E426E000E91
:1021CC00446E000E436E1FEC11F012006CA2F1EF86
:1021DC0010F04EEF11F0010E0001E027000EE1238C
:1021EC00E223E3233F0E4D6E000E4E6E04EC10F016
:1021FC0012004D504E10D8A406EF11F008EF11F05C
:10220C000AEF11F00EEF11F05050CF6E4FC0CEFF11
:10221C0012004D504E10D8A416EF11F018EF11F01B
:10222C001AEF11F01EEF11F05050B36E4FC0B2FF09
:10223C00120041504210D8A426EF11F028EF11F0F3
:10224C002AEF11F02EEF11F04450CF6E43C0CEFFA9
:10225C00120041504210D8A436EF11F038EF11F0B3
:10226C003AEF11F03EEF11F04450B36E43C0B2FFA1
:10227C0012006B0E0101136F000E146F7FEC0DF04A
:10228C00EC0E0001F26F000EF36F88EC0BF01200F5
:10229C00010E0001E027000EE123E223E3233F0EB1
:1022AC00416E000E426E1DEC10F012003FEC11F06E
:1022BC00010E0001F36F100EF46FCFEC0EF05EEF19
:1022CC0011F02DEF00F06CA26EEF11F009EF12F08F
:1022DC00010E0001E427000EE523E623E72312009C
:1022EC004D6EF2904D50D8A47EEF11F080EF11F0AE
:1022FC0082EF11F082EF11F012004D6EF2904D5002
:10230C00D8A48BEF11F08DEF11F08FEF11F08FEF50
:10231C0011F012004D6EF2904D50D8A498EF11F0C0
:10232C009AEF11F09CEF11F09CEF11F012004D6E32
:10233C00F2904D50D8A4A5EF11F0A7EF11F0A9EF32
:10234C0011F0A9EF11F012006CA2AFEF11F011EF28
:10235C0012F0010E0001DC27000EDD23DE23DF234B
:10236C001200416EF2904150D8A4BFEF11F0C1EFB2
:10237C0011F0C3EF11F0C3EF11F01200416EF290A7
:10238C004150D8A4CCEF11F0CEEF11F0D0EF11F0FA
:10239C00D0EF11F01200416EF2904150D8A4D9EF59
:1023AC0011F0DBEF11F0DDEF11F0DDEF11F01200A9
:1023BC00416EF2904150D8A4E6EF11F0E8EF11F025
:1023CC00EAEF11F0EAEF11F012000001F26FF2C027
:1023DC00C9FFC7A0F4EF11F0F6EF11F0EFEF11F019
:1023EC00120080250000000103000300005423D8D4
:1023FC002100000000890F8A0F8B0F8C0F8D0F723C
:05240C00010101014285
:10241200010E0001E427000EE523E623E723120064
:10242200010E0001DC27000EDD23DE23DF23120074
:102432009E901050CF6E0FC0CEFF12009E90105093
:10244200CF6E0FC0CEFF12009E9236C0CCFF12009C
:102452009E9236C0CCFF1200F0921200F090120051
:10246200F29212009E9C1200F0921200F090120062
:08247200F29212009E9C120080
:020000040020DA
:08000000FFFFFFFFFFFFFFFF00
:020000040030CA
:0E000000FF02091EFF8181FF0FC00FE00F40BD
:00000001FF
