:040000002DEF00F0F0
:060008006B8258ED10F0C0
:100018006B80D8CF5BF0E8CF5CF0E0CF5DF0FACF33
:100028005EF0FBCF5FF0D9CF60F0DACF61F003EC80
:1000380008F061C0DAFF60C0D9FF5FC0FBFF5EC097
:10004800FAFF5DC0E0FF5CC0E8FF5BC0D8FF6B90C3
:0600580010005FEF0DF047
:0510000000256900005D
:10100600F2A808EF08F00AEF08F013EF08F0F2A2D2
:101016000FEF08F011EF08F013EF08F0BCEC11F039
:10102600F0A618EF08F01AEF08F023EF08F0F0A08A
:101036001FEF08F021EF08F023EF08F0BAEC11F0EB
:10104600F0A828EF08F02AEF08F033EF08F0F0A236
:101056002FEF08F031EF08F033EF08F0B8EC11F09D
:10106600F2A638EF08F03AEF08F055EF08F0F2A0D4
:101076003FEF08F041EF08F055EF08F081A846EF82
:1010860008F048EF08F055EF08F06904D8A44EEFD1
:1010960008F050EF08F055EF08F0000E696E010EEB
:1010A60037EC11F0F2A65AEF08F05CEF08F077EF94
:1010B60008F0F2A061EF08F063EF08F077EF08F0B0
:1010C60081B868EF08F06AEF08F077EF08F069502A
:1010D600D8A470EF08F072EF08F077EF08F0010E71
:1010E600696E000E37EC11F0F2A67CEF08F07EEF89
:1010F60008F099EF08F0F2A083EF08F085EF08F00A
:1011060099EF08F081AA8AEF08F08CEF08F099EFC2
:1011160008F06804D8A492EF08F094EF08F099EF6D
:1011260008F0000E686E010E2AEC11F0F2A69EEF92
:1011360008F0A0EF08F0BBEF08F0F2A0A5EF08F06A
:10114600A7EF08F0BBEF08F081BAACEF08F0AEEFFE
:1011560008F0BBEF08F06850D8A4B4EF08F0B6EF7B
:1011660008F0BBEF08F0010E686E000E2AEC11F0D5
:10117600F2A6C0EF08F0C2EF08F0DDEF08F0F2A02B
:10118600C7EF08F0C9EF08F0DDEF08F081ACCEEF4D
:1011960008F0D0EF08F0DDEF08F06704D8A4D6EF2A
:1011A60008F0D8EF08F0DDEF08F0000E676E010ECC
:1011B6001DEC11F0F2A6E2EF08F0E4EF08F0FFEF05
:1011C60008F0F2A0E9EF08F0EBEF08F0FFEF08F007
:1011D60081BCF0EF08F0F2EF08F0FFEF08F067507F
:1011E600D8A4F8EF08F0FAEF08F0FFEF08F0010EC8
:1011F600676E000E1DEC11F0F2A604EF09F006EF83
:1012060009F021EF09F0F2A00BEF09F00DEF09F05C
:1012160021EF09F081AE12EF09F014EF09F021EF8A
:1012260009F06604D8A41AEF09F01CEF09F021EFC3
:1012360009F0000E666E010E10EC11F0F2A626EF14
:1012460009F028EF09F043EF09F0F2A02DEF09F0BD
:101256002FEF09F043EF09F081BE34EF09F036EFC6
:1012660009F043EF09F06650D8A43CEF09F03EEFD1
:1012760009F043EF09F0010E666E000E10EC11F056
:101286009DAC48EF09F04AEF09F053EF09F09EAC28
:101296004FEF09F051EF09F053EF09F0BEEC11F0F2
:1012A600F2AA58EF09F05AEF09F063EF09F0F2A439
:1012B6005FEF09F061EF09F063EF09F014EC0FF04E
:1012C6009DA068EF09F06AEF09F073EF09F09EA0A0
:1012D6006FEF09F071EF09F073EF09F09FEC11F071
:1012E6009DA278EF09F07AEF09F083EF09F09EA24C
:1012F6007FEF09F081EF09F083EF09F0B0EC11F010
:10130600A0A288EF09F08AEF09F093EF09F0A1A2F5
:101316008FEF09F091EF09F093EF09F02FEC0FF042
:101326009DA498EF09F09AEF09F0A3EF09F09EA4A7
:101336009FEF09F0A1EF09F0A3EF09F013EC10F00D
:101346009DA8A8EF09F0AAEF09F0B3EF09F09EA84F
:10135600AFEF09F0B1EF09F0B3EF09F0FCEC0FF0D5
:101366009DAAB8EF09F0BAEF09F0C3EF09F09EAAFB
:10137600BFEF09F0C1EF09F0C3EF09F0CCEC0FF0B5
:101386001200F2A8C9EF09F0CBEF09F0D4EF09F08B
:10139600F2A2D0EF09F0D2EF09F0D4EF09F0C4ECD5
:1013A60011F0F0A6D9EF09F0DBEF09F0E4EF09F050
:1013B600F0A0E0EF09F0E2EF09F0E4EF09F0C2EC8B
:1013C60011F0F0A8E9EF09F0EBEF09F0F4EF09F0FE
:1013D600F0A2F0EF09F0F2EF09F0F4EF09F0C0EC3B
:1013E60011F0F2A6F9EF09F0FBEF09F016EF0AF09B
:1013F600F2A000EF0AF002EF0AF016EF0AF081A859
:1014060007EF0AF009EF0AF016EF0AF06904D8A40C
:101416000FEF0AF011EF0AF016EF0AF0000E696EF0
:10142600010E78EC11F0F2A61BEF0AF01DEF0AF0A0
:1014360038EF0AF0F2A022EF0AF024EF0AF038EFB4
:101446000AF081B829EF0AF02BEF0AF038EF0AF01C
:101456006950D8A431EF0AF033EF0AF038EF0AF0FA
:10146600010E696E000E78EC11F0F2A63DEF0AF05F
:101476003FEF0AF05AEF0AF0F2A044EF0AF046EF07
:101486000AF05AEF0AF081AA4BEF0AF04DEF0AF084
:101496005AEF0AF06804D8A453EF0AF055EF0AF0A1
:1014A6005AEF0AF0000E686E010E6BEC11F0F2A610
:1014B6005FEF0AF061EF0AF07CEF0AF0F2A066EF48
:1014C6000AF068EF0AF07CEF0AF081BA6DEF0AF0D5
:1014D6006FEF0AF07CEF0AF06850D8A475EF0AF0B7
:1014E60077EF0AF07CEF0AF0010E686E000E6BECE7
:1014F60011F0F2A681EF0AF083EF0AF09EEF0AF0F0
:10150600F2A088EF0AF08AEF0AF09EEF0AF081ACAB
:101516008FEF0AF091EF0AF09EEF0AF06704D8A465
:1015260097EF0AF099EF0AF09EEF0AF0000E676E49
:10153600010E5EEC11F0F2A6A3EF0AF0A5EF0AF099
:10154600C0EF0AF0F2A0AAEF0AF0ACEF0AF0C0EF83
:101556000AF081BCB1EF0AF0B3EF0AF0C0EF0AF06F
:101566006750D8A4B9EF0AF0BBEF0AF0C0EF0AF053
:10157600010E676E000E5EEC11F0F2A6C5EF0AF0E2
:10158600C7EF0AF0E2EF0AF0F2A0CCEF0AF0CEEFD6
:101596000AF0E2EF0AF081AED3EF0AF0D5EF0AF0D7
:1015A600E2EF0AF06604D8A4DBEF0AF0DDEF0AF0FA
:1015B600E2EF0AF0000E666E010E51EC11F0F2A693
:1015C600E7EF0AF0E9EF0AF004EF0BF0F2A0EEEF16
:1015D6000AF0F0EF0AF004EF0BF081BEF5EF0AF027
:1015E600F7EF0AF004EF0BF06650D8A4FDEF0AF00F
:1015F600FFEF0AF004EF0BF0010E666E000E51ECE1
:1016060011F09DAC09EF0BF00BEF0BF014EF0BF0A4
:101616009EAC10EF0BF012EF0BF014EF0BF0C6ECD4
:1016260011F0F2AA19EF0BF01BEF0BF024EF0BF001
:10163600F2A420EF0BF022EF0BF024EF0BF04AECB4
:101646000FF09DA029EF0BF02BEF0BF034EF0BF012
:101656009EA030EF0BF032EF0BF034EF0BF0A5EC61
:1016660011F09DA239EF0BF03BEF0BF044EF0BF0BE
:101676009EA240EF0BF042EF0BF044EF0BF0B4EC00
:1016860011F0A0A249EF0BF04BEF0BF054EF0BF06B
:10169600A1A250EF0BF052EF0BF054EF0BF065ECFC
:1016A6000FF09DA459EF0BF05BEF0BF064EF0BF01E
:1016B6009EA460EF0BF062EF0BF064EF0BF041ECD1
:1016C60010F09DA869EF0BF06BEF0BF074EF0BF0C9
:1016D6009EA870EF0BF072EF0BF074EF0BF02AEC94
:1016E60010F09DAA79EF0BF07BEF0BF084EF0BF077
:1016F6009EAA80EF0BF082EF0BF084EF0BF0E4EC88
:101706000FF01200010E0001FC6FFA51FB11D8B464
:101716008FEF0BF091EF0BF0A3EF0BF0FAC0D9FFB0
:10172600FBC0DAFFDF30E832E832070B0101136F46
:10173600070E1365A1EF0BF0A3EF0BF009EF0CF00A
:10174600000E0001FC6F2CEF0CF0FAC0D9FFFBC0B5
:10175600DAFFDF30E832E832070B136F010E146F41
:10176600132BB8EF0BF0D8901437132FB6EF0BF0FE
:1017760001011451FF0A156FFAC0D9FFFBC0DAFF49
:10178600DF50070B166F1651020D940EF324D96E17
:10179600000EF420DA6EDECF17F1DDCF18F117C197
:1017A600D9FF18C1DAFF1551DF162CEF0CF0FAC07D
:1017B600D9FFFBC0DAFFDF30E832E832070B136FE0
:1017C600010E146F132BEAEF0BF0D8901437132F7A
:1017D600E8EF0BF0FAC0D9FFFBC0DAFFDF50070BCA
:1017E6000101156F1551020D940EF324D96E000EEA
:1017F600F420DA6EDECF16F1DDCF17F116C1D9FF70
:1018060017C1DAFF1451DF122CEF0CF0FAC0D9FF22
:10181600FBC0DAFF0001DFBC13EF0CF016EF0CF093
:10182600010E17EF0CF0000E0101136F146B14512B
:10183600000AD8B421EF0CF0A3EF0BF01351000A05
:10184600D8B4A8EF0BF0010AD8B4DAEF0BF0A3EF87
:101856000BF00001FC511200010E0001FD6FFA5160
:10186600FB11D8B439EF0CF03BEF0CF04DEF0CF058
:10187600FAC0D9FFFBC0DAFFDF30E832E832070BE7
:101886000101136F070E13654BEF0CF04DEF0CF0D3
:10189600B3EF0CF0000E0001FD6FCAEF0CF0FAC0BA
:1018A600D9FFFBC0DAFFDF30E832E832070B136FEF
:1018B600010E146F132B62EF0CF0D8901437132F10
:1018C60060EF0CF001011451FF0A156FFAC0D9FF41
:1018D600FBC0DAFFDF50070B166F1651020D8A0E9A
:1018E600F324D96E000EF420DA6EDECF17F1DDCFC9
:1018F60018F117C1D9FF18C1DAFF1551DF16CAEF63
:101906000CF0FAC0D9FFFBC0DAFFDF30E832E8326C
:10191600070B136F010E146F132B94EF0CF0D89076
:101926001437132F92EF0CF0FAC0D9FFFBC0DAFF81
:10193600DF50070B0101156F1551020D8A0EF324B6
:10194600D96E000EF420DA6EDECF16F1DDCF17F178
:1019560016C1D9FF17C1DAFF1451DF12CAEF0CF016
:101966000001FC510101136F146B1451000AD8B425
:10197600BFEF0CF04DEF0CF01351000AD8B452EF44
:101986000CF0010AD8B484EF0CF04DEF0CF0000116
:10199600FD5112000001FA51FB11D8A4D5EF0CF04D
:1019A600D7EF0CF0DBEF0CF0000EFD6F1BEF0DF028
:1019B600C69A94889496929A949AFAC0D9FFFBC0D4
:1019C600DAFFDF50FC6FFC3BC650FC19EF0BFC192D
:1019D600C66E20EE01F0FA51D926FB51DA22DF500D
:1019E600FC6FFC3BFC47FC47C750FC19BF0BFC19BE
:1019F600C76E20EE02F0FA51D926FB51DA22DF50EB
:101A0600FC6FFC33FC33C750FC197F0BFC19C76E07
:101A160020EE03F0FA51D926FB51DA22DF50FC6F93
:101A2600C650FC19F00BFC19C66EC68A010EFD6F76
:101A3600FD511200010E01011D6F1A511B11D8A490
:101A460027EF0DF029EF0DF02DEF0DF0000E1D6FB5
:101A56005CEF0DF040C01EF11AC1D9FF1BC1DAFFC1
:101A6600DF500F0B1C6F1E511C19F80B1C191E6F33
:101A76001AC1D9FF1BC1DAFFDF38070B1C6F1C47E1
:101A86001C471C471E511C19C70B1C191E6F1E9D97
:101A96001AC1D9FF1BC1DAFFDFAE02D01E8F02D0FA
:101AA60001011E9F1E0E0001FE6F010EFF6F65EC09
:101AB6000EF001011D5112000A0EF66E230EF76E8E
:101AC600000EF86E01EE00F010EE13F00900F5CFEF
:101AD600EEFFE550E150FAE11E0EF66E1D0EF76EB2
:101AE600000EF86E00EE80F010EE4DF00900F5CF16
:101AF600EEFFE550E150FAE1560EF66E230EF76E54
:101B0600000EF86E00EE62F010EE09F00900F5CF57
:101B1600EEFFE550E150FAE100EECDF02D0EEE6A53
:101B2600E806FDE100EE01F0460EEE6AE806FDE18C
:101B36006B906B920001B6EF0EF06BA2A5EF0DF065
:101B4600D6EF0DF03A2A392A3A04D8A4ADEF0DF0B3
:101B5600AFEF0DF0C4EF0DF0C10E536E000E546ED4
:101B6600000E566E000E556EB6EC10F0000E00011B
:101B7600EE6F000EEF6F000EF06F000EF16FD5EFF7
:101B86000DF0020E3A18D8A4CBEF0DF0CDEF0DF004
:101B9600D5EF0DF0000E3A6E410E536E000E546EE8
:101BA600DCEC0EF012003A2A392A3A04D8A4DEEF09
:101BB6000DF0E0EF0DF0F5EF0DF0C10E476E000EE3
:101BC600486E000E4A6E000E496ED6EC10F0000EFE
:101BD6000001EE6F000EEF6F000EF06F000EF16F5A
:101BE60006EF0EF0020E3A18D8A4FCEF0DF0FEEF49
:101BF6000DF006EF0EF0000E3A6E410E476E000E27
:101C0600486EF8EC0EF01200000E596E000E5A6E79
:101C160053505410D8B412EF0EF014EF0EF01DEF1F
:101C26000EF055505610D8A41BEF0EF01DEF0EF017
:101C36001FEF0EF035EF0EF0CECF59F0CFCF5AF0A2
:101C460059505AC057F0586A57C058F0576A572625
:101C5600000E582255C0D9FF56C0DAFF57C0DEFF26
:101C660058C0DDFF1200000E4D6E000E4E6E47503E
:101C76004810D8B441EF0EF043EF0EF04CEF0EF0E3
:101C860049504A10D8A44AEF0EF04CEF0EF04EEF32
:101C96000EF064EF0EF0CECF4DF0CFCF4EF04D509C
:101CA6004EC04BF04C6A4BC04CF04B6A4B26000EB4
:101CB6004C2249C0D9FF4AC0DAFF4BC0DEFF4CC0F8
:101CC600DDFF12000001FE51FF11D8A46DEF0EF0EA
:101CD6006FEF0EF074EF0EF0000E0101196F8DEF2D
:101CE6000EF0FEC0FAF0FFC0FBF085EC0BF0010130
:101CF600196FFEC0FAF0FFC0FBF0FEC0D9FFFFC0AF
:101D0600DAFF0001000EDFBE010EFC6F2FEC0CF0B7
:101D16000101191719511200800F810F820F830FCD
:101D2600840F890F8A0F8B0F8C0F8D0F920F930FD5
:101D3600940F950F960F323A030B131B232B333B4D
:101D4600001F0104DC0B070052401B010500020ABC
:101D5600121A222A000001000006220000000000DC
:051D6600000100002453
:101D6C00E6EC10F0410E95EC10F0330E0101206FF3
:101D7C00BB0E1F6FDF0EE82EFED71F2FFCD7202FB8
:101D8C00FAD700D0420E95EC10F0330E0101206F03
:101D9C00BB0E1F6FDF0EE82EFED71F2FFCD7202F98
:101DAC00FAD700D0B8EF0EF02DEF00F033C055F09D
:101DBC0034C056F053505410D8A4E7EF0EF0E9EFAE
:101DCC000EF0EBEF0EF0F7EF0EF0BECF55F0BFCFED
:101DDC0056F053C0D9FF54C0DAFF55C0DEFF56C0D1
:101DEC00DDFF120033C049F034C04AF047504810B0
:101DFC00D8A403EF0FF005EF0FF007EF0FF013EF80
:101E0C000FF0BECF49F0BFCF4AF047C0D9FF48C052
:101E1C00DAFF49C0DEFF4AC0DDFF1200F2941A500F
:101E2C00D76E19C0D6FF1B501C10D8B420EF0FF082
:101E3C0022EF0FF02EEF0FF002D82EEF0FF005006F
:101E4C00FA6E1B50FD6E1C50FE6EFF6AFA501200AB
:101E5C001200A1921050B36E0FC0B2FF11501210AD
:101E6C00D8B43BEF0FF03DEF0FF049EF0FF002D875
:101E7C0049EF0FF00500FA6E1150FD6E1250FE6E18
:101E8C00FF6AFA5012001200F2941A50D76E19C061
:101E9C00D6FF1B501C10D8B456EF0FF058EF0FF0B4
:101EAC0064EF0FF002D864EF0FF00500FA6E1B50D0
:101EBC00FD6E1C50FE6EFF6AFA5012001200A192C9
:101ECC001050B36E0FC0B2FF11501210D8B471EF96
:101EDC000FF073EF0FF07FEF0FF002D87FEF0FF0E2
:101EEC000500FA6E1150FD6E1250FE6EFF6AFA502C
:101EFC00120012006BA285EF0FF06DEF10F0C70E01
:101F0C00536E000E546E460E556E000E566E07EC58
:101F1C000EF0C70E536E000E546E000E566E000E71
:101F2C00556EA6EC10F0120053505410D8A4A1EF2B
:101F3C000FF0A3EF0FF0A5EF0FF0B2EF0FF09EAA8A
:101F4C00AAEF0FF0ACEF0FF0A3EF0FF053C0D9FFD7
:101F5C0054C0DAFFAECFDFFF120047504810D8A4B0
:101F6C00BAEF0FF0BCEF0FF0BEEF0FF0CBEF0FF0AE
:101F7C009EAAC3EF0FF0C5EF0FF0BCEF0FF047C0F8
:101F8C00D9FF48C0DAFFAECFDFFF12000B500C10A8
:101F9C00D8B4D3EF0FF0D5EF0FF0E3EF0FF002D87A
:101FAC00E1EF0FF00500FA6E0B50FD6E0C50FE6E5B
:101FBC00FF6AFA501200E3EF0FF012000B500C10F6
:101FCC00D8B4EBEF0FF0EDEF0FF0FBEF0FF002D802
:101FDC00F9EF0FF00500FA6E0B50FD6E0C50FE6E13
:101FEC00FF6AFA501200FBEF0FF012009D980D5093
:101FFC000E10D8B404EF10F006EF10F012EF10F042
:10200C0002D812EF10F00500FA6E0D50FD6E0E5056
:10201C00FE6EFF6AFA50120012009E943550361074
:10202C00D8B41BEF10F01DEF10F029EF10F002D810
:10203C0029EF10F00500FA6E3550FD6E3650FE6E2D
:10204C00FF6AFA50120012009D980D500E10D8B471
:10205C0032EF10F034EF10F040EF10F002D840EFF8
:10206C0010F00500FA6E0D50FD6E0E50FE6EFF6AFC
:10207C00FA50120012009E9435503610D8B449EF25
:10208C0010F04BEF10F057EF10F002D857EF10F0A4
:10209C000500FA6E3550FD6E3650FE6EFF6AFA5032
:1020AC00120012000600FACF4FF0FBCF50F0D9CF40
:1020BC0051F0DACF52F0C4EC09F052C0DAFF51C043
:1020CC00D9FF50C0FBFF4FC0FAFF6B921100C70E37
:1020DC00476E000E486E460E496E000E4A6E36EC88
:1020EC000EF0C70E476E000E486E000E4A6E000EC4
:1020FC00496EC6EC10F012006BA287EF10F0F5EFF2
:10210C0010F0010E0001EA27000EEB23EC23ED2367
:10211C00450E536E000E546E9AEC0FF01200000137
:10212C00FB6F000E0001FA6FFBC0C9FFC7A0A1EF47
:10213C0010F0A3EF10F09CEF10F09E96C950120017
:10214C0053505410D8A4ADEF10F0AFEF10F0B1EF26
:10215C0010F0B5EF10F05650CF6E55C0CEFF1200F8
:10216C0053505410D8A4BDEF10F0BFEF10F0C1EFD6
:10217C0010F0C5EF10F05650B36E55C0B2FF120000
:10218C0047504810D8A4CDEF10F0CFEF10F0D1EF9E
:10219C0010F0D5EF10F04A50CF6E49C0CEFF1200B0
:1021AC0047504810D8A4DDEF10F0DFEF10F0E1EF4E
:1021BC0010F0E5EF10F04A50B36E49C0B2FF1200B8
:1021CC006A0E01011A6F000E1B6F1DEC0DF0F60E5E
:1021DC000001FA6F000EFB6FCDEC0CF01200010E3B
:1021EC000001EA27000EEB23EC23ED23450E476E8E
:1021FC00000E486EB3EC0FF012006BA208EF11F05A
:10220C008FEF11F0010E0001EE27000EEF23F023EB
:10221C00F1231200536EF2905350D8A418EF11F022
:10222C001AEF11F01CEF11F01CEF11F01200536EAD
:10223C00F2905350D8A425EF11F027EF11F029EFAD
:10224C0011F029EF11F01200536EF2905350D8A4F4
:10225C0032EF11F034EF11F036EF11F036EF11F0E0
:10226C001200536EF2905350D8A43FEF11F041EF8F
:10227C0011F043EF11F043EF11F012006BA249EF94
:10228C0011F097EF11F0010E0001E627000EE72385
:10229C00E823E9231200476EF2904750D8A459EF77
:1022AC0011F05BEF11F05DEF11F05DEF11F012002A
:1022BC00476EF2904750D8A466EF11F068EF11F01A
:1022CC006AEF11F06AEF11F01200476EF29047506E
:1022DC00D8A473EF11F075EF11F077EF11F077EFE1
:1022EC0011F01200476EF2904750D8A480EF11F015
:1022FC0082EF11F084EF11F084EF11F012008025C1
:10230C0000000001030003000088220421000000EB
:01231C0000C0
:10231E00010E0001EE27000EEF23F023F123120031
:10232E00010E0001E627000EE723E823E923120041
:10233E009E901650CF6E15C0CEFF12009E90165076
:10234E00CF6E15C0CEFF1200000004720101010114
:01235E00037B
:102360009E923CC0CCFF12009E923CC0CCFF12005B
:10237000F0921200F0901200F29212009E9C120055
:10238000F0921200F0901200F29212009E9C120045
:020000040020DA
:08000000FFFFFFFFFFFFFFFF00
:020000040030CA
:0E000000FF02091EFF8181FF0FC00FE00F40BD
:00000001FF
