:0400000035EF00F0E8
:060008005A82DAED18F047
:100018005A80D8CF1DF0E8CF1EF0E0CF1FF0FACFFE
:1000280020F0FBCF21F0D9CF22F0DACF23F0F3CFA5
:1000380024F0F4CF25F01DEC0FF025C0F4FF24C008
:10004800F3FF23C0DAFF22C0D9FF21C0FBFF20C085
:10005800FAFF1FC0E0FF1EC0E8FF1DC0D8FF5A907E
:060068001000A2EF16F0EB
:101000000041484D45440D0025690000000E0101D6
:10101000476F000E486F000E496F000E4A6F3EEF9B
:101020000AF0AC98AC94B896FEC0D9FFFFC0DAFFC6
:10103000DECF26F0DECF27F0DECF28F0DECF29F09E
:10104000000EBFEC12F026C0F2F027C0F3F028C06B
:10105000F4F029C0F5F0000E0001EE6F240EEF6FE2
:10106000F40EF06F4A0EF16F06EC0DF0EEC04BF18E
:10107000EFC04CF1F0C04DF1F1C04EF1000E000197
:10108000F26F000EF36F800EF46F420EF56F4BC1DE
:10109000EEF04CC1EFF04DC1F0F04EC1F1F006ECB6
:1010A0000DF0EEC03BF1EFC03CF1F0C03DF1F1C0FE
:1010B0003EF1000E01013F6F000E406F800E416F48
:1010C000BF0E426F8AEC0AF03BC147F13CC148F1C8
:1010D0003DC149F13EC14AF16AEF0AF0AC98AC84D7
:1010E000B896FEC0D9FFFFC0DAFFDECF26F0DECF14
:1010F00027F0DECF28F0DECF29F0000EBFEC12F093
:1011000026C0F2F027C0F3F028C0F4F029C0F5F0B3
:10111000000E0001EE6F240EEF6FF40EF06F4A0E1A
:10112000F16F06EC0DF0EEC04BF1EFC04CF1F0C0EA
:101130004DF1F1C04EF1000E0001F26F000EF36FA1
:10114000800EF46F410EF56F4BC1EEF04CC1EFF025
:101150004DC1F0F04EC1F1F006EC0DF0EEC03BF1E8
:10116000EFC03CF1F0C03DF1F1C03EF1000E0101D5
:101170003F6F000E406F800E416FBF0E426F8AECD2
:101180000AF03BC147F13CC148F13DC149F13EC1C4
:101190004AF16AEF0AF0AC98AC94B886FEC0D9FF69
:1011A000FFC0DAFFDECF26F0DECF27F0DECF28F05B
:1011B000DECF29F0000EBFEC12F026C0F2F027C0FF
:1011C000F3F028C0F4F029C0F5F0000E0001EE6F36
:1011D000240EEF6FF40EF06F4A0EF16F06EC0DF077
:1011E000EEC04BF1EFC04CF1F0C04DF1F1C04EF14B
:1011F000000E0001F26F000EF36F800EF46F410ECF
:10120000F56F4BC1EEF04CC1EFF04DC1F0F04EC1A7
:10121000F1F006EC0DF0EEC03BF1EFC03CF1F0C098
:101220003DF1F1C03EF1000E01013F6F000E406F35
:10123000800E416FBF0E426F8AEC0AF03BC147F14E
:101240003CC148F13DC149F13EC14AF16AEF0AF0A3
:10125000AC98AC84B886FEC0D9FFFFC0DAFFDECF01
:1012600026F0DECF27F0DECF28F0DECF29F0000E0B
:10127000BFEC12F026C0F2F027C0F3F028C0F4F063
:1012800029C0F5F0000E0001EE6F240EEF6FF40E92
:10129000F06F4A0EF16F06EC0DF0EEC04BF1EFC0AF
:1012A0004CF1F0C04DF1F1C04EF1000E0001F26FB3
:1012B000000EF36F800EF46F400EF56F4BC1EEF031
:1012C0004CC1EFF04DC1F0F04EC1F1F006EC0DF065
:1012D000EEC03BF1EFC03CF1F0C03DF1F1C03EF19A
:1012E000000E01013F6F000E406F800E416FBF0E78
:1012F000426F8AEC0AF03BC147F13CC148F13DC165
:1013000049F13EC14AF16AEF0AF0AC88AC94B89654
:10131000FEC0D9FFFFC0DAFFDECF26F0DECF27F018
:10132000DECF28F0DECF29F0000EBFEC12F026C091
:10133000F2F027C0F3F028C0F4F029C0F5F0000E59
:101340000001EE6F240EEF6FF40EF06F4A0EF16F96
:1013500006EC0DF0EEC04BF1EFC04CF1F0C04DF1DA
:10136000F1C04EF1000E0001F26F000EF36F800E1F
:10137000F46F400EF56F4BC1EEF04CC1EFF04DC174
:10138000F0F04EC1F1F006EC0DF0EEC03BF1EFC015
:101390003CF1F0C03DF1F1C03EF1000E01013F6FA4
:1013A000000E406F800E416FBF0E426F8AEC0AF054
:1013B0003BC147F13CC148F13DC149F13EC14AF151
:1013C0006AEF0AF0AC88B886FEC0D9FFFFC0DAFF2A
:1013D000DECF26F0DECF27F0DECF28F0DECF29F0FB
:1013E000000EBFEC12F026C0F2F027C0F3F028C0C8
:1013F000F4F029C0F5F0000E0001EE6F240EEF6F3F
:10140000F40EF06F4A0EF16F06EC0DF0EEC04BF1EA
:10141000EFC04CF1F0C04DF1F1C04EF1000E0001F3
:10142000F26F000EF36F800EF46F400EF56F4BC13C
:10143000EEF04CC1EFF04DC1F0F04EC1F1F006EC12
:101440000DF0EEC03BF1EFC03CF1F0C03DF1F1C05A
:101450003EF1000E01013F6F000E406F800E416FA4
:10146000BF0E426F8AEC0AF03BC147F13CC148F124
:101470003DC149F13EC14AF16AEF0AF0000120EE98
:1014800004F0FE51D926FF51DA22DF50346E356A5E
:101490003550000AD8B44FEF0AF06AEF0AF0345022
:1014A000000AD8B411EF08F0010AD8B46EEF08F0C2
:1014B000030AD8B4CBEF08F0010AD8B428EF09F03A
:1014C000070AD8B485EF09F0010AD8B4E2EF09F0B1
:1014D0006AEF0AF047C126F048C127F049C128F059
:1014E0004AC129F0D1EC14F02650AF6E47C126F066
:1014F00048C127F049C128F04AC129F0D1EC14F0C5
:1015000027C026F028C027F029C028F0296A2650D5
:10151000B06E120001013E51800B436F3E513E25DB
:10152000456F3DAF96EF0AF098EF0AF099EF0AF099
:1015300045814551D8B49FEF0AF0A1EF0AF0B6EF0C
:101540000AF04529D8A4A7EF0AF0A9EF0AF0B1EFF5
:101550000AF0000E3B6F000E3C6F000E3D6F000E58
:101560003E6F3D8F000E3E6FBEEF0AF0000E3B6FE8
:10157000000E3C6F000E3D6F000E3E6F4251800B1F
:10158000446F43514419D8B4C8EF0AF0CAEF0AF0C7
:10159000CBEF0AF0438D42514225446F41AFD3EF68
:1015A0000AF0D5EF0AF0D6EF0AF044814451D8B4DE
:1015B000DCEF0AF0DEEF0AF0F3EF0AF04429D8A4DA
:1015C000E4EF0AF0E6EF0AF0EEEF0AF0000E3F6FEC
:1015D000000E406F000E416F000E426F418F000EF3
:1015E000426FFBEF0AF0000E3F6F000E406F000EDF
:1015F000416F000E426F4551445DD8B002EF0BF0D1
:1016000004EF0BF02BEF0BF043AD09EF0BF00BEFFA
:101610000BF00DEF0BF0800E431B45C146F144C1AA
:1016200045F146C144F13BC146F13FC13BF146C1E2
:101630003FF13CC146F140C13CF146C140F13DC1E2
:1016400046F141C13DF146C141F13EC146F142C1C1
:101650003EF146C142F1000E466F455144C1FAF0D9
:101660000001FB6BFA5F000EFB5BFBBF41EF0BF071
:10167000FB5109E11A0EFA5DD8A041EF0BF043EFE0
:101680000BF07BEF0BF001013B513C113D113E1182
:10169000D8A44DEF0BF050EF0BF0010E51EF0BF013
:1016A000000E466F000E3B6F000E3C6F000E3D6F4C
:1016B000000E3E6F44C145F185EF0BF046A163EF8C
:1016C0000BF065EF0BF06BEF0BF0D8904631010992
:1016D000466F6DEF0BF0D89046333BA172EF0BF0E5
:1016E00074EF0BF075EF0BF0468F3E353E333D3314
:1016F0003C333B33452B01014451455DD8A083EF7A
:101700000BF085EF0BF05EEF0BF043BD8AEF0BF0B3
:101710008CEF0BF0CCEF0BF04551D8A492EF0BF00F
:1017200094EF0BF09EEF0BF0000E3B6F000E3C6F42
:10173000000E3D6F000E3E6F05EF0DF03F513B2751
:1017400040513C2341513D2342513E233EA1ABEF4A
:101750000BF0ADEF0BF06CEF0CF046A1B2EF0BF01D
:10176000B4EF0BF0BAEF0BF0D89046310109466F99
:10177000BCEF0BF0D89046333BA1C1EF0BF0C3EFA9
:101780000BF0C4EF0BF0468F3E353E333D333C3318
:101790003B33452B6CEF0CF03F513B5D40513C59C6
:1017A00041513D593E51800A0001FA6F01014251F9
:1017B000800A0001FA59D8B0E0EF0BF0E2EF0BF02D
:1017C0001CEF0CF001013B513F5D0001FA6F01017C
:1017D0003C5140590001FB6F01013D51415900014D
:1017E000FC6F01013E5142590001FD6FFF0EFA25C9
:1017F00001013B6FFF0E0001FB2101013C6FFF0E59
:101800000001FC2101013D6FFF0E0001FD210101DE
:101810003E6F800E431B466D4651D8A412EF0CF06C
:1018200014EF0CF025EF0CF0010E3B27000E3C23CB
:101830003D233E2325EF0CF001013F513B5F40511A
:101840003C5B41513D5B42513E5B3B513C113D1184
:101850003E11D8A42EEF0CF030EF0CF065EF0CF039
:101860004651D8A436EF0CF038EF0CF065EF0CF0D1
:10187000000E3B6F000E3C6F000E3D6F000E3E6F82
:1018800005EF0DF0D8903B373C373D373E3746AF3C
:101890004CEF0CF04EEF0CF04FEF0CF03B8146A1FB
:1018A00054EF0CF056EF0CF05AEF0CF0D88046379E
:1018B0005CEF0CF0D89046374551D8B462EF0CF08D
:1018C00064EF0CF065EF0CF045073DAF6AEF0CF0EC
:1018D0006CEF0CF042EF0CF0000E446F46AF73EF6C
:1018E0000CF075EF0CF090EF0CF046C1FAF07F0EA3
:1018F0000001FA17D8B47FEF0CF081EF0CF086EFFF
:101900000CF0010E0101446F90EF0CF001013BA1BE
:101910008CEF0CF08EEF0CF090EF0CF081EF0CF0F0
:101920004451D8B496EF0CF098EF0CF0C5EF0CF0E2
:10193000010E3B27000E3C233D233E233EA1A3EF97
:101940000CF0A5EF0CF0C5EF0CF03BC1FAF03CC178
:10195000FBF03DC1FCF03EC1FDF00001FD35FD3363
:10196000FC33FB33FA33FAC03BF1FBC03CF1FCC063
:101970003DF1FDC03EF101014529D8B4C2EF0CF0A4
:10198000C4EF0CF0C5EF0CF0452B4529D8B4CBEFD4
:101990000CF0CDEF0CF0D5EF0CF04551D8A4D3EFFF
:1019A0000CF0D5EF0CF0E7EF0CF0000E3B6F000EE3
:1019B0003C6F000E3D6F000E3E6F4551D8A4E3EF23
:1019C0000CF0E5EF0CF0E7EF0CF0000E436F45A1D3
:1019D000ECEF0CF0EEEF0CF0F1EF0CF03D8FF2EFCE
:1019E0000CF03D9FD89045313E6F43AFFAEF0CF0BD
:1019F000FCEF0CF0FDEF0CF03E8F3BC13BF13CC126
:101A00003CF13DC13DF13EC13EF112000001F151FA
:101A1000800B0101326F0001F151F1250101396F95
:101A20000001F0AF16EF0DF018EF0DF01AEF0DF00A
:101A30000101398101013951D8B421EF0DF023EFB3
:101A40000DF03AEF0DF03929D8A429EF0DF02BEF66
:101A50000DF034EF0DF0000E0001EE6F000EEF6F91
:101A6000000EF06F000EF16F0001F08F000EF16FAD
:101A700043EF0DF0000E0001EE6F000EEF6F000E51
:101A8000F06F000EF16FF551800B0101321B000168
:101A9000F551F52501013A6F0001F4AF52EF0DF059
:101AA00054EF0DF056EF0DF001013A8101013A516A
:101AB000D8B45DEF0DF05FEF0DF076EF0DF03A2941
:101AC000D8A465EF0DF067EF0DF070EF0DF0000E8C
:101AD0000001F26F000EF36F000EF46F000EF56F51
:101AE0000001F48F000EF56F7FEF0DF0000E000186
:101AF000F26F000EF36F000EF46F000EF56FF251EF
:101B0000F311F411F511D8A488EF0DF08AEF0DF060
:101B1000A4EF0DF0000EEE6F000EEF6F000EF06FF1
:101B2000000EF16F800EF0137F0EF11301013251A0
:101B30000001F113EEC0EEF0EFC0EFF0F0C0F0F0F6
:101B4000F1C0F1F01CEF0FF001013951D8A4ABEF57
:101B50000DF0ADEF0DF0B8EF0DF0000E0001EE6FDF
:101B6000000EEF6F000EF06F000EF16F1CEF0FF024
:101B70003A5139C1F6F00001F76BF65F000EF75BE2
:101B80007F0EF6250101336F000E0001F7210101E0
:101B9000346FEEC02EF1EFC02FF1F0C030F1F1C084
:101BA00031F1000E0001EE6F000EEF6F000EF06FCE
:101BB000000EF16F000E0101356F000E366F000E42
:101BC000376F000E386F000E3A6F33EF0EF03A5158
:101BD000D8B4EDEF0DF0EFEF0DF00AEF0EF0D89066
:101BE0002E372F37303731370001D890EE37EF37A7
:101BF000F037F137010138AF00EF0EF002EF0EF0D1
:101C000004EF0EF00001EE810101D8903537363730
:101C1000373738370001F25101012E5D0001F351D1
:101C200001012F590001F451010130590001F55112
:101C300001013159D8A01FEF0EF021EF0EF032EF65
:101C40000EF0388D0001F25101012E5F0001F351B9
:101C500001012F5B0001F4510101305B0001F551DE
:101C60000101315B3A2B190E3A6539EF0EF03BEF6B
:101C70000EF0E7EF0DF02E512F1130113111D8B4C5
:101C800044EF0EF046EF0EF061EF0EF0358161EF9C
:101C90000EF0D890EE37EF37F037F137010138AF5B
:101CA00054EF0EF056EF0EF058EF0EF00001EE81FB
:101CB0000101D89035373637373738373307D8A052
:101CC00034070001F0AF67EF0EF069EF0EF049EF57
:101CD0000EF0000E01013A6F38AF71EF0EF073EFA6
:101CE0000EF09FEF0EF0FF0E35150001F66FFF0EA0
:101CF000010136150001F76FFF0E010137150001D4
:101D0000F86F7F0E010138150001F96FF651F711D8
:101D1000F811F911D8B48FEF0EF091EF0EF096EFA5
:101D20000EF0010E01013A6F9FEF0EF0EEA19BEF56
:101D30000EF09DEF0EF09FEF0EF091EF0EF001010F
:101D40003A51D8B4A6EF0EF0A8EF0EF0CEEF0EF099
:101D5000010E0001EE27000EEF23F023F123F1A185
:101D6000B4EF0EF0B6EF0EF0CEEF0EF0EEC0F6F0E0
:101D7000EFC0F7F0F0C0F8F0F1C0F9F0F935F93341
:101D8000F833F733F633F6C0EEF0F7C0EFF0F8C0F3
:101D9000F0F0F9C0F1F00101334B342B010134BFF5
:101DA000DAEF0EF0345108E13329D8A0DAEF0EF063
:101DB000DCEF0EF0E8EF0EF0000E346F3369000E2A
:101DC0000001EE6F000EEF6F000EF06F000EF16F6E
:101DD000010134BFF6EF0EF0345106E13305D8B0FF
:101DE000F4EF0EF0F6EF0EF006EF0FF0000E346F8A
:101DF000000E336F000E0001EE6F000EEF6F000E4D
:101E0000F06F000EF16F000E0101326F33C139F136
:101E100039A10DEF0FF00FEF0FF013EF0FF00001EE
:101E2000F08F15EF0FF00001F09F0101D8903931CC
:101E30000001F16F96EF0DF01200F2A822EF0FF003
:101E400024EF0FF02DEF0FF0F2A229EF0FF02BEFA0
:101E50000FF02DEF0FF067EC1BF0F0A632EF0FF054
:101E600034EF0FF03DEF0FF0F0A039EF0FF03BEF44
:101E70000FF03DEF0FF065EC1BF0F0A842EF0FF014
:101E800044EF0FF04DEF0FF0F0A249EF0FF04BEFE2
:101E90000FF04DEF0FF063EC1BF0F2A652EF0FF0D6
:101EA00054EF0FF06FEF0FF0F2A059EF0FF05BEF70
:101EB0000FF06FEF0FF081A860EF0FF062EF0FF0FF
:101EC0006FEF0FF05804D8A468EF0FF06AEF0FF02F
:101ED0006FEF0FF0000E586E010ED8EC1AF0F2A65C
:101EE00074EF0FF076EF0FF091EF0FF0F2A07BEFB1
:101EF0000FF07DEF0FF091EF0FF081B882EF0FF050
:101F000084EF0FF091EF0FF05850D8A48AEF0FF044
:101F10008CEF0FF091EF0FF0010E586E000ED8EC21
:101F20001AF0F2A696EF0FF098EF0FF0B3EF0FF064
:101F3000F2A09DEF0FF09FEF0FF0B3EF0FF081AA2B
:101F4000A4EF0FF0A6EF0FF0B3EF0FF05704D8A4F3
:101F5000ACEF0FF0AEEF0FF0B3EF0FF0000E576ED7
:101F6000010ECBEC1AF0F2A6B8EF0FF0BAEF0FF0BB
:101F7000D5EF0FF0F2A0BFEF0FF0C1EF0FF0D5EFEC
:101F80000FF081BAC6EF0FF0C8EF0FF0D5EF0FF0EA
:101F90005750D8A4CEEF0FF0D0EF0FF0D5EF0FF0E1
:101FA000010E576E000ECBEC1AF0F2A6DAEF0FF02E
:101FB000DCEF0FF0F7EF0FF0F2A0E1EF0FF0E3EF3F
:101FC0000FF0F7EF0FF081ACE8EF0FF0EAEF0FF052
:101FD000F7EF0FF05604D8A4F0EF0FF0F2EF0FF088
:101FE000F7EF0FF0000E566E010EBEEC1AF0F2A6DF
:101FF000FCEF0FF0FEEF0FF019EF10F0F2A003EF7F
:1020000010F005EF10F019EF10F081BC0AEF10F09E
:102010000CEF10F019EF10F05650D8A412EF10F09A
:1020200014EF10F019EF10F0010E566E000EBEEC1A
:102030001AF0F2A61EEF10F020EF10F03BEF10F0B8
:10204000F2A025EF10F027EF10F03BEF10F081AE7B
:102050002CEF10F02EEF10F03BEF10F05504D8A449
:1020600034EF10F036EF10F03BEF10F0000E556E2D
:10207000010EB1EC1AF0F2A640EF10F042EF10F0B2
:102080005DEF10F0F2A047EF10F049EF10F05DEFB8
:1020900010F081BE4EEF10F050EF10F05DEF10F039
:1020A0005550D8A456EF10F058EF10F05DEF10F037
:1020B000010E556E000EB1EC1AF09DAC62EF10F0FF
:1020C00064EF10F06DEF10F09EAC69EF10F06BEF65
:1020D00010F06DEF10F06BEC1BF0F2AA72EF10F045
:1020E00074EF10F07DEF10F0F2A479EF10F07BEFB9
:1020F00010F07DEF10F02FEC19F09DA082EF10F0A2
:1021000084EF10F08DEF10F09EA089EF10F08BEFB0
:1021100010F08DEF10F04CEC1BF09DA292EF10F040
:1021200094EF10F09DEF10F09EA299EF10F09BEF4E
:1021300010F09DEF10F058EC1BF0A0A2A2EF10F0F1
:10214000A4EF10F0ADEF10F0A1A2A9EF10F0ABEFEB
:1021500010F0ADEF10F04AEC19F09DA4B2EF10F0C2
:10216000B4EF10F0BDEF10F09EA4B9EF10F0BBEF8C
:1021700010F0BDEF10F0FCEC19F0A0A0C2EF10F0D1
:10218000C4EF10F0CDEF10F0A1A0C9EF10F0CBEF2D
:1021900010F0CDEF10F069EC1BF09DA8D2EF10F01D
:1021A000D4EF10F0DDEF10F09EA8D9EF10F0DBEFC8
:1021B00010F0DDEF10F0E5EC19F09DAAE2EF10F061
:1021C000E4EF10F0EDEF10F09EAAE9EF10F0EBEF66
:1021D00010F0EDEF10F077EC1BF01200F2A8F3EF27
:1021E00010F0F5EF10F0FEEF10F0F2A2FAEF10F0A1
:1021F000FCEF10F0FEEF10F071EC1BF0F0A603EF17
:1022000011F005EF11F00EEF11F0F0A00AEF11F050
:102210000CEF11F00EEF11F06FEC1BF0F0A813EFC4
:1022200011F015EF11F01EEF11F0F0A21AEF11F0FE
:102230001CEF11F01EEF11F06DEC1BF0F2A623EF76
:1022400011F025EF11F040EF11F0F2A02AEF11F09C
:102250002CEF11F040EF11F081A831EF11F033EFC6
:1022600011F040EF11F05804D8A439EF11F03BEF12
:1022700011F040EF11F0000E586E010E0CEC1BF047
:10228000F2A645EF11F047EF11F062EF11F0F2A066
:102290004CEF11F04EEF11F062EF11F081B853EFF7
:1022A00011F055EF11F062EF11F05850D8A45BEF28
:1022B00011F05DEF11F062EF11F0010E586E000E9B
:1022C0000CEC1BF0F2A667EF11F069EF11F084EF50
:1022D00011F0F2A06EEF11F070EF11F084EF11F039
:1022E00081AA75EF11F077EF11F084EF11F0570428
:1022F000D8A47DEF11F07FEF11F084EF11F0000E04
:10230000576E010EFFEC1AF0F2A689EF11F08BEF79
:1023100011F0A6EF11F0F2A090EF11F092EF11F092
:10232000A6EF11F081BA97EF11F099EF11F0A6EF37
:1023300011F05750D8A49FEF11F0A1EF11F0A6EFC4
:1023400011F0010E576E000EFFEC1AF0F2A6ABEF83
:1023500011F0ADEF11F0C8EF11F0F2A0B2EF11F0F3
:10236000B4EF11F0C8EF11F081ACB9EF11F0BBEF91
:1023700011F0C8EF11F05604D8A4C1EF11F0C3EF6B
:1023800011F0C8EF11F0000E566E010EF2EC1AF0CB
:10239000F2A6CDEF11F0CFEF11F0EAEF11F0F2A0BD
:1023A000D4EF11F0D6EF11F0EAEF11F081BCDBEFC2
:1023B00011F0DDEF11F0EAEF11F05650D8A4E3EF81
:1023C00011F0E5EF11F0EAEF11F0010E566E000E7C
:1023D000F2EC1AF0F2A6EFEF11F0F1EF11F00CEFC2
:1023E00012F0F2A0F6EF11F0F8EF11F00CEF12F08E
:1023F00081AEFDEF11F0FFEF11F00CEF12F055047C
:10240000D8A405EF12F007EF12F00CEF12F0000E57
:10241000556E010EE5EC1AF0F2A611EF12F013EF73
:1024200012F02EEF12F0F2A018EF12F01AEF12F0E5
:102430002EEF12F081BE1FEF12F021EF12F02EEFFF
:1024400012F05550D8A427EF12F029EF12F02EEF1A
:1024500012F0010E556E000EE5EC1AF09DAC33EF54
:1024600012F035EF12F03EEF12F09EAC3AEF12F0A0
:102470003CEF12F03EEF12F075EC1BF0F2AA43EFC6
:1024800012F045EF12F04EEF12F0F2A44AEF12F004
:102490004CEF12F04EEF12F065EC19F09DA053EFE7
:1024A00012F055EF12F05EEF12F09EA05AEF12F00C
:1024B0005CEF12F05EEF12F052EC1BF09DA263EFA6
:1024C00012F065EF12F06EEF12F09EA26AEF12F0BA
:1024D0006CEF12F06EEF12F05CEC1BF0A0A273EF49
:1024E00012F075EF12F07EEF12F0A1A27AEF12F067
:1024F0007CEF12F07EEF12F080EC19F09DA483EFD8
:1025000012F085EF12F08EEF12F09EA48AEF12F017
:102510008CEF12F08EEF12F02AEC1AF0A0A093EFDD
:1025200012F095EF12F09EEF12F0A1A09AEF12F0C8
:102530009CEF12F09EEF12F073EC1BF09DA8A3EF3E
:1025400012F0A5EF12F0AEEF12F09EA8AAEF12F073
:10255000ACEF12F0AEEF12F013EC1AF09DAAB3EF4D
:1025600012F0B5EF12F0BEEF12F09EAABAEF12F021
:10257000BCEF12F0BEEF12F078EC1BF012002E6EE2
:102580002E50D8B4C6EF12F0C8EF12F0EAEF12F0F6
:1025900029BECFEF12F0CDEF12F0EAEF12F026C015
:1025A0002AF027C02BF028C02CF029C02DF02A1EBD
:1025B0002B1E2C1E2D1E2A2A000E2B222C222D22F1
:1025C0002AC030F02BC031F02CC032F02DC033F0D7
:1025D000F2EF12F026C030F027C031F028C032F000
:1025E00029C033F02650271028102910D8A4FBEF5B
:1025F00012F0FDEF12F007EF13F0000E266E000E42
:10260000276E000E286E000E296E98EF13F0960EBE
:102610002F6E11EF13F02F2AD8903332323231322D
:102620003032000E30142A6E000E31142B6E000E64
:1026300032142C6EFE0E33142D6E2A502B102C10DB
:102640002D10D8A426EF13F028EF13F00BEF13F0A2
:1026500036EF13F02F2A010E3026000E31223222DF
:102660003322D8903332323231323032000E3014CD
:102670002A6E000E31142B6E000E32142C6EFF0EDB
:1026800033142D6E2A502B102C102D10D8A44BEF84
:1026900013F04DEF13F02AEF13F055EF13F02F0660
:1026A000D890303631363236333632BE5AEF13F0E8
:1026B0005CEF13F064EF13F0020E2F6062EF13F083
:1026C00064EF13F04FEF13F02FB069EF13F06BEFDF
:1026D00013F06CEF13F0329ED8902F322FC02AF0F7
:1026E0002B6A2C6A2D6A2AC02DF02C6A2B6A2A6A62
:1026F0002A5030122B5031122C5032122D503312DE
:102700002E50D8B486EF13F088EF13F090EF13F04B
:1027100029BE8FEF13F08DEF13F090EF13F0338E8F
:1027200030C026F031C027F032C028F033C029F085
:102730001200010E2E6E26502710D8B4A2EF13F00F
:10274000A4EF13F0B5EF13F026C0D9FF27C0DAFFCE
:10275000DF30E832E832070B286E070E2864B3EF4B
:1027600013F0B5EF13F018EF14F0000E2E6E39EFE2
:1027700014F026C0D9FF27C0DAFFDF30E832E83294
:10278000070B286E010E296E282AC9EF13F0D89086
:102790002936282EC7EF13F02950FF0A2A6E26C0CB
:1027A000D9FF27C0DAFFDF50070B2B6E2B50020D2D
:1027B000C60EF324D96E000EF420DA6EDECF2CF0B4
:1027C000DDCF2DF02CC0D9FF2DC0DAFF2A50DF1647
:1027D00039EF14F026C0D9FF27C0DAFFDF30E83226
:1027E000E832070B286E010E296E282AFAEF13F043
:1027F000D8902936282EF8EF13F026C0D9FF27C02D
:10280000DAFFDF50070B2A6E2A50020DC60EF324A2
:10281000D96E000EF420DA6EDECF2BF0DDCF2CF077
:102820002BC0D9FF2CC0DAFF2950DF1239EF14F08A
:1028300026C0D9FF27C0DAFFDFBC21EF14F024EF58
:1028400014F0010E25EF14F0000E286E296A2950AD
:10285000000AD8B42EEF14F0B5EF13F02850000A98
:10286000D8B4B9EF13F0010AD8B4EAEF13F0B5EF1A
:1028700013F02E501200010E2F6E26502710D8B4E0
:1028800044EF14F046EF14F057EF14F026C0D9FFD0
:1028900027C0DAFFDF30E832E832070B296E070E77
:1028A000296455EF14F057EF14F0BAEF14F0000E4E
:1028B0002F6ECFEF14F026C0D9FF27C0DAFFDF302C
:1028C000E832E832070B296E010E2A6E292A6BEFD7
:1028D00014F0D8902A36292E69EF14F02A50FF0AF6
:1028E0002B6E26C0D9FF27C0DAFFDF50070B2C6EF6
:1028F0002C50020DBC0EF324D96E000EF420DA6EBB
:10290000DECF2DF0DDCF2EF02DC0D9FF2EC0DAFFA7
:102910002B50DF16CFEF14F026C0D9FF27C0DAFF07
:10292000DF30E832E832070B296E010E2A6E292AC1
:102930009CEF14F0D8902A36292E9AEF14F026C076
:10294000D9FF27C0DAFFDF50070B2B6E2B50020D8B
:10295000BC0EF324D96E000EF420DA6EDECF2CF01C
:10296000DDCF2DF02CC0D9FF2DC0DAFF2A50DF12A9
:10297000CFEF14F02850296E2A6A2A50000AD8B4E2
:10298000C4EF14F057EF14F02950000AD8B45BEFED
:1029900014F0010AD8B48CEF14F057EF14F02F5054
:1029A0001200283429342F6E2F50D8A4DAEF14F0F7
:1029B000DCEF14F0E6EF14F0000E266E000E276E2A
:1029C000000E286E000E296E53EF15F026C02AF077
:1029D00027C02BF028C02CF029C02DF0200EF6EFD8
:1029E00014F0D8902D322C322B322A32E82EF1EF0F
:1029F00014F02A502E6E288EFF0E2616FF0E271674
:102A0000FF0E2816000E2916960E2F5E2FBE0DEF14
:102A100015F00BEF15F023EF15F02F50800A970FEC
:102A2000D8B015EF15F017EF15F019EF15F0DCEF32
:102A300014F0D89029322832273226322F3E19EF4F
:102A400015F03BEF15F01F0E2F6429EF15F02BEF5B
:102A500015F033EF15F0DCEF14F0D890263627365A
:102A6000283629362F062F50D8A439EF15F03BEF22
:102A700015F02DEF15F02E50D8B441EF15F043EFBF
:102A800015F04BEF15F0291E281E271E266C000E90
:102A900027222822292226C026F027C027F028C076
:102AA00028F029C029F0120020EE08F02650D9267F
:102AB0002750DA22DFA05FEF15F061EF15F0BBEFD2
:102AC00015F0AB8820EE08F02650D9262750DA22E0
:102AD000DFA402D0AB8C01D0AB9C20EE08F02650D6
:102AE000D9262750DA22DFA202D09D8A01D09D9AF2
:102AF00020EE0DF02650D9262750DA22DECF9EF0A8
:102B0000DDCF9FF020EE0FF02650D9262750DA2295
:102B1000DECF9CF0DDCF9DF020EE11F02650D926BF
:102B20002750DA22DECF9AF0DDCF9BF0D08E20EE58
:102B300007F02650D9262750DA22DE04D8A4A3EFC6
:102B400015F0A5EF15F0A9EF15F0F28E9F8ABBEFF7
:102B500015F020EE07F02650D9262750DA22DF5054
:102B6000D8A4B5EF15F0B7EF15F0BBEF15F0F28C68
:102B70009F9ABBEF15F0120020EE06F02650D926E2
:102B80002750DA22DFA0C7EF15F0C9EF15F00FEFDD
:102B900016F0AC8A20EE06F02650D9262750DA220D
:102BA000DFA402D0AC8C01D0AC9C20EE06F0265005
:102BB000D9262750DA22DFA202D09D8801D09D9825
:102BC00020EE0BF02650D9262750DA22DECF36F041
:102BD000DDCF37F0D08E20EE05F02650D9262750D5
:102BE000DA22DE04D8A4F7EF15F0F9EF15F0FDEFC7
:102BF00015F0F28E9F880FEF16F020EE05F02650AC
:102C0000D9262750DA22DF50D8A409EF16F00BEFAF
:102C100016F00FEF16F0F28C9F980FEF16F01200DF
:102C200012501310D8B417EF16F019EF16F02AEF60
:102C300016F012C0D9FF13C0DAFFDF30E832E832F5
:102C4000070B146E070E146428EF16F02AEF16F027
:102C50002CEF16F058EF16F012C0D9FF13C0DAFFB0
:102C6000DF30E832E832070B146E010E156E142ABD
:102C70003CEF16F0D8901536142E3AEF16F012C02D
:102C8000D9FF13C0DAFFDF50070B166E1650020D86
:102C9000BC0EF324D96E000EF420DA6EDECF17F0EE
:102CA000DDCF18F017C0D9FF18C0DAFF1550DF1AB2
:102CB000120001500210D8B460EF16F062EF16F067
:102CC00073EF16F001C0D9FF02C0DAFFDF30E8323F
:102CD000E832070B036E070E036471EF16F073EF13
:102CE00016F075EF16F0A1EF16F001C0D9FF02C083
:102CF000DAFFDF30E832E832070B036E010E046EB4
:102D0000032A85EF16F0D8900436032E83EF16F0D1
:102D100001C0D9FF02C0DAFFDF50070B056E055076
:102D2000020DBC0EF324D96E000EF420DA6EDECF55
:102D300006F0DDCF07F006C0D9FF07C0DAFF045068
:102D4000DF1A12009C0EF66E330EF76E000EF86E50
:102D500001EE00F010EE2EF00900F5CFEEFFE55089
:102D6000E150FAE16A0EF66E330EF76E000EF86E61
:102D700000EEBCF010EE32F00900F5CFEEFFE550AA
:102D8000E150FAE1C00EF66E360EF76E000EF86EE8
:102D900000EE54F010EE06F00900F5CFEEFFE5501E
:102DA000E150FAE101EE52F00B0EEE6AE806FDE1A9
:102DB00000EE80F03C0EEE6AE806FDE100EE36F033
:102DC0001E0EEE6AE806FDE15A905A92000119EFD4
:102DD0001BF0010E0001EE6F33503410D8A4F3EF56
:102DE00016F0F5EF16F0F9EF16F0000EEE6F27EF84
:102DF00017F04EC0EFF033C0D9FF34C0DAFFDF5018
:102E00000F0B356EEF513518F80B3518EF6F33C0D7
:102E1000D9FF34C0DAFFDF38070B356E354635464B
:102E20003546EF513518C70B3518EF6FEF9D33C09E
:102E3000D9FF34C0DAFFDFAE02D0EF8F02D000013D
:102E4000EF9FEF0E306E000E316EB5EC18F0000102
:102E5000EE51120019501A10D8A431EF17F033EFC9
:102E600017F035EF17F062EF17F04BC01CF019C0E8
:102E7000D9FF1AC0DAFFDF500F0B1B6E1C501B1856
:102E8000F80B1B181C6E19C0D9FF1AC0DAFFDF3807
:102E9000070B1B6E1B461B461B461C501B18C70B03
:102EA0001B181C6E1C9C19C0D9FF1AC0DAFFDFAEBC
:102EB00002D01C8E01D01C9E1C0E126E000E136ED2
:102EC00010EC16F0120008500910D8A46AEF17F0A1
:102ED0006CEF17F06EEF17F09BEF17F04BC00BF095
:102EE00008C0D9FF09C0DAFFDF500F0B0A6E0B5084
:102EF0000A18F80B0A180B6E08C0D9FF09C0DAFFD0
:102F0000DF38070B0A6E0A460A460A460B500A18B3
:102F1000C70B0A180B6E0B9C08C0D9FF09C0DAFF5B
:102F2000DFAE02D00B8E01D00B9E0B0E016E000E99
:102F3000026E59EC16F012005AA2A1EF17F0D2EF70
:102F400017F0492A482A4904D8A4A9EF17F0ABEF93
:102F500017F0C0EF17F0E20E126E000E136E000EA7
:102F6000156E000E146E66EC1AF0000E00018E6FE6
:102F7000000E8F6F000E906F000E916FD1EF17F063
:102F8000020E4918D8A4C7EF17F0C9EF17F0D1EF18
:102F900017F0000E496E4F0E126E000E136EF7EC16
:102FA00018F01200492A482A4904D8A4DAEF17F089
:102FB000DCEF17F0F1EF17F0E20E016E000E026E7B
:102FC000000E046E000E036E86EC1AF0000E000177
:102FD0008E6F000E8F6F000E906F000E916F02EFDC
:102FE00018F0020E4918D8A4F8EF17F0FAEF17F00E
:102FF00002EF18F0000E496E4F0E016E000E026EC9
:1030000013EC19F01200000E186E000E196E12501B
:103010001310D8B40EEF18F010EF18F019EF18F0E5
:1030200014501510D8A417EF18F019EF18F01BEF73
:1030300018F031EF18F0CECF18F0CFCF19F01850AC
:1030400019C016F0176A16C017F0166A1626000E79
:10305000172214C0D9FF15C0DAFF16C0DEFF17C053
:10306000DDFF1200000E076E000E086E0150021008
:10307000D8B43DEF18F03FEF18F048EF18F00350C8
:103080000410D8A446EF18F048EF18F04AEF18F0F3
:1030900060EF18F0CECF07F0CFCF08F0075008C090
:1030A00005F0066A05C006F0056A0526000E062230
:1030B00003C0D9FF04C0DAFF05C0DEFF06C0DDFF94
:1030C000120027502810D8A468EF18F06AEF18F003
:1030D00079EF18F0000E296E8AEF18F027C0F6FF7E
:1030E00028C0F7FFF86A0800F55025EC1BF0274AC6
:1030F000282A27C0F6FF28C0F7FFF86A0800F55015
:103100000009D8A486EF18F088EF18F06EEF18F0D9
:10311000010E296E2950120001014F515011D8A4FF
:1031200094EF18F096EF18F09AEF18F0000E516F28
:10313000B3EF18F0AB9E948E948C4FC1FEF050C14B
:10314000FFF006EC08F04FC126F050C127F0BCECB0
:1031500015F04FC126F050C127F054EC15F0AB8E9E
:10316000010E0101516F5151120030503110D8A49D
:10317000BCEF18F0BEEF18F0C2EF18F0000E326E80
:10318000D8EF18F030C026F031C027F099EC13F0DA
:10319000326E30C026F031C027F030C0D9FF31C0C8
:1031A000DAFF000EDFBE010E286E3BEC14F0321683
:1031B000325012000600FACF0CF0FBCF0DF0D9CF41
:1031C0000EF0DACF0FF0F3CF10F0F4CF11F0EEECF9
:1031D00010F011C0F4FF10C0F3FF0FC0DAFF0EC0F3
:1031E000D9FF0DC0FBFF0CC0FAFF5A921100A0C01E
:1031F00014F0A1C015F012501310D8A402EF19F06A
:1032000004EF19F006EF19F012EF19F0BECF14F029
:10321000BFCF15F012C0D9FF13C0DAFF14C0DEFF14
:1032200015C0DDFF1200A0C003F0A1C004F00150E2
:103230000210D8A41EEF19F020EF19F022EF19F0B8
:103240002EEF19F0BECF03F0BFCF04F001C0D9FFBD
:1032500002C0DAFF03C0DEFF04C0DDFF1200F294FB
:103260004150D76E40C0D6FF42504310D8B43BEF18
:1032700019F03DEF19F049EF19F002D849EF19F0B4
:103280000500FA6E4250FD6E4350FE6EFF6AFA5022
:1032900012001200A1923B50B36E3AC0B2FF3C50F4
:1032A0003D10D8B456EF19F058EF19F064EF19F04B
:1032B00002D864EF19F00500FA6E3C50FD6E3D50E7
:1032C000FE6EFF6AFA5012001200F2944150D76E5F
:1032D00040C0D6FF42504310D8B471EF19F073EFDD
:1032E00019F07FEF19F002D87FEF19F00500FA6EA0
:1032F0004250FD6E4350FE6EFF6AFA5012001200FB
:10330000A1923B50B36E3AC0B2FF3C503D10D8B4CE
:103310008CEF19F08EEF19F09AEF19F002D89AEFAE
:1033200019F00500FA6E3C50FD6E3D50FE6EFF6ACE
:10333000FA50120012005AA2A0EF19F041EF1AF051
:10334000E80E126E000E136E530E146E000E156E04
:1033500003EC18F0E80E126E000E136E000E156EE0
:10336000000E146E56EC1AF01200890F8A0F8B0FA4
:103370008C0F8D0F920F930F940F950F960F005295
:10338000382F010500020A121A222A00000100004B
:10339000483500000000000001000024800F810F6C
:1033A000820F830F840F323A030B131B232B333B03
:1033B00036330104DC0B0780250000000103000305
:1033C000000062360000000000009D983650371063
:1033D000D8B4EDEF19F0EFEF19F0FBEF19F002D8C8
:1033E000FBEF19F00500FA6E3650FD6E3750FE6E99
:1033F000FF6AFA50120012009E9438503910D8B467
:1034000004EF1AF006EF1AF012EF1AF002D812EFDA
:103410001AF00500FA6E3850FD6E3950FE6EFF6AE4
:10342000FA50120012009D9836503710D8B41BEF96
:103430001AF01DEF1AF029EF1AF002D829EF1AF04E
:103440000500FA6E3650FD6E3750FE6EFF6AFA5078
:10345000120012009E9438503910D8B432EF1AF08E
:1034600034EF1AF040EF1AF002D840EF1AF00500DE
:10347000FA6E3850FD6E3950FE6EFF6AFA50120037
:103480001200E80E016E000E026E530E036E000E67
:10349000046E32EC18F0E80E016E000E026E000EA3
:1034A000046E000E036E76EC1AF012001250131028
:1034B000D8A45DEF1AF05FEF1AF061EF1AF065EF34
:1034C0001AF01550CF6E14C0CEFF12001250131018
:1034D000D8A46DEF1AF06FEF1AF071EF1AF075EFD4
:1034E0001AF01550B36E14C0B2FF12000150021052
:1034F000D8A47DEF1AF07FEF1AF081EF1AF085EF74
:103500001AF00450CF6E03C0CEFF1200015002101B
:10351000D8A48DEF1AF08FEF1AF091EF1AF095EF13
:103520001AF00450B36E03C0B2FF1200590E336E8E
:10353000000E346EE9EC16F01B0E01014F6F010E08
:10354000506F8CEC18F012005AA2A9EF1AF03DEF60
:103550001BF0010E00018E27000E8F239023912374
:103560001200126EF2901250D8A4B9EF1AF0BBEF0D
:103570001AF0BDEF1AF0BDEF1AF01200126EF290C1
:103580001250D8A4C6EF1AF0C8EF1AF0CAEF1AF01A
:10359000CAEF1AF01200126EF2901250D8A4D3EFB4
:1035A0001AF0D5EF1AF0D7EF1AF0D7EF1AF0120091
:1035B000126EF2901250D8A4E0EF1AF0E2EF1AF077
:1035C000E4EF1AF0E4EF1AF01200016EF2900150ED
:1035D000D8A4EDEF1AF0EFEF1AF0F1EF1AF0F1EFD7
:1035E0001AF01200016EF2900150D8A4FAEF1AF00E
:1035F000FCEF1AF0FEEF1AF0FEEF1AF01200016E67
:10360000F2900150D8A407EF1BF009EF1BF00BEF6D
:103610001BF00BEF1BF01200016EF2900150D8A4CA
:1036200014EF1BF016EF1BF018EF1BF018EF1BF058
:10363000120096EC1AF0010E276E100E286E61EC47
:1036400018F01BEF1BF035EF00F0266EACA22BEF4D
:103650001BF02DEF1BF026EF1BF09D8826C0ADFF61
:1036600012005AA236EF1BF045EF1BF0590E196EEF
:10367000000E1A6E2AEC17F01200010E00018E27C0
:10368000000E8F23902391231200590E086E000E16
:10369000096E63EC17F012009E903F50CF6E3EC053
:1036A000CEFF12009E903F50CF6E3EC0CEFF120064
:1036B0009E9246C0CCFF12009E9246C0CCFF1200E4
:1036C000720101010142F0921200F0901200F29298
:1036D0001200A19012009E9C1200F0921200F09035
:1036E0001200F2921200A19012009E9C1200120091
:0236F0001200C6
:020000040020DA
:08000000FFFFFFFFFFFFFFFF00
:020000040030CA
:0E000000FF02091EFF8181FF0FC00FE00F40BD
:00000001FF
