:040000002DEF00F0F0
:06000800648213ED19F003
:100018006480D8CF15F0E8CF16F0E0CF17F0FACF0C
:1000280018F0FBCF19F0D9CF1AF0DACF1BF0E0ECBB
:100038000CF01BC0DAFF1AC0D9FF19C0FBFF18C0AB
:10004800FAFF17C0E0FF16C0E8FF15C0D8FF64909C
:060058001000A0EF15F0FE
:101000000041484D45440D0025690000000E0101D6
:101010003C6F000E3D6F000E3E6F000E3F6F32EFD3
:101020000AF0AC98AC94B896FDC0D9FFFEC0DAFFC8
:10103000DECF1CF0DECF1DF0DECF1EF0DECF1FF0C6
:10104000000E4FEC12F01CC02EF01DC02FF01EC081
:1010500030F01FC031F0000E2A6E240E2B6EF40EFD
:101060002C6E4A0E2D6E82EC10F02AC040F12BC07F
:1010700041F12CC042F12DC043F1000E2E6E000E46
:101080002F6E800E306E420E316E40C12AF041C18B
:101090002BF042C12CF043C12DF082EC10F02AC09D
:1010A0002EF12BC02FF12CC030F12DC031F1000EEC
:1010B0000101326F000E336F800E346FBF0E356F3B
:1010C0007FEC0AF02EC13CF12FC13DF130C13EF161
:1010D00031C13FF15FEF0AF0AC98AC84B896FDC027
:1010E000D9FFFEC0DAFFDECF1CF0DECF1DF0DECF71
:1010F0001EF0DECF1FF0000E4FEC12F01CC02EF0E1
:101100001DC02FF01EC030F01FC031F0000E2A6E3F
:10111000240E2B6EF40E2C6E4A0E2D6E82EC10F007
:101120002AC040F12BC041F12CC042F12DC043F147
:10113000000E2E6E000E2F6E800E306E410E316E40
:1011400040C12AF041C12BF042C12CF043C12DF027
:1011500082EC10F02AC02EF12BC02FF12CC030F100
:101160002DC031F1000E0101326F000E336F800E81
:10117000346FBF0E356F7FEC0AF02EC13CF12FC1EA
:101180003DF130C13EF131C13FF15FEF0AF0AC9863
:10119000AC94B886FDC0D9FFFEC0DAFFDECF1CF0EC
:1011A000DECF1DF0DECF1EF0DECF1FF0000E4FECC5
:1011B00012F01CC02EF01DC02FF01EC030F01FC05A
:1011C00031F0000E2A6E240E2B6EF40E2C6E4A0E99
:1011D0002D6E82EC10F02AC040F12BC041F12CC0E2
:1011E00042F12DC043F1000E2E6E000E2F6E800EC8
:1011F000306E410E316E40C12AF041C12BF042C128
:101200002CF043C12DF082EC10F02AC02EF12BC03F
:101210002FF12CC030F12DC031F1000E0101326FE1
:10122000000E336F800E346FBF0E356F7FEC0AF007
:101230002EC13CF12FC13DF130C13EF131C13FF132
:101240005FEF0AF0AC98AC84B886FDC0D9FFFEC051
:10125000DAFFDECF1CF0DECF1DF0DECF1EF0DECFDA
:101260001FF0000E4FEC12F01CC02EF01DC02FF02E
:101270001EC030F01FC031F0000E2A6E240E2B6EFF
:10128000F40E2C6E4A0E2D6E82EC10F02AC040F146
:101290002BC041F12CC042F12DC043F1000E2E6E47
:1012A000000E2F6E800E306E400E316E40C12AF05F
:1012B00041C12BF042C12CF043C12DF082EC10F063
:1012C0002AC02EF12BC02FF12CC030F12DC031F1EE
:1012D000000E0101326F000E336F800E346FBF0EAF
:1012E000356F7FEC0AF02EC13CF12FC13DF130C1CA
:1012F0003EF131C13FF15FEF0AF0AC88AC94B89693
:10130000FDC0D9FFFEC0DAFFDECF1CF0DECF1DF03E
:10131000DECF1EF0DECF1FF0000E4FEC12F01CC02F
:101320002EF01DC02FF01EC030F01FC031F0000E97
:101330002A6E240E2B6EF40E2C6E4A0E2D6E82EC4D
:1013400010F02AC040F12BC041F12CC042F12DC059
:1013500043F1000E2E6E000E2F6E800E306E400E8A
:10136000316E40C12AF041C12BF042C12CF043C183
:101370002DF082EC10F02AC02EF12BC02FF12CC0E2
:1013800030F12DC031F1000E0101326F000E336FCC
:10139000800E346FBF0E356F7FEC0AF02EC13CF12A
:1013A0002FC13DF130C13EF131C13FF15FEF0AF095
:1013B000AC88B886FDC0D9FFFEC0DAFFDECF1CF0D6
:1013C000DECF1DF0DECF1EF0DECF1FF0000E4FECA3
:1013D00012F01CC02EF01DC02FF01EC030F01FC038
:1013E00031F0000E2A6E240E2B6EF40E2C6E4A0E77
:1013F0002D6E82EC10F02AC040F12BC041F12CC0C0
:1014000042F12DC043F1000E2E6E000E2F6E800EA5
:10141000306E400E316E40C12AF041C12BF042C106
:101420002CF043C12DF082EC10F02AC02EF12BC01D
:101430002FF12CC030F12DC031F1000E0101326FBF
:10144000000E336F800E346FBF0E356F7FEC0AF0E5
:101450002EC13CF12FC13DF130C13EF131C13FF110
:101460005FEF0AF0000120EE04F0FD51D926FE5195
:10147000DA22DF5001013A6F3B6B3B51000AD8B4CE
:1014800044EF0AF05FEF0AF03A51000AD8B411EFC6
:1014900008F0010AD8B46CEF08F0030AD8B4C7EF1B
:1014A00008F0010AD8B422EF09F0070AD8B47DEF9A
:1014B00009F0010AD8B4D8EF09F05FEF0AF03CC197
:1014C0001CF03DC11DF03EC11EF03FC11FF061EC9C
:1014D00014F01C50AF6E3CC11CF03DC11DF03EC16C
:1014E0001EF03FC11FF061EC14F01DC01CF01EC0C7
:1014F0001DF01FC01EF01F6A1C50B06E12000101CB
:101500003151800B366F31513125386F30AF8BEF51
:101510000AF08DEF0AF08EEF0AF038813851D8B416
:1015200094EF0AF096EF0AF0ABEF0AF03829D8A44E
:101530009CEF0AF09EEF0AF0A6EF0AF0000E2E6F65
:10154000000E2F6F000E306F000E316F308F000EC7
:10155000316FB3EF0AF0000E2E6F000E2F6F000EEA
:10156000306F000E316F3551800B376F36513719A0
:10157000D8B4BDEF0AF0BFEF0AF0C0EF0AF0368D25
:1015800035513525376F34AFC8EF0AF0CAEF0AF08E
:10159000CBEF0AF037813751D8B4D1EF0AF0D3EF4F
:1015A0000AF0E8EF0AF03729D8A4D9EF0AF0DBEF08
:1015B0000AF0E3EF0AF0000E326F000E336F000EF8
:1015C000346F000E356F348F000E356FF0EF0AF078
:1015D000000E326F000E336F000E346F000E356F49
:1015E0003851375DD8B0F7EF0AF0F9EF0AF020EF85
:1015F0000BF036ADFEEF0AF000EF0BF002EF0BF050
:10160000800E361B38C139F137C138F139C137F195
:101610002EC139F132C12EF139C132F12FC139F168
:1016200033C12FF139C133F130C139F134C130F157
:1016300039C134F131C139F135C131F139C135F137
:10164000000E396F385137C143F0446A435E000ED3
:10165000445A44BE35EF0BF0445009E11A0E435C86
:10166000D8A035EF0BF037EF0BF06EEF0BF02E51EB
:101670002F1130113111D8A440EF0BF043EF0BF0D4
:10168000010E44EF0BF0000E396F000E2E6F000EAE
:101690002F6F000E306F000E316F37C138F177EFCA
:1016A0000BF039A156EF0BF058EF0BF05EEF0BF09B
:1016B000D89039310109396F60EF0BF0D890393388
:1016C0002EA165EF0BF067EF0BF068EF0BF0398F91
:1016D0003135313330332F332E33382B3751385D9A
:1016E000D8A075EF0BF077EF0BF051EF0BF036BD94
:1016F0007CEF0BF07EEF0BF0BEEF0BF03851D8A46F
:1017000084EF0BF086EF0BF090EF0BF0000E2E6FD6
:10171000000E2F6F000E306F000E316FDFEF0CF0F8
:1017200032512E2733512F23345130233551312359
:1017300031A19DEF0BF09FEF0BF04BEF0CF039A1B7
:10174000A4EF0BF0A6EF0BF0ACEF0BF0D890393113
:101750000109396FAEEF0BF0D89039332EA1B3EFFA
:101760000BF0B5EF0BF0B6EF0BF0398F31353133AD
:1017700030332F332E33382B4BEF0CF032512E5D9C
:1017800033512F59345130593151800A436E3551FC
:10179000800A4358D8B0CFEF0BF0D1EF0BF0FCEF3D
:1017A0000BF02E51325D436E2F513359446E305140
:1017B0003459456E31513559466EFF0E43242E6F14
:1017C000FF0E44202F6FFF0E4520306FFF0E462086
:1017D000316F800E361B396D3951D8A4F2EF0BF002
:1017E000F4EF0BF004EF0CF0010E2E27000E2F2368
:1017F0003023312304EF0CF032512E5F33512F5B35
:101800003451305B3551315B2E512F113011311174
:10181000D8A40DEF0CF00FEF0CF044EF0CF03951A1
:10182000D8A415EF0CF017EF0CF044EF0CF0000EFD
:101830002E6F000E2F6F000E306F000E316FDFEF36
:101840000CF0D8902E372F373037313739AF2BEF98
:101850000CF02DEF0CF02EEF0CF02E8139A133EFB0
:101860000CF035EF0CF039EF0CF0D88039373BEF46
:101870000CF0D89039373851D8B441EF0CF043EF21
:101880000CF044EF0CF0380730AF49EF0CF04BEFA1
:101890000CF021EF0CF0000E376F39AF52EF0CF067
:1018A00054EF0CF06CEF0CF039C143F07F0E43168F
:1018B000D8B45DEF0CF05FEF0CF063EF0CF0010EAD
:1018C000376F6CEF0CF02EA168EF0CF06AEF0CF0A4
:1018D0006CEF0CF05FEF0CF03751D8B472EF0CF0F6
:1018E00074EF0CF09FEF0CF0010E2E27000E2F234B
:1018F0003023312331A17FEF0CF081EF0CF09FEF0B
:101900000CF02EC143F02FC144F030C145F031C17D
:1019100046F04634463245324432433243C02EF11B
:1019200044C02FF145C030F146C031F13829D8B458
:101930009CEF0CF09EEF0CF09FEF0CF0382B382949
:10194000D8B4A5EF0CF0A7EF0CF0AFEF0CF03851C6
:10195000D8A4ADEF0CF0AFEF0CF0C1EF0CF0000E1F
:101960002E6F000E2F6F000E306F000E316F38514A
:10197000D8A4BDEF0CF0BFEF0CF0C1EF0CF0000EDF
:10198000366F38A1C6EF0CF0C8EF0CF0CBEF0CF0BF
:10199000308FCCEF0CF0309FD8903831316F36AFAC
:1019A000D4EF0CF0D6EF0CF0D7EF0CF0318F2EC146
:1019B0002EF12FC12FF130C130F131C131F11200C0
:1019C000F2A8E5EF0CF0E7EF0CF0F0EF0CF0F2A26C
:1019D000ECEF0CF0EEEF0CF0F0EF0CF071EC1AF015
:1019E000F0A6F5EF0CF0F7EF0CF000EF0DF0F0A023
:1019F000FCEF0CF0FEEF0CF000EF0DF06FEC1AF0C6
:101A0000F0A805EF0DF007EF0DF010EF0DF0F0A2CC
:101A10000CEF0DF00EEF0DF010EF0DF06DEC1AF075
:101A2000F2A615EF0DF017EF0DF032EF0DF0F2A06A
:101A30001CEF0DF01EEF0DF032EF0DF081A823EF3B
:101A40000DF025EF0DF032EF0DF06204D8A42BEF6E
:101A50000DF02DEF0DF032EF0DF0000E626E010E65
:101A6000E0EC19F0F2A637EF0DF039EF0DF054EF7E
:101A70000DF0F2A03EEF0DF040EF0DF054EF0DF041
:101A800081B845EF0DF047EF0DF054EF0DF06250C7
:101A9000D8A44DEF0DF04FEF0DF054EF0DF0010E07
:101AA000626E000EE0EC19F0F2A659EF0DF05BEF5C
:101AB0000DF076EF0DF0F2A060EF0DF062EF0DF09B
:101AC00076EF0DF081AA67EF0DF069EF0DF076EF7C
:101AD0000DF06104D8A46FEF0DF071EF0DF076EF0B
:101AE0000DF0000E616E010ED3EC19F0F2A67BEF43
:101AF0000DF07DEF0DF098EF0DF0F2A082EF0DF0FC
:101B000084EF0DF098EF0DF081BA89EF0DF08BEFB7
:101B10000DF098EF0DF06150D8A491EF0DF093EF18
:101B20000DF098EF0DF0010E616E000ED3EC19F080
:101B3000F2A69DEF0DF09FEF0DF0BAEF0DF0F2A0C1
:101B4000A4EF0DF0A6EF0DF0BAEF0DF081ACABEF06
:101B50000DF0ADEF0DF0BAEF0DF06004D8A4B3EFC7
:101B60000DF0B5EF0DF0BAEF0DF0000E606E010E46
:101B7000C6EC19F0F2A6BFEF0DF0C1EF0DF0DCEFEF
:101B80000DF0F2A0C6EF0DF0C8EF0DF0DCEF0DF098
:101B900081BCCDEF0DF0CFEF0DF0DCEF0DF060501C
:101BA000D8A4D5EF0DF0D7EF0DF0DCEF0DF0010E5E
:101BB000606E000EC6EC19F0F2A6E1EF0DF0E3EF57
:101BC0000DF0FEEF0DF0F2A0E8EF0DF0EAEF0DF0F2
:101BD000FEEF0DF081AEEFEF0DF0F1EF0DF0FEEF47
:101BE0000DF05F04D8A4F7EF0DF0F9EF0DF0FEEF64
:101BF0000DF0000E5F6E010EB9EC19F0F2A603EFC6
:101C00000EF005EF0EF020EF0EF0F2A00AEF0EF04E
:101C10000CEF0EF020EF0EF081BE11EF0EF013EF7F
:101C20000EF020EF0EF05F50D8A419EF0EF01BEF6E
:101C30000EF020EF0EF0010E5F6E000EB9EC19F001
:101C40009DAC25EF0EF027EF0EF030EF0EF09EACBE
:101C50002CEF0EF02EEF0EF030EF0EF075EC1AF0C8
:101C6000F2AA35EF0EF037EF0EF040EF0EF0F2A4CF
:101C70003CEF0EF03EEF0EF040EF0EF09EEC17F052
:101C80009DA045EF0EF047EF0EF050EF0EF09EA036
:101C90004CEF0EF04EEF0EF050EF0EF056EC1AF047
:101CA0009DA255EF0EF057EF0EF060EF0EF09EA2E2
:101CB0005CEF0EF05EEF0EF060EF0EF062EC1AF0EB
:101CC000A0A265EF0EF067EF0EF070EF0EF0A1A28C
:101CD0006CEF0EF06EEF0EF070EF0EF0B9EC17F047
:101CE0009DA475EF0EF077EF0EF080EF0EF09EA43E
:101CF0007CEF0EF07EEF0EF080EF0EF0CEEC18F0E1
:101D0000A0A085EF0EF087EF0EF090EF0EF0A1A0EF
:101D10008CEF0EF08EEF0EF090EF0EF073EC1AF0E9
:101D20009DA895EF0EF097EF0EF0A0EF0EF09EA895
:101D30009CEF0EF09EEF0EF0A0EF0EF0B7EC18F057
:101D40009DAAA5EF0EF0A7EF0EF0B0EF0EF09EAA41
:101D5000ACEF0EF0AEEF0EF0B0EF0EF070EC18F04E
:101D60001200F2A8B6EF0EF0B8EF0EF0C1EF0EF0D1
:101D7000F2A2BDEF0EF0BFEF0EF0C1EF0EF07BEC64
:101D80001AF0F0A6C6EF0EF0C8EF0EF0D1EF0EF08D
:101D9000F0A0CDEF0EF0CFEF0EF0D1EF0EF079EC1A
:101DA0001AF0F0A8D6EF0EF0D8EF0EF0E1EF0EF03B
:101DB000F0A2DDEF0EF0DFEF0EF0E1EF0EF077ECCA
:101DC0001AF0F2A6E6EF0EF0E8EF0EF003EF0FF0D8
:101DD000F2A0EDEF0EF0EFEF0EF003EF0FF081A8A1
:101DE000F4EF0EF0F6EF0EF003EF0FF06204D8A45C
:101DF000FCEF0EF0FEEF0EF003EF0FF0000E626E40
:101E0000010E21EC1AF0F2A608EF0FF00AEF0FF026
:101E100025EF0FF0F2A00FEF0FF011EF0FF025EF0D
:101E20000FF081B816EF0FF018EF0FF025EF0FF05D
:101E30006250D8A41EEF0FF020EF0FF025EF0FF047
:101E4000010E626E000E21EC1AF0F2A62AEF0FF0DE
:101E50002CEF0FF047EF0FF0F2A031EF0FF033EF60
:101E60000FF047EF0FF081AA38EF0FF03AEF0FF0C5
:101E700047EF0FF06104D8A440EF0FF042EF0FF0EE
:101E800047EF0FF0000E616E010E14EC1AF0F2A68F
:101E90004CEF0FF04EEF0FF069EF0FF0F2A053EFA1
:101EA0000FF055EF0FF069EF0FF081BA5AEF0FF016
:101EB0005CEF0FF069EF0FF06150D8A462EF0FF004
:101EC00064EF0FF069EF0FF0010E616E000E14EC7D
:101ED0001AF0F2A66EEF0FF070EF0FF08BEF0FF02D
:101EE000F2A075EF0FF077EF0FF08BEF0FF081ACF2
:101EF0007CEF0FF07EEF0FF08BEF0FF06004D8A4B3
:101F000084EF0FF086EF0FF08BEF0FF0000E606E96
:101F1000010E07EC1AF0F2A690EF0FF092EF0FF01F
:101F2000ADEF0FF0F2A097EF0FF099EF0FF0ADEFDC
:101F30000FF081BC9EEF0FF0A0EF0FF0ADEF0FF0B0
:101F40006050D8A4A6EF0FF0A8EF0FF0ADEF0FF0A0
:101F5000010E606E000E07EC1AF0F2A6B2EF0FF061
:101F6000B4EF0FF0CFEF0FF0F2A0B9EF0FF0BBEF2F
:101F70000FF0CFEF0FF081AEC0EF0FF0C2EF0FF018
:101F8000CFEF0FF05F04D8A4C8EF0FF0CAEF0FF047
:101F9000CFEF0FF0000E5F6E010EFAEC19F0F2A613
:101FA000D4EF0FF0D6EF0FF0F1EF0FF0F2A0DBEF70
:101FB0000FF0DDEF0FF0F1EF0FF081BEE2EF0FF069
:101FC000E4EF0FF0F1EF0FF05F50D8A4EAEF0FF05D
:101FD000ECEF0FF0F1EF0FF0010E5F6E000EFAEC78
:101FE00019F09DACF6EF0FF0F8EF0FF001EF10F0E5
:101FF0009EACFDEF0FF0FFEF0FF001EF10F07FEC64
:102000001AF0F2AA06EF10F008EF10F011EF10F03E
:10201000F2A40DEF10F00FEF10F011EF10F0D4EC70
:1020200017F09DA016EF10F018EF10F021EF10F050
:102030009EA01DEF10F01FEF10F021EF10F05CECF0
:102040001AF09DA226EF10F028EF10F031EF10F0FB
:102050009EA22DEF10F02FEF10F031EF10F066EC94
:102060001AF0A0A236EF10F038EF10F041EF10F0A8
:10207000A1A23DEF10F03FEF10F041EF10F0EFECB8
:1020800017F09DA446EF10F048EF10F051EF10F05C
:102090009EA44DEF10F04FEF10F051EF10F0FCEC5C
:1020A00018F0A0A056EF10F058EF10F061EF10F00C
:1020B000A1A05DEF10F05FEF10F061EF10F07DEC8C
:1020C0001AF09DA866EF10F068EF10F071EF10F0B5
:1020D0009EA86DEF10F06FEF10F071EF10F0E5ECCF
:1020E00018F09DAA76EF10F078EF10F081EF10F065
:1020F0009EAA7DEF10F07FEF10F081EF10F088ECDA
:1021000018F012002D50800B3A6E2D502D24416E88
:102110002CAE8DEF10F08FEF10F090EF10F04180AB
:102120004150D8B496EF10F098EF10F0ADEF10F0EA
:102130004128D8A49EEF10F0A0EF10F0A8EF10F007
:10214000000E2A6E000E2B6E000E2C6E000E2D6EF1
:102150002C8E000E2D6EB5EF10F0000E2A6E000EC4
:102160002B6E000E2C6E000E2D6E3150800B3A1A25
:1021700031503124426E30AEC0EF10F0C2EF10F09B
:10218000C3EF10F042804250D8B4C9EF10F0CBEF4B
:1021900010F0E0EF10F04228D8A4D1EF10F0D3EF08
:1021A00010F0DBEF10F0000E2E6E000E2F6E000E02
:1021B000306E000E316E308E000E316EE8EF10F092
:1021C000000E2E6E000E2F6E000E306E000E316E61
:1021D0002E502F1030103110D8A4F1EF10F0F3EF83
:1021E00010F00BEF11F0000E2A6E000E2B6E000E99
:1021F0002C6E000E2D6E800E2C127F0E2D123A507A
:102200002D122AC02AF02BC02BF02CC02CF02DC090
:102210002DF04EEF12F04150D8A411EF11F013EF52
:1022200011F01DEF11F0000E2A6E000E2B6E000E45
:102230002C6E000E2D6E4EEF12F0425041C032F067
:10224000336A325E000E335A7F0E32243B6E000E2C
:1022500033203C6E2AC036F02BC037F02CC038F04B
:102260002DC039F0000E2A6E000E2B6E000E2C6E63
:10227000000E2D6E000E3D6E000E3E6E000E3F6E87
:10228000000E406E000E426E7EEF11F04250D8B448
:102290004CEF11F04EEF11F065EF11F0D89036369B
:1022A000373638363936D8902A362B362C362D36F6
:1022B00040AE5DEF11F05FEF11F060EF11F02A809A
:1022C000D8903D363E363F3640362E50365C2F5045
:1022D00037583050385831503958D8A072EF11F073
:1022E00074EF11F07DEF11F0408C2E50365E2F50C0
:1022F000375A3050385A3150395A422A190E4264EE
:1023000084EF11F086EF11F046EF11F036503710E0
:1023100038103910D8B48FEF11F091EF11F0A9EF08
:1023200011F03D80A9EF11F0D8902A362B362C36CB
:102330002D3640AE9EEF11F0A0EF11F0A1EF11F09D
:102340002A80D8903D363E363F3640363B06D8A0F0
:102350003C062CAEAEEF11F0B0EF11F094EF11F09F
:10236000000E426E40AEB7EF11F0B9EF11F0DDEFA5
:1023700011F0FF0E3D14326EFF0E3E14336EFF0E51
:102380003F14346E7F0E4014356E325033103410CB
:102390003510D8B4CEEF11F0D0EF11F0D4EF11F02A
:1023A000010E426EDDEF11F02AA0D9EF11F0DBEF44
:1023B00011F0DDEF11F0D0EF11F04250D8B4E3EF9F
:1023C00011F0E5EF11F009EF12F0010E2A26000ED0
:1023D0002B222C222D222DA0F0EF11F0F2EF11F084
:1023E00009EF12F02AC032F02BC033F02CC034F0C9
:1023F0002DC035F03534353234323332323232C0DA
:102400002AF033C02BF034C02CF035C02DF03B4AFD
:102410003C2A3CBE14EF12F03C5008E13B28D8A007
:1024200014EF12F016EF12F021EF12F0000E3C6ED6
:102430003B68000E2A6E000E2B6E000E2C6E000EF6
:102440002D6E3CBE2EEF12F03C5006E13B04D8B09E
:102450002CEF12F02EEF12F03CEF12F0000E3C6E5B
:10246000000E3B6E000E2A6E000E2B6E000E2C6EC0
:10247000000E2D6E000E3A6E3BC041F041A043EFBE
:1024800012F045EF12F048EF12F02C8E49EF12F0E7
:102490002C9ED89041302D6EFFEF10F01200246E6C
:1024A0002450D8B456EF12F058EF12F07AEF12F031
:1024B0001FBE5FEF12F05DEF12F07AEF12F01CC05A
:1024C00020F01DC021F01EC022F01FC023F0201EEE
:1024D000211E221E231E202A000E21222222232218
:1024E00020C026F021C027F022C028F023C029F008
:1024F00082EF12F01CC026F01DC027F01EC028F08D
:102500001FC029F01C501D101E101F10D8A48BEFE7
:1025100012F08DEF12F097EF12F0000E1C6E000E0D
:102520001D6E000E1E6E000E1F6E28EF13F0960E2D
:10253000256EA1EF12F0252AD890293228322732B1
:102540002632000E2614206E000E2714216E000E77
:102550002814226EFE0E2914236E20502110221002
:102560002310D8A4B6EF12F0B8EF12F09BEF12F0E0
:10257000C6EF12F0252A010E2626000E2722282259
:102580002922D8902932283227322632000E2614EA
:10259000206E000E2714216E000E2814226EFF0EEE
:1025A0002914236E2050211022102310D8A4DBEF11
:1025B00012F0DDEF12F0BAEF12F0E5EF12F025069F
:1025C000D890263627362836293628BEEAEF12F06C
:1025D000ECEF12F0F4EF12F0020E2560F2EF12F0C1
:1025E000F4EF12F0DFEF12F025B0F9EF12F0FBEF8D
:1025F00012F0FCEF12F0289ED890253225C020F072
:10260000216A226A236A20C023F0226A216A206A92
:10261000205026122150271222502812235029120E
:102620002450D8B416EF13F018EF13F020EF13F086
:102630001FBE1FEF13F01DEF13F020EF13F0298ED4
:1026400026C01CF027C01DF028C01EF029C01FF0B6
:102650001200010E246E1C501D10D8B432EF13F07E
:1026600034EF13F045EF13F01CC0D9FF1DC0DAFFA3
:10267000DF30E832E832070B1E6E070E1E6443EFB0
:1026800013F045EF13F0A8EF13F0000E246EC9EF1E
:1026900013F01CC0D9FF1DC0DAFFDF30E832E8328A
:1026A000070B1E6E010E1F6E1E2A59EF13F0D890F5
:1026B0001F361E2E57EF13F01F50FF0A206E1CC04E
:1026C000D9FF1DC0DAFFDF50070B216E2150020D2C
:1026D000D40EF324D96E000EF420DA6EDECF22F091
:1026E000DDCF23F022C0D9FF23C0DAFF2050DF1650
:1026F000C9EF13F01CC0D9FF1DC0DAFFDF30E8328C
:10270000E832070B1E6E010E1F6E1E2A8AEF13F0B1
:10271000D8901F361E2E88EF13F01CC0D9FF1DC0A5
:10272000DAFFDF50070B206E2050020DD40EF32489
:10273000D96E000EF420DA6EDECF21F0DDCF22F06C
:1027400021C0D9FF22C0DAFF1F50DF12C9EF13F0FA
:102750001CC0D9FF1DC0DAFFDFBCB1EF13F0B4EF2E
:1027600013F0010EB5EF13F0000E1E6E1F6A1F501E
:10277000000AD8B4BEEF13F045EF13F01E50000A64
:10278000D8B449EF13F0010AD8B47AEF13F045EF4B
:1027900013F024501200010E256E1C501D10D8B4E9
:1027A000D4EF13F0D6EF13F0E7EF13F01CC0D9FF0E
:1027B0001DC0DAFFDF30E832E832070B1F6E070E6C
:1027C0001F64E5EF13F0E7EF13F04AEF14F0000E8B
:1027D000256E5FEF14F01CC0D9FF1DC0DAFFDF309B
:1027E000E832E832070B1F6E010E206E1F2AFBEF46
:1027F00013F0D89020361F2EF9EF13F02050FF0A67
:10280000216E1CC0D9FF1DC0DAFFDF50070B226EFE
:102810002250020DCA0EF324D96E000EF420DA6E97
:10282000DECF23F0DDCF24F023C0D9FF24C0DAFFB0
:102830002150DF165FEF14F01CC0D9FF1DC0DAFF76
:10284000DF30E832E832070B1F6E010E206E1F2AC0
:102850002CEF14F0D89020361F2E2AEF14F01CC055
:10286000D9FF1DC0DAFFDF50070B216E2150020D8A
:10287000CA0EF324D96E000EF420DA6EDECF22F0F9
:10288000DDCF23F022C0D9FF23C0DAFF2050DF12B2
:102890005FEF14F01E501F6E206A2050000AD8B45B
:1028A00054EF14F0E7EF13F01F50000AD8B4EBEF29
:1028B00013F0010AD8B41CEF14F0E7EF13F0255021
:1028C00012001E341F34256E2550D8A46AEF14F070
:1028D0006CEF14F076EF14F0000E1C6E000E1D6EFF
:1028E000000E1E6E000E1F6EE3EF14F01CC020F0F1
:1028F0001DC021F01EC022F01FC023F0200E86EF65
:1029000014F0D8902332223221322032E82E81EF87
:1029100014F02050246E1E8EFF0E1C16FF0E1D1686
:10292000FF0E1E16000E1F16960E255E25BE9DEF8D
:1029300014F09BEF14F0B3EF14F02550800A970FBA
:10294000D8B0A5EF14F0A7EF14F0A9EF14F06CEFD6
:1029500014F0D8901F321E321D321C32253EA9EFD2
:1029600014F0CBEF14F01F0E2564B9EF14F0BBEF99
:1029700014F0C3EF14F06CEF14F0D8901C361D3631
:102980001E361F3625062550D8A4C9EF14F0CBEF0C
:1029900014F0BDEF14F02450D8B4D1EF14F0D3EFFD
:1029A00014F0DBEF14F01F1E1E1E1D1E1C6C000E0B
:1029B0001D221E221F221CC01CF01DC01DF01EC0A7
:1029C0001EF01FC01FF0120020EE08F01C50D92688
:1029D0001D50DA22DFA0EFEF14F0F1EF14F04BEF0F
:1029E00015F0AB8820EE08F01C50D9261D50DA22D5
:1029F000DFA402D0AB8C01D0AB9C20EE08F01C50C1
:102A0000D9261D50DA22DFA202D09D8A01D09D9ADC
:102A100020EE0DF01C50D9261D50DA22DECF47F0F3
:102A2000DDCF48F020EE0FF01C50D9261D50DA22E1
:102A3000DECFA4F0DDCFA5F020EE11F01C50D9269A
:102A40001D50DA22DECFA2F0DDCFA3F0D08E20EE33
:102A500007F01C50D9261D50DA22DE04D8A433EF2B
:102A600015F035EF15F039EF15F0F28E9F8A4BEF28
:102A700015F020EE07F01C50D9261D50DA22DF5049
:102A8000D8A445EF15F047EF15F04BEF15F0F28C99
:102A90009F9A4BEF15F0120020EE06F01C50D9263D
:102AA0001D50DA22DFA057EF15F059EF15F09FEF18
:102AB00015F0AC8A20EE06F01C50D9261D50DA2203
:102AC000DFA402D0AC8C01D0AC9C20EE06F01C50F0
:102AD000D9261D50DA22DFA202D09D8801D09D9810
:102AE00020EE0BF01C50D9261D50DA22DECF49F023
:102AF000DDCF4AF0D08E20EE05F01C50D9261D50B7
:102B0000DA22DE04D8A487EF15F089EF15F08DEFF7
:102B100015F0F28E9F889FEF15F020EE05F01C5007
:102B2000D9261D50DA22DF50D8A499EF15F09BEF7B
:102B300015F09FEF15F0F28C9F989FEF15F01200A3
:102B4000400EF66E310EF76E000EF86E01EE00F0DC
:102B500010EE2EF00900F5CFEEFFE550E150FAE15E
:102B6000480EF66E300EF76E000EF86E00EECAF0EC
:102B700010EE33F00900F5CFEEFFE550E150FAE139
:102B8000D40EF66E340EF76E000EF86E00EE5FF0A7
:102B900010EE05F00900F5CFEEFFE550E150FAE147
:102BA00001EE46F00B0EEE6AE806FDE100EE80F065
:102BB0004A0EEE6AE806FDE100EE47F0180EEE6AF6
:102BC000E806FDE16490649200012EEF1AF0010E18
:102BD0002C6E29502A10D8A4F0EF15F0F2EF15F062
:102BE000F6EF15F0000E2C6E23EF16F05CC02DF002
:102BF00029C0D9FF2AC0DAFFDF500F0B2B6E2D50F2
:102C00002B18F80B2B182D6E29C0D9FF2AC0DAFF1C
:102C1000DF38070B2B6E2B462B462B462D502B18DF
:102C2000C70B2B182D6E2D9C29C0D9FF2AC0DAFFA7
:102C3000DFAE02D02D8E01D02D9E2D0E266E000E01
:102C4000276E41EC17F02C50120064A22AEF16F008
:102C50005CEF16F0582A0001C42B5804D8A433EFB7
:102C600016F035EF16F04AEF16F0F10E0D6E000E6D
:102C70000E6E000E106E000E0F6E60EC19F0000E5E
:102C80000001966F000E976F000E986F000E996FFF
:102C90005BEF16F0020E5818D8A451EF16F053EF60
:102CA00016F05BEF16F0000E586EC60E0D6E000E9D
:102CB0000E6E66EC17F01200582A0001C42B58045F
:102CC000D8A465EF16F067EF16F07CEF16F0F10E62
:102CD000016E000E026E000E046E000E036E80EC9C
:102CE00019F0000E0001966F000E976F000E986F9E
:102CF000000E996F8DEF16F0020E5818D8A483EFCE
:102D000016F085EF16F08DEF16F0000E586EC60E19
:102D1000016E000E026E82EC17F01200000E136EB0
:102D2000000E146E0D500E10D8B499EF16F09BEFF4
:102D300016F0A4EF16F00F501010D8A4A2EF16F062
:102D4000A4EF16F0A6EF16F0BCEF16F0CECF13F0FE
:102D5000CFCF14F0135014C011F0126A11C012F04A
:102D6000116A1126000E12220FC0D9FF10C0DAFF1F
:102D700011C0DEFF12C0DDFF1200000E076E000E54
:102D8000086E01500210D8B4C8EF16F0CAEF16F062
:102D9000D3EF16F003500410D8A4D1EF16F0D3EF00
:102DA00016F0D5EF16F0EBEF16F0CECF07F0CFCF41
:102DB00008F0075008C005F0066A05C006F0056A6D
:102DC0000526000E062203C0D9FF04C0DAFF05C0A5
:102DD000DEFF06C0DDFF12001D501E10D8A4F3EF69
:102DE00016F0F5EF16F004EF17F0000E1F6E15EF5A
:102DF00017F01DC0F6FF1EC0F7FFF86A0800F55077
:102E00003AEC1AF01D4A1E2A1DC0F6FF1EC0F7FF3D
:102E1000F86A0800F5500009D8A411EF17F013EF75
:102E200017F0F9EF16F0010E1F6E1F50120001018E
:102E300044514511D8A41FEF17F021EF17F026EFEA
:102E400017F0000E0001FF6F3FEF17F0AB9E948E5E
:102E5000948C44C1FDF045C1FEF006EC08F044C17D
:102E60001CF045C11DF04CEC15F044C11CF045C1EF
:102E70001DF0E4EC14F0AB8E010E0001FF6FFF516A
:102E8000120026502710D8A448EF17F04AEF17F089
:102E90004EEF17F0000E286E64EF17F026C01CF0FE
:102EA00027C01DF029EC13F0286E26C01CF027C0A7
:102EB0001DF026C0D9FF27C0DAFF000EDFBE010ECD
:102EC0001E6ECBEC13F0281628501200A6C00FF08F
:102ED000A7C010F00D500E10D8A471EF17F073EFCB
:102EE00017F075EF17F081EF17F0BECF0FF0BFCFDF
:102EF00010F00DC0D9FF0EC0DAFF0FC0DEFF10C00A
:102F0000DDFF1200A6C003F0A7C004F001500210BC
:102F1000D8A48DEF17F08FEF17F091EF17F09DEF1A
:102F200017F0BECF03F0BFCF04F001C0D9FF02C03D
:102F3000DAFF03C0DEFF04C0DDFF1200F29454503C
:102F4000D76E53C0D6FF55505610D8B4AAEF17F01D
:102F5000ACEF17F0B8EF17F002D8B8EF17F0050094
:102F6000FA6E5550FD6E5650FE6EFF6AFA50120012
:102F70001200A1924E50B36E4DC0B2FF4F50501090
:102F8000D8B4C5EF17F0C7EF17F0D3EF17F002D89A
:102F9000D3EF17F00500FA6E4F50FD6E5050FE6EE5
:102FA000FF6AFA5012001200F2945450D76E53C0C8
:102FB000D6FF55505610D8B4E0EF17F0E2EF17F0F7
:102FC000EEEF17F002D8EEEF17F00500FA6E55504D
:102FD000FD6E5650FE6EFF6AFA5012001200A1926A
:102FE0004E50B36E4DC0B2FF4F505010D8B4FBEFEF
:102FF00017F0FDEF17F009EF18F002D809EF18F0FD
:103000000500FA6E4F50FD6E5050FE6EFF6AFA508A
:103010001200120064A20FEF18F028EF19F0F70E5B
:103020000D6E000E0E6E5E0E0F6E000E106E8EECAC
:1030300016F0F70E0D6E000E0E6E000E106E000EE6
:103040000F6E50EC19F01200890F8A0F8B0F8C0F46
:103050008D0F920F930F940F950F960F00524A2CDD
:10306000010500020A121A222A000001000072580B
:0B3070003300000000000001000024FD
:10307C000D500E10D8A445EF18F047EF18F049EF9B
:10308C0018F056EF18F09EAA4EEF18F050EF18F00B
:10309C0047EF18F00DC0D9FF0EC0DAFFAECFDFFF3F
:1030AC00120001500210D8A45EEF18F060EF18F077
:1030BC0062EF18F06FEF18F09EAA67EF18F069EF47
:1030CC0018F060EF18F001C0D9FF02C0DAFFAECFE4
:1030DC00DFFF120047504810D8B477EF18F079EFA3
:1030EC0018F087EF18F002D885EF18F00500FA6E8B
:1030FC004750FD6E4850FE6EFF6AFA50120087EF83
:10310C0018F0120047504810D8B48FEF18F091EF18
:10311C0018F09FEF18F002D89DEF18F00500FA6E2A
:10312C004750FD6E4850FE6EFF6AFA5012009FEF3A
:10313C0018F01200800F810F820F830F840F323A28
:10314C00030B131B232B333B14300104DC0B0780C4
:10315C0025000000010300030000DA337A3200007E
:10316C0000009D9849504A10D8B4BFEF18F0C1EF39
:10317C0018F0CDEF18F002D8CDEF18F00500FA6E6C
:10318C004950FD6E4A50FE6EFF6AFA501200120052
:10319C009E944B504C10D8B4D6EF18F0D8EF18F0D2
:1031AC00E4EF18F002D8E4EF18F00500FA6E4B507B
:1031BC00FD6E4C50FE6EFF6AFA50120012009D9884
:1031CC0049504A10D8B4EDEF18F0EFEF18F0FBEFC0
:1031DC0018F002D8FBEF18F00500FA6E4950FD6E9E
:1031EC004A50FE6EFF6AFA50120012009E944B5029
:1031FC004C10D8B404EF19F006EF19F012EF19F0D7
:10320C0002D812EF19F00500FA6E4B50FD6E4C50BF
:10321C00FE6EFF6AFA50120012000600FACF09F097
:10322C00FBCF0AF0D9CF0BF0DACF0CF0B1EC0EF0EB
:10323C000CC0DAFF0BC0D9FF0AC0FBFF09C0FAFFB4
:10324C0064921100F70E016E000E026E5E0E036E9C
:10325C00000E046EBDEC16F0F70E016E000E026E41
:10326C00000E046E000E036E70EC19F0120064A2D6
:10327C0042EF19F09EEF19F0010E00019227000E9B
:10328C009323942395235D0E0D6E000E0E6E3EEC73
:10329C0018F012000D500E10D8A457EF19F059EF7A
:1032AC0019F05BEF19F05FEF19F01050CF6E0FC0F3
:1032BC00CEFF12000D500E10D8A467EF19F069EF75
:1032CC0019F06BEF19F06FEF19F01050B36E0FC0CF
:1032DC00B2FF120001500210D8A477EF19F079EF69
:1032EC0019F07BEF19F07FEF19F00450CF6E03C08B
:1032FC00CEFF120001500210D8A487EF19F089EF0D
:10330C0019F08BEF19F08FEF19F00450B36E03C066
:10331C00B2FF1200630E296E000E2A6EE7EC15F058
:10332C001B0E0101446F010E456F17EC17F01200D4
:10333C00010E00019227000E9323942395235D0E1A
:10334C00016E000E026E57EC18F0120064A2B1EF81
:10335C0019F046EF1AF0010E00019627000E972384
:10336C009823992312000D6EF2900D50D8A4C1EF42
:10337C0019F0C3EF19F0C5EF19F0C5EF19F01200F1
:10338C000D6EF2900D50D8A4CEEF19F0D0EF19F0CD
:10339C00D2EF19F0D2EF19F012000D6EF2900D5021
:1033AC00D8A4DBEF19F0DDEF19F0DFEF19F0DFEF48
:1033BC0019F012000D6EF2900D50D8A4E8EF19F030
:1033CC00EAEF19F0ECEF19F0ECEF19F0120064A22F
:1033DC00F2EF19F04EEF1AF0010E00018E27000EDD
:1033EC008F23902391231200016EF2900150D8A4E8
:1033FC0002EF1AF004EF1AF006EF1AF006EF1AF0CB
:10340C001200016EF2900150D8A40FEF1AF011EFD8
:10341C001AF013EF1AF013EF1AF01200016EF2907B
:10342C000150D8A41CEF1AF01EEF1AF020EF1AF07E
:10343C0020EF1AF01200016EF2900150D8A429EF7F
:10344C001AF02BEF1AF02DEF1AF02DEF1AF01200E4
:10345C0090EC19F0010E1D6E100E1E6EECEC16F0B9
:10346C0030EF1AF02DEF00F01C6EACA240EF1AF00A
:10347C0042EF1AF03BEF1AF09D881CC0ADFF120012
:10348C00010E00019627000E972398239923120012
:10349C00010E00018E27000E8F2390239123120022
:1034AC009E905250CF6E51C0CEFF12009E90525043
:1034BC00CF6E51C0CEFF12009E9257C0CCFF1200AF
:0D34CC009E9257C0CCFF1200010101014289
:1034DA00F0921200F0901200F2921200A1901200E3
:1034EA009E9C1200F0921200F0901200F2921200CA
:0834FA00A19012009E9C12003B
:020000040020DA
:08000000FFFFFFFFFFFFFFFF00
:020000040030CA
:0E000000FF02091EFF8181FF0FC00FE00F40BD
:00000001FF
