:040000001DEF00F000
:060008006B8276ED0EF0A4
:100018006B80D8CF53F0E8CF54F0E0CF55F003EC25
:1000280008F055C0E0FF54C0E8FF53C0D8FF6B90FC
:060038001000F3EF0DF0D3
:0510000000256900005D
:10100600F2A808EF08F00AEF08F013EF08F0F2A2D2
:101016000FEF08F011EF08F013EF08F07FEC0EF079
:10102600F0A618EF08F01AEF08F023EF08F0F0A08A
:101036001FEF08F021EF08F023EF08F07DEC0EF02B
:10104600F0A828EF08F02AEF08F033EF08F0F0A236
:101056002FEF08F031EF08F033EF08F07BEC0EF0DD
:10106600F2A638EF08F03AEF08F055EF08F0F2A0D4
:101076003FEF08F041EF08F055EF08F081A846EF82
:1010860008F048EF08F055EF08F02204D8A44EEF18
:1010960008F050EF08F055EF08F0000E226E010E32
:1010A60035EC0EF0F2A65AEF08F05CEF08F077EF99
:1010B60008F0F2A061EF08F063EF08F077EF08F0B0
:1010C60081B868EF08F06AEF08F077EF08F0225071
:1010D600D8A470EF08F072EF08F077EF08F0010E71
:1010E600226E000E35EC0EF0F2A67CEF08F07EEFD5
:1010F60008F099EF08F0F2A083EF08F085EF08F00A
:1011060099EF08F081AA8AEF08F08CEF08F099EFC2
:1011160008F02104D8A492EF08F094EF08F099EFB4
:1011260008F0000E216E010E28EC0EF0F2A69EEFDE
:1011360008F0A0EF08F0BBEF08F0F2A0A5EF08F06A
:10114600A7EF08F0BBEF08F081BAACEF08F0AEEFFE
:1011560008F0BBEF08F02150D8A4B4EF08F0B6EFC2
:1011660008F0BBEF08F0010E216E000E28EC0EF021
:10117600F2A6C0EF08F0C2EF08F0DDEF08F0F2A02B
:10118600C7EF08F0C9EF08F0DDEF08F081ACCEEF4D
:1011960008F0D0EF08F0DDEF08F02004D8A4D6EF71
:1011A60008F0D8EF08F0DDEF08F0000E206E010E13
:1011B6001BEC0EF0F2A6E2EF08F0E4EF08F0FFEF0A
:1011C60008F0F2A0E9EF08F0EBEF08F0FFEF08F007
:1011D60081BCF0EF08F0F2EF08F0FFEF08F02050C6
:1011E600D8A4F8EF08F0FAEF08F0FFEF08F0010EC8
:1011F600206E000E1BEC0EF0F2A604EF09F006EFCF
:1012060009F021EF09F0F2A00BEF09F00DEF09F05C
:1012160021EF09F081AE12EF09F014EF09F021EF8A
:1012260009F01F04D8A41AEF09F01CEF09F021EF0A
:1012360009F0000E1F6E010E0EEC0EF0F2A626EF60
:1012460009F028EF09F043EF09F0F2A02DEF09F0BD
:101256002FEF09F043EF09F081BE34EF09F036EFC6
:1012660009F043EF09F01F50D8A43CEF09F03EEF18
:1012760009F043EF09F0010E1F6E000E0EEC0EF0A2
:101286001200F2A849EF09F04BEF09F054EF09F00C
:10129600F2A250EF09F052EF09F054EF09F085EC95
:1012A6000EF0F0A659EF09F05BEF09F064EF09F0D4
:1012B600F0A060EF09F062EF09F064EF09F083EC4B
:1012C6000EF0F0A869EF09F06BEF09F074EF09F082
:1012D600F0A270EF09F072EF09F074EF09F081ECFB
:1012E6000EF0F2A679EF09F07BEF09F096EF09F020
:1012F600F2A080EF09F082EF09F096EF09F081A8DD
:1013060087EF09F089EF09F096EF09F02204D8A4D7
:101316008FEF09F091EF09F096EF09F0000E226EBB
:10132600010E69EC0EF0F2A69BEF09F09DEF09F0B5
:10133600B8EF09F0F2A0A2EF09F0A4EF09F0B8EFB8
:1013460009F081B8A9EF09F0ABEF09F0B8EF09F0A1
:101356002250D8A4B1EF09F0B3EF09F0B8EF09F0C5
:10136600010E226E000E69EC0EF0F2A6BDEF09F03A
:10137600BFEF09F0DAEF09F0F2A0C4EF09F0C6EF0B
:1013860009F0DAEF09F081AACBEF09F0CDEF09F009
:10139600DAEF09F02104D8A4D3EF09F0D5EF09F06C
:1013A600DAEF09F0000E216E010E5CEC0EF0F2A6EB
:1013B600DFEF09F0E1EF09F0FCEF09F0F2A0E6EF4C
:1013C60009F0E8EF09F0FCEF09F081BAEDEF09F05A
:1013D600EFEF09F0FCEF09F02150D8A4F5EF09F082
:1013E600F7EF09F0FCEF09F0010E216E000E5CEC40
:1013F6000EF0F2A601EF0AF003EF0AF01EEF0AF074
:10140600F2A008EF0AF00AEF0AF01EEF0AF081AC2C
:101416000FEF0AF011EF0AF01EEF0AF02004D8A42D
:1014260017EF0AF019EF0AF01EEF0AF0000E206E11
:10143600010E4FEC0EF0F2A623EF0AF025EF0AF0AC
:1014460040EF0AF0F2A02AEF0AF02CEF0AF040EF84
:101456000AF081BC31EF0AF033EF0AF040EF0AF0F0
:101466002050D8A439EF0AF03BEF0AF040EF0AF01B
:10147600010E206E000E4FEC0EF0F2A645EF0AF0BC
:1014860047EF0AF062EF0AF0F2A04CEF0AF04EEFD7
:101496000AF062EF0AF081AE53EF0AF055EF0AF058
:1014A60062EF0AF01F04D8A45BEF0AF05DEF0AF0C2
:1014B60062EF0AF0000E1F6E010E42EC0EF0F2A66D
:1014C60067EF0AF069EF0AF084EF0AF0F2A06EEF18
:1014D6000AF070EF0AF084EF0AF081BE75EF0AF0A9
:1014E60077EF0AF084EF0AF01F50D8A47DEF0AF0D8
:1014F6007FEF0AF084EF0AF0010E1F6E000E42EC39
:101506000EF01200010E5E6E56505710D8B48EEFD4
:101516000AF090EF0AF0A1EF0AF056C0D9FF57C0C3
:10152600DAFFDF30E832E832070B586E070E5864F0
:101536009FEF0AF0A1EF0AF004EF0BF0000E5E6ECB
:1015460025EF0BF056C0D9FF57C0DAFFDF30E8327F
:10155600E832070B586E010E596E582AB5EF0AF09D
:10156600D8905936582EB3EF0AF05950FF0A5A6EE2
:1015760056C0D9FF57C0DAFFDF50070B5B6E5B50D2
:10158600020D150EF324D96E000EF420DA6EDECFAE
:101596005CF0DDCF5DF05CC0D9FF5DC0DAFF5A506C
:1015A600DF1625EF0BF056C0D9FF57C0DAFFDF3044
:1015B600E832E832070B586E010E596E582AE6EFEC
:1015C6000AF0D8905936582EE4EF0AF056C0D9FFE3
:1015D60057C0DAFFDF50070B5A6E5A50020D150E30
:1015E600F324D96E000EF420DA6EDECF5BF0DDCF89
:1015F6005CF05BC0D9FF5CC0DAFF5950DF1225EF03
:101606000BF056C0D9FF57C0DAFFDFBC0DEF0BF069
:1016160010EF0BF0010E11EF0BF0000E586E596A29
:101626005950000AD8B41AEF0BF0A1EF0AF058503F
:10163600000AD8B4A5EF0AF0010AD8B4D6EF0AF02A
:10164600A1EF0AF05E501200010E5F6E5650571061
:10165600D8B430EF0BF032EF0BF043EF0BF056C07F
:10166600D9FF57C0DAFFDF30E832E832070B596E90
:10167600070E596441EF0BF043EF0BF0A6EF0BF0AA
:10168600000E5F6EBBEF0BF056C0D9FF57C0DAFFF6
:10169600DF30E832E832070B596E010E5A6E592ACE
:1016A60057EF0BF0D8905A36592E55EF0BF05A508B
:1016B600FF0A5B6E56C0D9FF57C0DAFFDF50070B33
:1016C6005C6E5C50020D0B0EF324D96E000EF420F6
:1016D600DA6EDECF5DF0DDCF5EF05DC0D9FF5EC0B5
:1016E600DAFF5B50DF16BBEF0BF056C0D9FF57C0D1
:1016F600DAFFDF30E832E832070B596E010E5A6E18
:10170600592A88EF0BF0D8905A36592E86EF0BF0EF
:1017160056C0D9FF57C0DAFFDF50070B5B6E5B5030
:10172600020D0B0EF324D96E000EF420DA6EDECF16
:101736005CF0DDCF5DF05CC0D9FF5DC0DAFF5A50CA
:10174600DF12BBEF0BF05850596E5A6A5A50000A16
:10175600D8B4B0EF0BF043EF0BF05950000AD8B4F1
:1017660047EF0BF0010AD8B478EF0BF043EF0BF01C
:101776005F501200BBEC0DF0360E606E000E616E0F
:101786009AEC0CF06A6E350E606E000E616E9AEC85
:101796000CF06A6E340E606E000E616E9AEC0CF000
:1017A6006A6E330E606E000E616E9AEC0CF06A6E15
:1017B6000B0E696E260E686E5E0EE82EFED7682E3C
:1017C600FCD7692EFAD7360E606E000E616EDAEC23
:1017D6000CF06A6E350E606E000E616EDAEC0CF07F
:1017E6006A6E340E606E000E616EDAEC0CF06A6E94
:1017F600330E606E000E616EDAEC0CF06A6E0B0E44
:10180600696E260E686E5E0EE82EFED7682EFCD731
:10181600692EFAD7360E5D6E000E5E6E1AEC0DF06E
:101826006A6E340E5D6E000E5E6E1AEC0DF06A6E18
:101836000B0E696E260E686E5E0EE82EFED7682EBB
:10184600FCD7692EFAD7360E5D6E000E5E6E1AEC68
:101856000DF06A6E350E5D6E000E5E6E1AEC0DF0C2
:101866006A6E340E5D6E000E5E6E1AEC0DF06A6ED8
:10187600330E5D6E000E5E6E1AEC0DF06A6E0B0E88
:10188600696E260E686E5E0EE82EFED7682EFCD7B1
:10189600692EFAD7BFEF0BF01DEF00F05650571028
:1018A600D8B458EF0CF05AEF0CF06BEF0CF056C0B2
:1018B600D9FF57C0DAFFDF30E832E832070B586E3F
:1018C600070E586469EF0CF06BEF0CF06DEF0CF03F
:1018D60099EF0CF056C0D9FF57C0DAFFDF30E83277
:1018E600E832070B586E010E596E582A7DEF0CF040
:1018F600D8905936582E7BEF0CF056C0D9FF57C0FA
:10190600DAFFDF50070B5A6E5A50020D0B0EF32406
:10191600D96E000EF420DA6EDECF5BF0DDCF5CF020
:101926005BC0D9FF5CC0DAFF5950DF1A1200010E06
:10193600636E60506110D8A4A3EF0CF0A5EF0CF015
:10194600A9EF0CF0000E636ED8EF0CF04FC064F0F8
:1019560060C0D9FF61C0DAFFDF500F0B626E6450C2
:101966006218F80B6218646E60C0D9FF61C0DAFFB6
:10197600DF38070B626E6246624662466450621842
:10198600C70B6218646E649C60C0D9FF61C0DAFF41
:10199600DFAE02D0648E01D0649E640E566E000ED9
:1019A600576E010E586E27EC0BF063501200010EB5
:1019B600636E60506110D8A4E3EF0CF0E5EF0CF015
:1019C600E9EF0CF0000E636E18EF0DF04EC064F0F8
:1019D60060C0D9FF61C0DAFFDF500F0B626E645042
:1019E6006218F80B6218646E60C0D9FF61C0DAFF36
:1019F600DF38070B626E62466246624664506218C2
:101A0600C70B6218646E649C60C0D9FF61C0DAFFC0
:101A1600DFAE02D0648E01D0649E640E566E000E58
:101A2600576E000E586E27EC0BF063501200010E35
:101A3600606E5D505E10D8A423EF0DF025EF0DF01B
:101A460029EF0DF0000E606E56EF0DF04DC061F0FF
:101A56005DC0D9FF5EC0DAFFDF500F0B5F6E6150CD
:101A66005F18F80B5F18616E5DC0D9FF5EC0DAFFC4
:101A7600DF38070B5F6E5F465F465F4661505F1853
:101A8600C70B5F18616E619C5DC0D9FF5EC0DAFF4F
:101A9600DFAE02D0618E01D0619E610E566E000EE1
:101AA600576E51EC0CF060501200010E666E6350DA
:101AB6006410D8A461EF0DF063EF0DF067EF0DF041
:101AC600000E666E94EF0DF050C067F063C0D9FF4C
:101AD60064C0DAFFDF500F0B656E67506518F80BB0
:101AE6006518676E63C0D9FF64C0DAFFDF38070B7D
:101AF600656E65466546654667506518C70B651889
:101B0600676E679C63C0D9FF64C0DAFFDFAE02D0A0
:101B1600678E01D0679E670E606E000E616E96EC52
:101B26000DF06650120060506110D8A49DEF0DF0C4
:101B36009FEF0DF0A3EF0DF0000E626EB9EF0DF002
:101B460060C056F061C057F085EC0AF0626E60C066
:101B560056F061C057F060C0D9FF61C0DAFF000ED1
:101B6600DFBE010E586E27EC0BF0621662501200B3
:101B7600360E636E000E646E58EC0DF06A6E350E0E
:101B8600636E000E646E58EC0DF06A6E340E636E72
:101B9600000E646E58EC0DF06A6E330E636E000E26
:101BA600646E58EC0DF06A6E1200800F810F820F82
:101BB600830F840F890F8A0F8B0F8C0F8D0F920F57
:101BC600930F940F950F960F01010101323A030B03
:101BD600131B232B333B020A121A222A3222120229
:101BE600B00EF66E1B0EF76E000EF86E00EE01F0EC
:101BF60010EE36F00900F5CFEEFFE550E150FAE1C0
:101C060000EE37F01A0EEE6AE806FDE16B906B9275
:101C16000001BDEF0BF0526EF2905250D8A416EFB1
:101C26000EF018EF0EF01AEF0EF01AEF0EF012008B
:101C3600526EF2905250D8A423EF0EF025EF0EF01C
:101C460027EF0EF027EF0EF01200526EF290525070
:101C5600D8A430EF0EF032EF0EF034EF0EF034EF82
:101C66000EF01200526EF2905250D8A43DEF0EF0D4
:101C76003FEF0EF041EF0EF041EF0EF01200516E05
:101C8600F2905150D8A44AEF0EF04CEF0EF04EEF02
:101C96000EF04EEF0EF01200516EF2905150D8A495
:101CA60057EF0EF059EF0EF05BEF0EF05BEF0EF014
:101CB6001200516EF2905150D8A464EF0EF066EF08
:101CC6000EF068EF0EF068EF0EF01200516EF29013
:101CD6005150D8A471EF0EF073EF0EF075EF0EF0C1
:101CE60075EF0EF01200060044EC09F06B9211003D
:101CF600F0921200F0901200F2921200F09212008E
:081D0600F0901200F2921200AD
:020000040020DA
:08000000FFFFFFFFFFFFFFFF00
:020000040030CA
:0E000000FF02091EFF8181FF0FC00FE00F40BD
:00000001FF
